:020000040800F2
:10000000005000203D280008C1090008C30900086D
:10001000C5090008C7090008C90900080000000058
:10002000000000000000000000000000CB090008F4
:10003000CD09000800000000CF090008D109000820
:1000400085280008852800088528000885280008DC
:1000500085280008852800088528000885280008CC
:1000600085280008852800088528000885280008BC
:1000700085280008852800088528000885280008AC
:10008000852800088528000885280008852800089C
:10009000852800088528000885280008852800088C
:1000A000852800088528000885280008852800087C
:1000B000D909000885280008852800088528000837
:1000C000852800088528000885280008852800085C
:1000D000852800088528000885280008852800084C
:1000E00085280008852800088528000800000000F1
:1000F0000000000000000000000000000000000000
:0C01000000000000000000005FF808F1A3
:100110000348044B834202D0034B03B11847704796
:100120000C0000200C0000200000000005480649DB
:100130000B1AD90F01EBA301491002D0034B03B1F5
:10014000184770470C0000200C0000200000000041
:1001500010B5064C237843B9FFF7DAFF044B13B10F
:100160000448AFF300800123237010BD100000206D
:10017000000000008828000808B5044B1BB10449A2
:100180000448AFF30080BDE80840CFE7000000005E
:10019000140000208828000870B50D4E0D4D761B08
:1001A000B61006D0002455F8043B01349847A64207
:1001B000F9D1094E094D02F067FB761BB61006D047
:1001C000002455F8043B01349847A642F9D170BD8C
:1001D0002C2C00082C2C0008302C00082C2C00089B
:1001E000830730B548D0541E002A3FD00346CAB218
:1001F00001E0013C3AD303F8012B9D07F9D1032C10
:100200002DD9CDB245EA05250F2C45EA054536D94D
:10021000A4F1100222F00F0C03F1200EE6444FEA85
:10022000121C03F1100242E9045542E90255103252
:100230007245F8D10CF1010214F00C0F03EB02121D
:1002400004F00F0C13D0ACF1040323F003030433C8
:10025000134442F8045B9342FBD10CF003042CB12D
:10026000CAB21C4403F8012B9C42FBD130BD64464A
:100270001346002CF4D1F9E703461446BFE71A46AB
:10028000A446E0E753B94AB9002908BF00281CBFBB
:100290004FF0FF314FF0FF3000F076B9ADF1080CB0
:1002A0006DE904CE00F006F8DDF804E0DDE9022394
:1002B00004B070472DE9F047089E0D460446884675
:1002C000002B4DD18A42944668D9B2FA82F252B1DB
:1002D00001FA02F3C2F1200120FA01F10CFA02FC4A
:1002E00041EA030894404FEA1C41B8FBF1F71FFABA
:1002F0008CFE01FB178807FB0EF0230C43EA084332
:1003000098420AD91CEB030307F1FF3580F01E81E8
:10031000984240F21B81023F63441B1AB3FBF1F089
:1003200001FB103300FB0EFEA4B244EA0344A645D1
:100330000AD91CEB040400F1FF3380F00981A645C3
:1003400040F20681644402380021A4EB0E0440EA26
:1003500007401EB10023D440C6E90043BDE8F08742
:100360008B4208D9002E00F0EE800021C6E900057E
:100370000846BDE8F087B3FA83F100294AD1AB42C1
:1003800002D3824200F2FC80841A65EB0303012051
:100390009846002EE2D0C6E90048DFE702B9FFDE4A
:1003A000B2FA82F2002A40F09180A1EB0C00012108
:1003B0004FEA1C471FFA8CFEB0FBF7F307FB130054
:1003C000250C45EA00450EFB03F0A84208D91CEBBA
:1003D000050503F1FF3802D2A84200F2CE80434661
:1003E0002D1AB5FBF7F007FB10550EFB00FEA4B26B
:1003F00044EA0544A64508D91CEB040400F1FF3586
:1004000002D2A64500F2B6802846A4EB0E0440EACC
:1004100003409EE7C1F120078B4022FA07FC4CEA1B
:10042000030C25FA07FA4FEA1C49BAFBF9F820FA3F
:1004300007F309FB18AA8D401FFA8CFE1D4300FA32
:1004400001F308FB0EF02C0C44EA0A44A04202FA25
:1004500001F20BD91CEB040408F1FF3A80F088800C
:10046000A04240F28580A8F102086444241AB4FB3B
:10047000F9F009FB104400FB0EFEADB245EA04445E
:10048000A64508D91CEB040400F1FF356CD2A64543
:100490006AD90238644440EA0840A0FB0295A4EB04
:1004A0000E04AC42C846AE4656D353D0002E69D097
:1004B000B3EB080264EB0E0422FA01F304FA07F727
:1004C0001F43CC40C6E90074002147E70CFA02FC48
:1004D000C2F1200125FA01F34FEA1C4720FA01F18D
:1004E00095400D43B3FBF7F107FB11331FFA8CFE68
:1004F000280C40EA034001FB0EF3834204FA02F4A5
:1005000008D91CEB000001F1FF382FD283422DD90E
:1005100002396044C01AB0FBF7F307FB1300ADB219
:1005200045EA004503FB0EF0A84208D91CEB05057F
:1005300003F1FF3816D2A84214D9023B6544281AA9
:1005400043EA014138E73146304607E72F46E4E603
:100550001846F9E64B45A9D2B9EB020865EB0C0E3B
:100560000138A3E74346EAE7284694E74146D1E746
:10057000D0467BE76444023847E7023B65442FE7F7
:10058000084606E73146E9E6704700BF10B50A4C59
:1005900022780A4B03EBC203D3E9000100F028FCE8
:1005A00022780132064B83FB02135B11642101FBAD
:1005B0001323237010BD00BF2C000020E02800088A
:1005C0001F85EB5110B58CB01F4C204B236064236A
:1005D00063601F4BA3600123E360002020746074FC
:1005E000A374E07420750722A2610622E26184F8F8
:1005F000203084F8210084F8220084F8230084F855
:100600002400A062E06284F8300084F8310084F8AD
:10061000323002236363A06300F0D6FCEC4604F1A1
:10062000100EBEE80F00ACE80F00BEE80F00ACE80B
:100630000F009EE807008CE8070094E80F0000F028
:10064000FBFB0CB010BD00BF3000002040787D01E6
:1006500080C8B30872B6FEE700B591B02822002129
:1006600006A8FFF7BDFD00230193029303930493B3
:100670000593012206924FF4803307934FF4003123
:1006800008910A9202220D920E934FF4E0130F93F9
:1006900006A800F033FF80B90F23019302210291D5
:1006A000002303934FF480620492059301A801F0A4
:1006B0005DF920B911B05DF804FBFFF7CBFFFFF740
:1006C000C9FF00000000000030B59DB000F0C8FE7A
:1006D0003D4C01221021204601F010FB01224FF475
:1006E0008061204601F00AFBFFF7B6FF00F072F8C8
:1006F00000F0C2F800F084FC00F0E0F801F08AFDA0
:10070000FFF760FF314C0DF1480CA646BEE80F0024
:10071000ACE80F00BEE80F00ACE80F009EE8030055
:100720008CE803002A4D12A9284601F07DFE2846D8
:1007300001F000FF0DF1300E04F1280CBCE80F00B1
:10074000AEE80F009CE803008EE8030000230A9344
:100750000B930893099301930293039304930593D6
:10076000069307930093012000F02EFC0021184807
:1007700002F051F80028F9D008AB01AA0021144872
:1007800001F094FF002000F01FFC0DA1D1E9000151
:1007900000F02EFB4FF4FA6000F086FE012000F01E
:1007A00013FC0B4801F069FF0028FAD06B460AAA37
:1007B0000CA9074801F0ECFEFEE700BFAFF3008094
:1007C000C0CA89360000000000080140A0280008C7
:1007D000EC0100202DE9F04188B000240494059438
:1007E00006940794214B9A6942F020029A619A6913
:1007F00002F020020192019A9A6942F004029A6181
:100800009A6902F004020292029A9A6942F008027E
:100810009A619B6903F008030393039BDFF8508000
:1008200022464FF4A261404601F068FA114D22467B
:100830004FF48051284601F061FA4FF4A26304930B
:100840000127059706940226079604A9404601F061
:1008500043F94FF48053049305970694079604A92F
:10086000284601F039F908B0BDE8F08100100240D7
:1008700000080140000C014008B50E480E4B036013
:100880004FF48273436000238360C360036143615C
:100890004FF4007282610822C26103624362836284
:1008A0000A23C36200F07EFC00B908BDFFF7D2FE48
:1008B000FBE700BF6C0000200030014008B50D4888
:1008C0000D4B03604FF48273436000238360C36069
:1008D000036143614FF400728261C361036243624A
:1008E00083620A23C36200F05DFC00B908BDFFF714
:1008F000B1FEFBE7C40000200038004010B588B00E
:10090000002304930593069307930368274A9342B1
:1009100004D0274A93421FD008B010BD254B9A69D6
:1009200042F480529A619A6902F480520092009ACD
:100930009A6942F004029A619B6903F004030193EF
:10094000019BA0230493022305930323079304A987
:10095000194801F0C1F8DFE7164BDA6942F480422A
:10096000DA61DA6902F480420292029A9A6942F0EC
:1009700008029A619B6903F008030393039B4FF4F9
:100980002043049302230593032307930B4C04A9EC
:10099000204601F0A1F84FF480430493002305930F
:1009A000069304A9204601F097F8B5E7003001400E
:1009B000003800400010024000080140000C0140D7
:1009C000FEE7FEE7FEE7FEE7FEE770477047704789
:1009D00008B500F057FD08BD08B5024801F031FA2E
:1009E00008BD00BFA001002082B00E4B9A6942F002
:1009F00001029A619A6902F001020092009ADA6992
:100A000042F08052DA61DB6903F080530193019B6D
:100A1000054A536823F0E06343F00073536002B06B
:100A2000704700BF001002400000014010B5064CA6
:100A300000221021204601F061F900224FF480616C
:100A4000204601F05BF910BD0008014010B5064CCE
:100A500001221021204601F051F901224FF480615A
:100A6000204601F04BF910BD0008014000B583B0ED
:100A70008DF807004FF47A7301220DF10701034846
:100A800000F0EBFB03B05DF804FB00BF6C0000203E
:100A9000F0B583B0070E8DF80470C0F307468DF8EB
:100AA0000560C0F307258DF80650C4B28DF80740E5
:100AB000FFF7BCFF3846FFF7D9FF3046FFF7D6FFF8
:100AC0002846FFF7D3FF2046FFF7D0FFFFF7BEFF12
:100AD000002003B0F0BD70B505460026052414E0E3
:100AE00094B98EB11FE0264620436865FFF7D0FF1A
:100AF00000281FDB04F1080305EB83035A6804F1A7
:100B00000E0305EB83035A60013C002C11DB04F15A
:100B10000E0305EB83035A6804F1080305EB830316
:100B200058688242DCD0012CDDD0042CDCD10126B7
:100B3000DAE7002070BD000010B4844604680BE0C2
:100B4000012211E0012200FB02F2B3FBF2F3CCF828
:100B50000C300A4A93420FD9013189B2DCF80430D3
:100B6000A27C002AECD0022202FB03F30846E27CBE
:100B7000002AE7D00222E6E710BC70470048E801EF
:100B800084460B46814228BF034600E0013B1846DD
:100B9000BCFBF3F203FB12C2002AF7D1B1FBF3F264
:100BA00003FB1212002AF1D1704700002DE9F04F2B
:100BB00087B09246994603680493864BD31869F12F
:100BC0000002854999424FF001039341C0F0FE8035
:100BD0000546824B53454FF0000373EB090307D2E0
:100BE0004B2303934FF00063059300232B620BE02C
:100BF0001723039300230593F7E71AEB0A0A49EB3F
:100C000009092B6A01332B62754B53454FF00003E2
:100C100073EB0903F1D2049B1C8A0CB1013CA4B212
:100C2000D5F8088024E01CB34FF0000BA6FB0A01A6
:100C300006FB0911012F94BF00230123C0183A4677
:100C40005B4641F10001FFF71DFB00900191324628
:100C50005B46FFF717FB02926A6132465B460098DB
:100C60000199FFF70FFB8346A861039B984214D2BA
:100C700021462846FFF760FF84B2EF68B7FBF8F61D
:100C8000EE61B4F5806F02D308F101080024B6F5D7
:100C9000805FC8D3002CEBD1C5E7524BA3FB0723E1
:100CA000DB0B514A02FB13734FF22442934215D9D6
:100CB0004C4BA3FB0737C7F3C7370137FFB2029B83
:100CC00093B18EB1984619463046FFF759FFB6FBEF
:100CD000F0F6EE61B8FBF0F0686109E0414BA3FB70
:100CE0000737C7F3C737EAE700236B610123EB61DE
:100CF0003E4A02EACB396A6947F6F87303EAC20250
:100D000049EA02026A62EA6903EAC203059A1343E6
:100D100043F40043AB62A30343F40053049A927C70
:100D2000002A4CD04FF000721343049AD27C002A60
:100D300047D04FF08072134304994A6922F043422E
:100D400022F47F0222F4604222F03F021343EB625E
:100D50008B6923F07F4323F4780323F4004323F0CB
:100D600007032B632A6A3B0343EA0253CA6902F46E
:100D7000FB62134343F4000343F020036B634FF41F
:100D8000B003AB632846FFF7A6FE011E1BDBA86974
:100D9000EA69696902FB0011E8682D6AA5F120047F
:100DA000C5F1200302FA04F422FA03F3AA40234314
:100DB000A1FB0001FFF766FA07B0BDE8F08F002243
:100DC000B2E70022B7E70846C917F5E74FF0FF3052
:100DD0000146F1E7A87AF3FDA8263604005ED0B2FA
:100DE000FF55218383DE1B4348E801000080FF7F1D
:100DF00008B502460B460248FFF7D8FE08BD00BF03
:100E00001C0100206FF00043984201D0024B986013
:100E1000014B9868704700BF1C01002000F100439F
:100E200001330B4301D0034B5860024B586800213B
:100E3000704700BF1C01002084B038B504AC84E8C2
:100E40000F005E4B5E4A136018605960069A9A6004
:100E50000022DA60079A1A829DF820209A749DF881
:100E60002120DA749DF82230002B00F0908040237E
:100E7000524A53619DF82320002A00F08A80802284
:100E800013434E4A53619DF82420002A00F08380CA
:100E90004FF48072134349494B610A9AA2F59C7240
:100EA000D208484CA4FB02429208520202F4F052CB
:100EB00013434B610B9A43EA82634B619DF83020E8
:100EC000002A6AD04FF0C04213433C4A53619DF858
:100ED0003130002B63D04FF48023384A93619DF862
:100EE0003220002A5DD04FF400121343334A93613D
:100EF0009DF83320002A56D04FF4800213432F4A26
:100F000093619DF83420002A4FD04FF40002134320
:100F10002A4A93610E9943EAC10393610F9943EA08
:100F2000014393619DF84030002B40D04FF4807313
:100F3000224AD3619DF84120002A3AD04FF4007232
:100F400013431E4AD3619DF84220002A33D04FF448
:100F500080621343194AD361119943EAC103D361F3
:100F6000129943EA8113D36100242146FFF756FF0B
:100F7000134D2B685868FFF745FF2B68D3E9020132
:100F8000FFF736FF2046BDE8384004B07047002325
:100F90006EE7002274E700227CE7002294E700233A
:100FA0009BE70022A1E70022A8E70022AFE7002389
:100FB000BEE70022C4E70022CBE700BF7801002093
:100FC0001C0100201BA4411A10B50446012805D0BD
:100FD00064B10A4BD86A00F0200010BD0748C36A0C
:100FE00043F02003C362FFF776FDF1E70348C36ACD
:100FF00023F02003C362FFF76EFDEAE71C01002027
:1010000000B587B0002302930393049305930093E4
:10101000019316484FF08042026040F2E73242608E
:10102000836041F61F42C2600361836101F000F8F2
:1010300090B94FF48053029302A90C4801F030F8A4
:1010400068B90023009301936946084801F0A8F8A5
:1010500040B907B05DF804FBFFF7FCFAE9E7FFF7DA
:10106000F9FAEEE7FFF7F6FAF3E700BFA001002078
:101070000368B3F1804F00D0704700B583B003F52B
:101080000433DA6942F00102DA61DB6903F001033B
:101090000193019B002211461C2000F047FE1C20FA
:1010A00000F07CFE03B05DF804FB00002DE9F04782
:1010B00082B00546884617461E4600F0EFF90A9BA7
:1010C0001B1A03EB060900F0E9F982462B4B1B685B
:1010D000C3F3CB3309FB03F301932B689C6838EA15
:1010E00004030CBF4FF0010C4FF0000CBC4540D086
:1010F000B6F1FF3FF1D000F0D1F9A0EB0A0048456E
:101100000AD2B9F1000F07D0019A02B14A46019BF9
:10111000013B01939146E0E72A68536823F0E0031E
:1011200053606B68B3F5827F0BD0AB6AB3F5005F99
:1011300014D0012385F85130002385F85030032066
:1011400018E0AB68B3F5004F02D0B3F5806FECD177
:101150002A68136823F040031360E6E72A681368DF
:1011600023F4005313602A68136843F40053136098
:10117000DFE7002002B0BDE8F08700BF08000020D4
:1011800010B582B004460B46009200228021FFF782
:101190008DFF08B902B010BD636D43F02003636595
:1011A0000320F7E7002856D010B50446436A33B948
:1011B0004368B3F5827F05D00023C36102E00023BA
:1011C000036143610023A36294F85130002B3CD0AB
:1011D000022384F851302268136823F0400313601F
:1011E000636803F48273A26802F404421343E26862
:1011F00002F400621343226902F00202134362699F
:1012000002F001021343A26902F400721343E2697F
:1012100002F038021343226A02F080021343A26AEA
:1012200002F40052216813430B60638B226803F0C1
:10123000040353602268D36923F40063D361002060
:101240006065012384F8513010BD84F85030204689
:10125000FFF754FBBCE7012070472DE9F04383B052
:101260001D4690F85030012B00F0D180044688468E
:101270009146012380F8503000F010F9074694F8A9
:101280005160F6B2012E40F0BA80B8F1000F00F0C4
:10129000B780B9F1000F00F0B380032384F8513018
:1012A00000236365C4F83080A4F83490A4F8369025
:1012B000A363A387E38763642364A368B3F5004F44
:1012C0001ED023681A6812F0400F03D11A6842F04A
:1012D00040021A60E368B3F5006F1CD0636813B175
:1012E000B9F1010F55D1226B236812781A73236B61
:1012F00001332363E38E9BB2013B9BB2E38648E05C
:101300002268136823F0400313602268136843F4D3
:1013100080431360D5E7636813B1B9F1010F15D1AC
:10132000226B23681288DA60236B02332363E38E17
:101330009BB2013B9BB2E38608E000F0AFF8C01B14
:10134000A84202D3B5F1FF3F15D1A5B1E38E9BB200
:10135000002B3CD023689A6812F0020FEDD0226B6C
:101360001288DA60236B02332363E38E9BB2013B66
:101370009BB2E386EAE7012384F8513003263FE07D
:1013800000F08CF8C01BA84202D3B5F1FF3F19D181
:10139000C5B1E38E9BB2D3B123689A6812F0020FF5
:1013A000EED0226B12781A73236B01332363B4F8E7
:1013B00036C01FFA8CFC0CF1FF3C1FFA8CFCA4F821
:1013C00036C0E6E7012384F85130032618E03A4698
:1013D00029462046FFF7D4FE08B120236365A368A1
:1013E00033B901932368DA6801929B680193019BEA
:1013F000636D2BB9012384F85130002600E00226EA
:10140000002384F85030304603B0BDE8F083022654
:10141000F9E7000010B504460E4B18784FF47A73C4
:10142000B3FBF0F30C4A1068B0FBF3F000F0C4FC1F
:1014300068B90F2C01D901200AE0002221464FF0A3
:10144000FF3000F073FC054B1C60002000E0012021
:1014500010BD00BF00000020080000200400002094
:1014600008B5074A136843F010031360032000F027
:101470004BFC0F20FFF7CEFFFFF7B6FA002008BDA8
:1014800000200240034A1168034B1B780B44136091
:10149000704700BFE801002000000020014B1868E1
:1014A000704700BFE801002038B50446FFF7F6FF9B
:1014B0000546B4F1FF3F02D0044B1B781C44FFF7F4
:1014C000EDFF401BA042FAD338BD00BF0000002052
:1014D00082B0084B1B68084AA2FB03235B0A00FB8F
:1014E00003F3019300BF019B5A1E0192002BF9D117
:1014F00002B0704708000020D34D6210002800F0B1
:10150000F18170B582B00446036813F0010F2CD04E
:10151000994B5B6803F00C03042B1DD0964B5B6862
:1015200003F00C03082B12D06368B3F5803F41D061
:10153000002B55D103F1804303F504331A6822F4DC
:1015400080321A601A6822F480221A6037E08A4BCF
:101550005B6813F4803FE7D0874B1B6813F4003FB0
:1015600003D06368002B00F0BF81236813F0020FE3
:1015700075D0814B5B6813F00C0F5FD07E4B5B68BE
:1015800003F00C03082B54D02369002B00F08A8051
:101590007A4B01221A60FFF781FF0546764B1B68E4
:1015A00013F0020F75D1FFF779FF401B0228F5D920
:1015B00003209EE1704A136843F48033136063682C
:1015C00043B3FFF76BFF05466B4B1B6813F4003FFB
:1015D000CBD1FFF763FF401B6428F5D9032088E1D6
:1015E000B3F5A02F09D0644B1A6822F480321A6038
:1015F0001A6822F480221A60E1E703F18043A3F520
:101600003C331A6842F480221A601A6842F480322D
:101610001A60D4E7FFF742FF0546574B1B6813F4E7
:10162000003FA2D0FFF73AFF401B6428F5D9032002
:101630005FE1514B5B6813F4803FA5D14E4B1B68B3
:1016400013F0020F03D02369012B40F04F814A4A67
:10165000136823F0F803616943EAC1031360236848
:1016600013F0080F33D0A369002B5CD0434B012249
:10167000C3F88024FFF712FF05463F4B5B6A13F067
:10168000020F21D1FFF70AFF401B0228F5D90320E2
:101690002FE1394A136823F0F803616943EAC10373
:1016A0001360DCE7354B00221A60FFF7F7FE0546B2
:1016B000314B1B6813F0020FD1D0FFF7EFFE401B38
:1016C0000228F5D9032014E10120FFF701FF236868
:1016D00013F0040F00F09680274BDB6913F0805F56
:1016E00034D1254BDA6942F08052DA61DB6903F0CC
:1016F00080530193019B0125214B1B6813F4807FCC
:1017000026D0E368012B3DD0002B53D103F1804359
:1017100003F504331A6A22F001021A621A6A22F0EF
:1017200004021A6233E0154B0022C3F88024FFF74D
:10173000B5FE0546104B5B6A13F0020FC7D0FFF7EA
:10174000ADFE401B0228F5D90320D2E00025D3E7E7
:101750000B4A136843F480731360FFF79FFE06463D
:10176000074B1B6813F4807FCBD1FFF797FE801BDC
:101770006428F5D90320BCE000100240000042427A
:10178000007000405F4A136A43F001031362E3688C
:1017900033B3FFF783FE06465A4B1B6A13F0020F62
:1017A0002FD1FFF77BFE801B41F288339842F3D99B
:1017B00003209EE0052B09D0524B1A6A22F0010249
:1017C0001A621A6A22F004021A62E0E74D4B1A6AA2
:1017D00042F004021A621A6A42F001021A62D6E763
:1017E000FFF75CFE0646474B1B6A13F0020F08D05A
:1017F000FFF754FE801B41F288339842F3D903204F
:1018000077E0E5B9E369002B72D03E4A526802F0F6
:101810000C02082A56D0022B17D03B4B00221A6626
:10182000FFF73CFE0446374B1B6813F0007F47D0A0
:10183000FFF734FE001B0228F5D9032059E0314A96
:10184000D36923F08053D361DCE72F4B00221A6663
:10185000FFF724FE05462B4B1B6813F0007F06D0D4
:10186000FFF71CFE401B0228F5D9032041E0236A44
:10187000B3F5803F1AD023494B6823F47413226ACE
:10188000606A024313434B601F4B01221A66FFF745
:1018900005FE04461B4B1B6813F0007F0ED1FFF7BB
:1018A000FDFD001B0228F5D9032022E0154A5368EC
:1018B00023F40033A1680B435360DCE7002018E0F9
:1018C000002016E0012B16D00E4B5B6803F480312C
:1018D000226A914211D103F47013626A93420ED1CD
:1018E000002006E001207047012002E0012000E016
:1018F000002002B070BD0120FBE70120F9E70120C4
:10190000F7E700BF0010024000004242114B5A6846
:1019100002F00C03042B18D0082B18D1C2F3834318
:101920000D49C85C12F4803F0BD00A4B5B68C3F3CF
:1019300040430A4AD35C0A4A02FB00F0B0FBF3F0D2
:101940007047084B03FB00F0704705487047064896
:10195000704700BF00100240002C0008102C000847
:101960000024F40000093D0000127A00002800F075
:10197000A08070B50D460446524B1B6803F0070368
:101980008B420BD24F4A136823F007030B431360BB
:10199000136803F007038B4240F08D80236813F037
:1019A000020F17D013F0040F04D0474A536843F4D2
:1019B000E0635360236813F0080F04D0424A536871
:1019C00043F460535360404A536823F0F003A16826
:1019D0000B435360236813F0010F31D06368012B70
:1019E00020D0022B25D0384A126812F0020F64D0A2
:1019F00035494A6822F0030213434B60FFF74EFD5E
:101A00000646314B5B6803F00C036268B3EB820F50
:101A100016D0FFF743FD801B41F288339842F0D97E
:101A2000032045E0284A126812F4003FE0D101206B
:101A30003EE0254A126812F0007FD9D1012037E03C
:101A4000204B1B6803F00703AB420AD91D4A1368F9
:101A500023F007032B431360136803F00703AB4223
:101A60002DD1236813F0040F06D0174A536823F4CE
:101A7000E063E1680B435360236813F0080F07D05D
:101A8000114A536823F46053216943EAC103536048
:101A9000FFF73CFF0C4B5B68C3F303130B4AD35CAB
:101AA000D8400B4B18600B4B1868FFF7B3FC0020B5
:101AB00070BD012070470120FAE70120F8E70120FE
:101AC000F6E700BF0020024000100240142C00087E
:101AD000080000200400002070B582B00024A44655
:101AE000A6E0804DAA4210D007D97F4DAA420CD063
:101AF00005F58035AA4208D013E0A5F58015AA4265
:101B000003D005F57025AA4207D18A68002A58D06B
:101B1000012A51D04361082403E0A5F58015AA42AB
:101B2000F3D0BEF1FF0F4ED80646BEF1FF0F4CD8E2
:101B30004FEA8C0233680F25954023EA050304FA27
:101B400002F2134333604B6813F0805F6ED0674B33
:101B50009A6942F001029A619B6903F001030193C3
:101B6000019B4FEA9C02951C614B53F825600CF0D9
:101B700003039D000F23AB4026EA03065D4B98420A
:101B800029D003F58063984200F08E8003F58063CE
:101B9000984200F08B8003F58063984219D00423AB
:101BA0001AE0CC68BDE7CC680434BAE7CC680834E6
:101BB000B7E7CC680C34B4E703610824B1E700242C
:101BC000AFE70424ADE7061DAFE7ACF108029200D1
:101BD000B0E7032300E00023AB4033430232444D1F
:101BE00045F822304B6813F4801F61D0424A936855
:101BF00043EA0E0393604B6813F4001F5ED03E4A25
:101C0000D36843EA0E03D3604B6813F4003F5BD004
:101C1000394A536843EA0E0353604B6813F4803F1C
:101C200058D0354A136843EA0E0313600CF1010CD7
:101C30000A6832FA0CF353D0012303FA0CF302EAD8
:101C4000030E33EA0202F1D14A68122A3FF649AF85
:101C5000122A3FF666AF01A555F822F00B1B0008CB
:101C6000A31B0008AD1B0008BF1B0008231B0008B6
:101C7000231B0008231B0008231B0008231B00084C
:101C8000231B0008231B0008231B0008231B00083C
:101C9000231B0008231B0008231B0008231B00082C
:101CA000A71B0008B31B0008012395E7022393E755
:101CB000114A936823EA0E0393609CE70E4AD368A7
:101CC00023EA0E03D3609FE70B4A536823EA0E030F
:101CD0005360A2E7084A136823EA0E031360A5E7DE
:101CE00002B070BD00002210000031100010024050
:101CF0000000014000080140000401400AB10161F8
:101D00007047090401617047074AD36823F4E06310
:101D10001B041B0C000200F4E060034343F0BF63AC
:101D200043F40033D360704700ED00E000B5194B79
:101D3000DB68C3F30223C3F1070CBCF1040F28BF17
:101D40004FF0040C03F1040EBEF1060F18D9033B4B
:101D50004FF0FF3E0EFA0CFC21EA0C0199400EFAFE
:101D600003F322EA0303194300280BDB0901C9B27C
:101D700000F1604000F5614080F800135DF804FB5D
:101D80000023E5E700F00F000901C9B2024B195426
:101D9000F4E700BF00ED00E014ED00E0002807DBF1
:101DA00000F01F02400901239340024A42F820300C
:101DB000704700BF00E100E00138B0F1807F0BD236
:101DC0004FF0E0235861054AF02182F823100020EB
:101DD000986107221A6170470120704700ED00E00A
:101DE00010B4036A046A24F001040462846924F0D4
:101DF000F00C4CEA021223F00A030B4382610362E7
:101E000010BC704710B4036A046A24F01004046222
:101E1000846924F4704C4CEA023223F0A00343EAB4
:101E200001138261036210BC7047836823F0700362
:101E30000B4343F007038360704770477047704758
:101E4000704710B5044603681A6912F0020F11D0EA
:101E5000DA6812F0020F0DD06FF002021A6101234E
:101E6000037703689B6913F0030F70D0FFF7E6FF59
:101E70000023237723681A6912F0040F12D0DA685E
:101E800012F0040F0ED06FF004021A6102232377C0
:101E900023689B6913F4407F5FD02046FFF7CEFF95
:101EA0000023237723681A6912F0080F12D0DA682A
:101EB00012F0080F0ED06FF008021A610423237786
:101EC0002368DB6913F0030F4ED02046FFF7B6FFFF
:101ED0000023237723681A6912F0100F12D0DA68F2
:101EE00012F0100F0ED06FF010021A610823237742
:101EF0002368DB6913F4407F3DD02046FFF79EFF47
:101F00000023237723681A6912F0010F03D0DA68DF
:101F100012F0010F36D123681A6912F0800F03D036
:101F2000DA6812F0800F34D123681A6912F0400F7A
:101F300003D0DA6812F0400F32D123681A6912F028
:101F4000200F03D0DA6812F0200F30D110BDFFF758
:101F500074FF2046FFF773FF8AE72046FFF76DFF07
:101F60002046FFF76CFF9BE72046FFF766FF204601
:101F7000FFF765FFACE72046FFF75FFF2046FFF75E
:101F80005EFFBDE76FF001021A612046FEF7FEFA20
:101F9000C1E76FF080021A61204600F038F9C3E70C
:101FA0006FF040021A612046FFF74AFFC5E76FF065
:101FB00020021A61204600F029F9C7E703681B4A8E
:101FC00090420AD0B0F1804F07D0A2F594329042EF
:101FD00003D002F58062904203D123F070034A6877
:101FE0001343124A90420AD0B0F1804F07D0A2F5B5
:101FF0009432904203D002F58062904203D123F4E0
:102000004073CA68134323F080034A691343036093
:102010008B68C3620B688362044B984202D0012331
:10202000436170470B690363F9E700BF002C01406F
:1020300040B310B5044690F83D30F3B1022384F864
:102040003D30214651F8040BFFF7B8FF012384F817
:10205000463084F83E3084F83F3084F8403084F8CD
:10206000413084F8423084F8433084F8443084F8B6
:10207000453084F83D30002010BD80F83C30FEF73C
:10208000F7FFDBE70120704710B4846824F47F4C2D
:1020900042EA03220A4342EA0C02826010BC704703
:1020A00090F83C30012B78D010B50446012380F81D
:1020B0003C30022380F83D300268936823F47F436C
:1020C00023F0770393600B68602B4CD029D8402B0A
:1020D00054D00CD9502B22D1CA6849680068FFF748
:1020E0007FFE50212068FFF7A0FE002005E0202B96
:1020F0000DD009D9302B0AD00120012384F83D30BE
:10210000002384F83C3010BD0BB1102B05D11946CB
:102110002068FFF78AFE0020EFE70120EDE70120AD
:10212000EBE7B3F5805F34D0B3F5005F0CD1CB683B
:102130004A6889680068FFF7A7FF2268936843F43C
:10214000804393600020D8E7702B24D1CB684A6885
:1021500089680068FFF798FF2268936843F0770367
:1021600093600020C9E7CA6849680068FFF74AFE23
:1021700060212068FFF759FE0020BEE7CA68496861
:102180000068FFF72DFE40212068FFF74EFE00207B
:10219000B3E70020B1E70120AFE70220704700005D
:1021A00090F83C30012B2CD010B4012380F83C3047
:1021B000022380F83D3003685A689C6822F0700C56
:1021C0000A6842EA0C025A6003680F4A93420AD036
:1021D000B3F1804F07D0A2F59432934203D002F5B9
:1021E0008062934204D124F080044A6814439C60C6
:1021F000012380F83D30002380F83C30184610BCA5
:1022000070470220704700BF002C014070477047A4
:102210007047000008B50D480D4B03601223436062
:1022200000238360C3604FF4402202614FF48012A8
:102230004261037643768376C3760377437700F073
:102240004DF800B908BDFEF705FAFBE7EC010020E8
:102250000064004010B586B00023029303930493FA
:10226000059302681A4B9A4201D006B010BD03F5DF
:10227000D633DA6942F00072DA61DA6902F000728C
:102280000092009A9A6942F008029A619B6903F0F1
:1022900008030193019B4FF4807302930D4C02A934
:1022A0002046FFF719FC4FF40073029302230393B7
:1022B0000323059302A92046FFF70EFC064A536844
:1022C00023F4C04343F0E06343F480435360CCE71E
:1022D00000640040000C014000000140002800F0B4
:1022E000A18038B5044690F82030D3B12268136835
:1022F00043F001031360FFF7D1F8054623685A68DD
:1023000012F0010F10D1FFF7C9F8401B0A28F5D9C8
:10231000636A43F400336362052384F820300120AC
:1023200038BDFFF797FFE1E71A6822F002021A6052
:10233000FFF7B4F8054623685A6812F0020F0DD073
:10234000FFF7ACF8401B0A28F5D9636A43F4003361
:102350006362052384F820300120E1E7227E012A10
:102360003DD01A6822F080021A60637E012B3BD0B8
:102370002268136823F040031360A37E012B39D039
:102380002268136823F020031360E37E012B37D00B
:102390002268136843F010031360237F012B35D0AC
:1023A0002268136823F008031360637F012B33D086
:1023B0002268136823F004031360A368E2681343E0
:1023C00022691343626913436268013A2168134327
:1023D000CB6100206062012384F82030A0E71A68F6
:1023E00042F080021A60C0E72268136843F040039D
:1023F0001360C2E72268136843F020031360C4E748
:102400002268136823F010031360C6E7226813687C
:1024100043F008031360C8E72268136843F004031D
:102420001360CAE701207047026890F82030013B32
:10243000DBB2012B05D9436A43F4802343620120B8
:10244000704710B5D2F8003243F00103C2F80032F1
:102450004B6903F01F03012000FA03F3D2F81C02BA
:102460006FEA030C20EA0300C2F81C02C869C0B975
:10247000D2F80C020CEA0000C2F80C028C88486901
:10248000D1F80CE044EA0E44483042F830400C8861
:102490004869D1F808E044EA0E44483002EBC00035
:1024A0004460C86901281AD0886988BBD2F8040240
:1024B0000CEA0000C2F80402086978BBD2F81402E2
:1024C0000CEA0000C2F81402096A01292CD0D2F8E3
:1024D000003223F00103C2F80032002010BDD2F810
:1024E0000C021843C2F80C028C884869D1F800E04D
:1024F00044EA0E44483042F830408C894869D1F8AB
:1025000008E044EA0E44483002EBC0004460CBE7E8
:10251000D2F804021843C2F80402CDE7D2F814023C
:102520001843C2F81402CFE7D2F81C120B43C2F8CA
:102530001C32CCE770B5044690F82050EDB2012D66
:1025400006D0436A43F4002343620125284670BD48
:10255000022380F820300268136823F0010313601F
:10256000FEF79CFF064623685B6813F0010F0CD052
:10257000FEF794FF831B0A2BF5D9636A43F40033FB
:102580006362052384F82030E0E700256562DDE71B
:1025900030B590F820C00468A4680CF1FF3C5FFAE5
:1025A0008CFCBCF1010F62D814F0E05F59D0C4F389
:1025B000016C012404FA0CF41C608B68002B3DD1E3
:1025C0000D68CB68046843EA45550CF118031B01FC
:1025D000E55003680C690CF1180E03EB0E135C60F8
:1025E0000B7D012B35D0D17993791B0443EA01632C
:1025F000517943EA012314790168234301EB0C115B
:10260000C1F88C31D17893781B0443EA0163517887
:1026100043EA0123117802680B4302EB0C12C2F863
:10262000883102680CF1180C4FEA0C1C52F80C307F
:1026300043F0010342F80C3000201DE04C6843EAEF
:10264000C403CC6823430CF11804240105682B5102
:10265000BFE7036803EB0E13596841F480715960BA
:10266000C1E7436A43F400134362012004E0436A74
:1026700043F480234362012030BD90F82030013BB9
:10268000DBB2012B01D9002070470368986810F075
:10269000806000D001209A6812F0006F00D00130F5
:1026A0009B6813F0805FEFD00130704790F820C036
:1026B0000CF1FF3C5FFA8CFCBCF1010F00F2A5802D
:1026C00030B451B90468E46814F0030F10D1436AC0
:1026D00043F40013436201207EE00468246914F08F
:1026E000030F05D1436A43F400134362012073E0F2
:1026F000056801F11B0424012C5904F004049460C2
:10270000002C6BD1056801F11B0424012C59640DC8
:102710001460046801F11B0C4FEA0C1C54F80C40C7
:1027200004F00204D4600468A444DCF8045015F0FA
:10273000080F5BD008241461056801F11B0C05EB40
:102740000C156D68C5F307259561046804EB0C143E
:102750006468240C5461026802EB0112D2F8B821BB
:102760001A70026802EB0112D2F8B821C2F30722F4
:102770005A70026802EB0112D2F8B821C2F3074284
:102780009A70026802EB0112D2F8B821120EDA70C8
:10279000026802EB0112D2F8BC211A71026802EB46
:1027A0000112D2F8BC21C2F307225A71026802EB6F
:1027B0000112D2F8BC21C2F307429A71026802EBFF
:1027C0000112D2F8BC21120EDA71C1B90268D368C5
:1027D00043F02003D360002030BC7047056801F14E
:1027E0001B0424012C59E408546092E701F11B05F5
:1027F00004EB0514646804F00F0414619CE702689C
:10280000136943F020031361E5E7436A43F480232F
:1028100043620120704790F82030013BDBB2012B6E
:1028200001D90020704721B90368D86800F003007F
:1028300070470368186900F003007047FFF7E8FC71
:102840000B480C490C4A002302E0D458C45004330E
:10285000C4188C42F9D3094A094C002301E01360E3
:102860000432A242FBD3FDF797FCFDF72DFF704722
:10287000000000200C000020342C00081000002074
:1028800014020020FEE70000F8B500BFF8BC08BC49
:102890009E467047F8B500BFF8BC08BC9E4670471E
:1028A00020200000000000000000000000000000E8
:1028B0000000000000000000010000000100000016
:1028C0000100000000000000000100000000000006
:1028D00000000000000000000800000000000000F0
:1028E000CB66923600000000DDAAE835000000004B
:1028F00038F4D435000000003869E53500000000E8
:102900000D0BB03600000000D54F3436000000003B
:102910001B612B36000000000DA89036000000005F
:1029200073B7CA3600000000396139370000000073
:10293000EFED2E3700000000B3E404370000000084
:10294000F930DB3500000000F699A33600000000E6
:10295000533F623600000000CE1F96360000000094
:10296000D999DF350000000018EF8F360000000015
:10297000829805360000000074FFC3350000000097
:10298000EC243336000000000F4213360000000034
:10299000E39BC3360000000063A7FC350000000085
:1029A0003783043700000000602606360000000070
:1029B000088C67360000000082F6E8350000000051
:1029C000281C063600000000CF050F37000000006D
:1029D00079E4D9350000000057EE4A3700000000C6
:1029E000ECF4653600000000C406C13600000000AB
:1029F0002FFB2C37000000004D5D49370000000020
:102A00000ECFCD3600000000319BA2360000000042
:102A10008BD403360000000007AFD9360000000059
:102A2000A019F436000000002EFEC735000000009B
:102A30006B295B36000000002E570D3600000000A9
:102A4000175A33370000000070A64336000000001C
:102A500072E31137000000001F88B8360000000044
:102A60003B8A1537000000007ACFE93600000000ED
:102A7000F451EE3500000000031DFC35000000009D
:102A80002D166F360000000071EC7B360000000050
:102A900045E62B3700000000A8CE273700000000D5
:102AA000E4CC043600000000F714E4360000000017
:102AB0007748B73600000000F942FA350000000000
:102AC00042F4A836000000005784C9350000000019
:102AD0001E60103700000000CC55363700000000A3
:102AE000C467363600000000F5F31736000000001A
:102AF0001D1125370000000023F8F035000000000C
:102B00007A933236000000004441CA3600000000CB
:102B10000FFCFC3500000000D10ADF360000000089
:102B2000C903A03600000000F2B813360000000010
:102B3000EBA6A7360000000015473736000000005E
:102B4000566D1B3700000000E49A4037000000007B
:102B50004BDBFB3600000000D2EF1A37000000000C
:102B6000702935370000000024E9AB360000000072
:102B7000E1C56436000000002D67D5350000000077
:102B800056C21F3700000000F26308370000000043
:102B90009B80A736000000009F6F4A3600000000AF
:102BA00011E73337000000001B7980360000000079
:102BB000E6F79636000000008479503600000000E9
:102BC0007B59E2350000000059C8EF3500000000D5
:102BD0005198673600000000CD6CD735000000002A
:102BE000D593173600000000EAA235370000000038
:102BF000FE0C453700000000043EE13500000000F7
:102C000002030405060708090A0B0C0D0E0F10102D
:102C100001020000000000000000000001020304A7
:042C20000607080992
:082C240090D6FF7F01000000C3
:042C2C007901000822
:042C30005101000846
:0C2C340001000000100000000024F4006B
:040000050800283D8A
:00000001FF
