:020000040800F2
:100000000050002065320008DD090008DF09000803
:10001000E1090008E3090008E50900080000000004
:10002000000000000000000000000000E7090008D8
:10003000E909000800000000EB090008ED090008CC
:10004000AD320008AD320008AD320008AD32000814
:10005000AD320008AD320008AD320008AD32000804
:10006000AD320008AD320008AD320008AD320008F4
:10007000AD320008AD320008AD320008AD320008E4
:10008000AD320008AD320008AD320008AD320008D4
:10009000AD320008AD320008AD320008AD320008C4
:1000A000AD320008AD320008AD320008AD320008B4
:1000B000F5090008AD320008AD320008AD32000885
:1000C000AD320008AD320008AD320008AD32000894
:1000D000AD320008AD320008AD320008AD32000884
:1000E000AD320008AD320008AD320008000000005B
:1000F0000000000000000000000000000000000000
:0C01000000000000000000005FF808F1A3
:10010C0053B94AB9002908BF00281CBF4FF0FF3172
:10011C004FF0FF3000F00CB8ADF1080C6DE904CED7
:10012C0004F0A4F8DDF804E0DDE9022304B0704724
:10013C00704700BF0348044B834202D0034B03B10A
:10014C00184770476800002068000020000000007D
:10015C000548064B1B1AD90F01EBA301491002D01D
:10016C00034B03B11847704768000020680000205B
:10017C000000000010B5064C237843B9FFF7DAFFF6
:10018C00044B13B10448AFF300800123237010BD5E
:10019C0068000020000000004445000808B5054B2D
:1001AC001BB105490548AFF30080BDE80840FFF7D7
:1001BC00CFBF00BF000000006C00002044450008C9
:1001CC0010B50A4C22780A4B03EBC203D3E90001A9
:1001DC0000F064FE22780132064B83FB02135B11A4
:1001EC00642101FB1323237010BD00BF8400002089
:1001FC00504700081F85EB5110B58CB01F4C204B9D
:10020C002360642363601F4BA3600123E360002021
:10021C0020746074A374E07420750722A261062216
:10022C00E26184F8203084F8210084F8220084F8FC
:10023C00230084F82400A062E06284F8300084F883
:10024C00310084F8323002236363A06300F012FFA4
:10025C00EC4604F1100EBEE80F00ACE80F00BEE84F
:10026C000F00ACE80F009EE807008CE8070094E84C
:10027C000F0000F037FE0CB010BD00BF880000204E
:10028C0040787D0180C8B3082DE9F04393B0002479
:10029C0002943C22214603A803F0B7F9504F4FF0CB
:1002AC000108CDF8048002AD009523462246214674
:1002BC00384600F035FF9DF808104A4803F0A2F8C4
:1002CC00402632462146284603F09FF9CDF804809B
:1002DC000095234622460221384600F021FF9DF866
:1002EC000810414803F08EF832462146284603F0A8
:1002FC008CF9CDF80480009523462246042138461B
:10030C0000F00EFF9DF80810384803F07BF83246D9
:10031C002146284603F079F9CDF804800095234650
:10032C0022460521384600F0FBFE9DF808103048A7
:10033C0003F068F832462146284603F066F9CDF8FA
:10034C0004800095234622460621384600F0E8FE3C
:10035C009DF80810274803F055F8324621462846E8
:10036C0003F053F94FF00509CDF80490009523469E
:10037C0022460A21384600F0D3FE039A02991E4801
:10038C0003F040F832462146284603F03EF9CDF8FA
:10039C0004900095234622461121384600F0C0FEF9
:1003AC009DF80810154803F02DF8324621462846D2
:1003BC0003F02BF9CDF804800095234622461D212D
:1003CC00384600F0ADFE9DF808100D4803F01AF801
:1003DC0032462146284603F018F913B0BDE8F083E5
:1003EC001C010020A4450008B4450008D0450008B5
:1003FC00E4450008F84500080846000834460008A3
:10040C004446000800B583B001904FF0FF33012241
:10041C0001A9034802F0C0FE019803B05DF804FB8B
:10042C006C02002072B6FEE700B591B028220021C4
:10043C0006A803F0EAF800230193029303930493B4
:10044C000593012206924FF4803307934FF4003149
:10045C0008910A9202220D920E934FF4E0130F931F
:10046C0006A801F06BFB80B90F23019302210291C6
:10047C00002303934FF480620492059301A801F0CA
:10048C0095FD20B911B05DF804FBFFF7CBFFFFF72A
:10049C00C9FF00002DE9F04FC1B001F001FBBD4BCD
:1004AC001868002302221946806802F0BDFFFFF78E
:1004BC00BBFF00F08DF900F0E7F900F0A9FE00F0A9
:1004CC0005FA02F043FA02F055FDB34C012210215B
:1004DC00204601F060FF01224FF48061204601F0BC
:1004EC005AFF0121204601F04FFF0546012800D09C
:1004FC000225FFF781FE012000F0BCFD01224FF424
:10050C008071A54801F047FFA44F36AC3E460FCE94
:10051C000FC40FCE0FC496E8030084E80300A04C70
:10052C0036A9204602F01CFB204602F09FFB30ACA3
:10053C0007F128060FCE0FC496E8030084E80300E9
:10054C0000262E962F962C962D9625962696279637
:10055C00289629962A962B9624961C961D961E96BE
:10056C001F9620962196229623961A961B964FF04C
:10057C003F088DF870808B4C01231CAA202120464B
:10058C0000F094FD4FF4FA7001F0AEFA8DF8708023
:10059C0001231CAA2021204600F088FD08238DF899
:1005AC00703001231CAA3121204600F07FFDB7F8E2
:1005BC004030ADF8643019A9204600F008FE3346EF
:1005CC003246E221204600F071FDFFF75DFE344615
:1005DC00B34604E0A94225D0012000F04BFD0120D8
:1005EC0000F048FD704802F00DFF00216C4802F04D
:1005FC00AEFC0028F9D06D4802F004FF2CAB25AA04
:10060C000021674802F0EEFB9DF8B010BDF8943065
:10061C0040F201129342DDD0B3F5817FDCD100248E
:10062C00A346D9E7624802F0EDFE002000F022FD5F
:10063C00604801F051FF002109913C220AA802F008
:10064C00E4FF01F04BFA074601F048FAC61B5A4882
:10065C0002F0D8FE02E001F041FAC61B514800F04E
:10066C00A3FD10F0400F03D141F287339E42F2D923
:10067C00524802F0C7FE4F4801F062FF012000F023
:10068C00F9FC00230793089341F287339E4224D947
:10069C004B4802F0B7FE01264A4802F0B3FEBDF803
:1006AC001D30ADF8B830BDF91F30ADF8BA308DF84B
:1006BC00BC509DF81C308DF8BD308DF8BE608DF8A7
:1006CC00BFB0374802F075FB0028FAD024AB2EAA35
:1006DC0030A9334802F0F8FA7EE73B4802F092FE6C
:1006EC004FF00008C14646460595A2462BE09DF802
:1006FC001C50BDF81D20BDF91F10029101920095F0
:10070C004A463146314802F07DFE09AC40273A4654
:10071C000021204602F079FF8DF87070214F0123E3
:10072C001CAA2721384600F0C1FC01230193009438
:10073C0000231A461721384600F0F2FC9DF82430AD
:10074C0013F0010F17D10923019309AC0094002376
:10075C001A466121134800F0E3FC013607AB94E81C
:10076C00030083E80300BDF821304345BFD009F1F5
:10077C0001099846BBE75446AA46059DBBF1000FFC
:10078C0002D154464FF0010BA24501D0022683E75B
:10079C00002681E764000020000801406045000845
:1007AC00440200201C010020544600086846000842
:1007BC0078460008F8010020884600089C4600088E
:1007CC002047000834470008AC460008C046000823
:1007DC002DE9F04188B00024049405940694079404
:1007EC00264B9A6942F020029A619A6902F0200223
:1007FC000192019A9A6942F004029A619A6902F094
:10080C0004020292029A9A6942F008029A619B6968
:10081C0003F008030393039B194E22464FF4A26185
:10082C00304601F0B8FD174F22464FF48051384640
:10083C0001F0B1FD012504950594069504A93046F7
:10084C0001F090FC4FF4A2630493059506944FF0CD
:10085C000208CDF81C8004A9304601F083FC4FF44B
:10086C008053049305950694CDF81C8004A9384652
:10087C0001F078FC08B0BDE8F08100BF0010024028
:10088C0000080140000C014008B50E480E4B0360F7
:10089C004FF48273436000238360C3600361436140
:1008AC004FF4007282610822C26103624362836268
:1008BC000A23C36200F0B6FD00B908BDFFF7B2FD14
:1008CC00FBE700BFC40000200030014008B50D4814
:1008DC000D4B03604FF48273436000238360C3604D
:1008EC00036143614FF400728261C361036243622E
:1008FC0083620A23C36200F095FD00B908BDFFF7BF
:10090C0091FDFBE71C0100200038004010B588B0B9
:10091C00002304930593069307930368274A934295
:10092C0004D0274A93421FD008B010BD254B9A69BA
:10093C0042F480529A619A6902F480520092009AB1
:10094C009A6942F004029A619B6903F004030193D3
:10095C00019BA0230493022305930323079304A96B
:10096C00194801F0FFFBDFE7164BDA6942F48042CD
:10097C00DA61DA6902F480420292029A9A6942F0D0
:10098C0008029A619B6903F008030393039B4FF4DD
:10099C002043049302230593032307930B4C04A9D0
:1009AC00204601F0DFFB4FF48043049300230593B2
:1009BC00069304A9204601F0D5FBB5E700300140B1
:1009CC00003800400010024000080140000C0140BB
:1009DC00FEE7FEE7FEE7FEE7FEE77047704770476D
:1009EC0008B501F06FF808BD08B5024801F0C5FD67
:1009FC0008BD00BFF801002082B00E4B9A6942F08E
:100A0C0001029A619A6902F001020092009ADA6975
:100A1C0042F08052DA61DB6903F080530193019B51
:100A2C00054A536823F0E06343F00073536002B04F
:100A3C00704700BF001002400000014010B5034693
:100A4C000C4A0D490D48006840B10C48006803443D
:100A5C00521A934206D8094A136010BD0748084C35
:100A6C000460F2E702F020FE0C2303604FF0FF302D
:100A7C00F3E700BF005000200004000074010020C8
:100A8C000004002070B50C461646002506E0AFF3B6
:100A9C000080214601F8010B01350C46B542F6DB0E
:100AAC00304670BD70B50C461646002504E014F8AF
:100ABC00010BFFF7A7FC0135B542F8DB304670BDE2
:100ACC004FF0FF3070474FF400534B6000207047DD
:100ADC00012070470020704710B5064C00221021F1
:100AEC00204601F058FC00224FF48061204601F0B2
:100AFC0052FC10BD0008014010B5064C012210211B
:100B0C00204601F048FC01224FF48061204601F0A0
:100B1C0042FC10BD0008014000B583B08DF8070001
:100B2C004FF47A7301220DF10701034800F0D5FC54
:100B3C0003B05DF804FB00BFC4000020F0B583B027
:100B4C00070E8DF80470C0F307468DF80560C0F3EE
:100B5C0007258DF80650C4B28DF80740FFF7BCFF8F
:100B6C003846FFF7D9FF3046FFF7D6FF2846FFF788
:100B7C00D3FF2046FFF7D0FFFFF7BEFF002003B0E6
:100B8C00F0BD70B505460026052414E094B98EB16D
:100B9C001FE0264620436865FFF7D0FF00281FDBC7
:100BAC0004F1080305EB83035A6804F10E0305EB0B
:100BBC0083035A60013C002C11DB04F10E0305EB9E
:100BCC0083035A6804F1080305EB830358688242D7
:100BDC00DCD0012CDDD0042CDCD10126DAE700209E
:100BEC0070BD000010B4844604680BE0012211E0D3
:100BFC00012200FB02F2B3FBF2F3CCF80C300A4AF0
:100C0C0093420FD9013189B2DCF80430A27C002A5E
:100C1C00ECD0022202FB03F30846E27C002AE7D068
:100C2C000222E6E710BC70470048E80184460B46F8
:100C3C00814228BF034600E0013B1846BCFBF3F29F
:100C4C0003FB12C2002AF7D1B1FBF3F203FB121221
:100C5C00002AF1D1704700002DE9F04F87B0924681
:100C6C00994603680493864BD31869F100028549B1
:100C7C0099424FF001039341C0F0FD800546824B31
:100C8C0053454FF0000373EB090307D24B23039337
:100C9C004FF00063059300232B620BE017230393A3
:100CAC0000230593F7E71AEB0A0A49EB09092B6AAB
:100CBC0001332B62754B53454FF0000373EB090363
:100CCC00F1D2049B1C8A0CB1013CA4B2D5F808806B
:100CDC0024E01CB34FF0000BA6FB0A0106FB091124
:100CEC00012F94BF00230123C0183A465B4641F103
:100CFC000001FFF705FA0090019132465B46FFF7C1
:100D0C00FFF902926A6132465B4600980199FFF73F
:100D1C00F7F98346A861039B984214D221462846D2
:100D2C00FFF760FF84B2EF68B7FBF8F6EE61B4F53D
:100D3C00806F02D308F101080024B6F5805FC8D398
:100D4C00002CEBD1C5E7524BA3FB0723DB0B514A1D
:100D5C0002FB13734FF22442934215D94C4BA3FB65
:100D6C000773C3F3C7330133DFB2029B93B18EB168
:100D7C00984619463046FFF759FFB6FBF0F6EE6180
:100D8C00B8FBF0F0686109E0414BA3FB0737C7F3F0
:100D9C00C737EAE700236B610123EB613E4A02EAA5
:100DAC00CB32696947F6F87303EAC1010A436A62F8
:100DBC00EA6903EAC203059A134343F40043AB62A6
:100DCC00A30343F40053049A927C002A4CD04FF0B6
:100DDC0000721343049AD27C002A47D04FF08072E1
:100DEC00134304994A6922F0434222F47F0222F40D
:100DFC00604222F03F021343EB628B6923F07F4386
:100E0C0023F4780323F4004323F007032B632A6AAB
:100E1C003B0343EA0253CA6902F4FB62134343F4F3
:100E2C00000343F020036B634FF4B003AB6328461D
:100E3C00FFF7A7FE011E1BDBAB69EA69696902FBC0
:100E4C000311E8682D6AA5F12004C5F1200302FA0C
:100E5C0004F422FA03F3AA402343A1FB0001FFF799
:100E6C004FF907B0BDE8F08F0022B2E70022B7E7D8
:100E7C000846C917F5E74FF0FF300146F1E700BF10
:100E8C00A87AF3FDA8263604005ED0B2FF55218364
:100E9C0083DE1B4348E801000080FF7F08B5024653
:100EAC000B460248FFF7D8FE08BD00BF78010020B2
:100EBC006FF00043984201D0024B9860014B986848
:100ECC00704700BF7801002000F1004301330B4351
:100EDC0001D0034B5860024B58680021704700BF8B
:100EEC007801002084B038B504AC84E80F005E4B68
:100EFC005E4A136018605960069A9A600022DA60A4
:100F0C00079A1A829DF820209A749DF82120DA7491
:100F1C009DF82230002B00F090804023524A536100
:100F2C009DF82320002A00F08A80802213434E4A29
:100F3C0053619DF82420002A00F083804FF48072C6
:100F4C00134349494B610A9AA2F59C72D208484C4A
:100F5C00A4FB02429208520202F4F05213434B617A
:100F6C000B9A43EA82634B619DF83020002A6AD0C9
:100F7C004FF0C04213433C4A53619DF83130002B73
:100F8C0063D04FF48023384A93619DF83220002AB5
:100F9C005DD04FF400121343334A93619DF8332014
:100FAC00002A56D04FF4800213432F4A93619DF8C8
:100FBC003420002A4FD04FF4000213432A4A936185
:100FCC000E9943EAC10393610F9943EA014393617C
:100FDC009DF84030002B40D04FF48073224AD361EF
:100FEC009DF84120002A3AD04FF4007213431E4A58
:100FFC00D3619DF84220002A33D04FF48062134312
:10100C00194AD361119943EAC103D361129943EA96
:10101C008113D36100242146FFF756FF134D2B6833
:10102C005868FFF745FF2B68D3E90201FFF736FF3D
:10103C002046BDE8384004B0704700236EE700221C
:10104C0074E700227CE7002294E700239BE7002250
:10105C00A1E70022A8E70022AFE70023BEE70022A9
:10106C00C4E70022CBE700BFD001002078010020AC
:10107C001BA4411A10B50446012805D064B10A4BD3
:10108C00D86A00F0200010BD0748C36A43F0200363
:10109C00C362FFF776FDF1E70348C36A23F0200330
:1010AC00C362FFF76EFDEAE7780100202DE9F041FD
:1010BC0090B007460E4615461C46002100913C2276
:1010CC0001A802F0A2FA202C26D88DF800602DB1D0
:1010DC00224629460DF1010002F012FBDFF83C809C
:1010EC0000224FF48051404601F055F9C823621C90
:1010FC006946384600F0F1F9064601224FF480515A
:10110C00404601F048F922460021284602F07DFABB
:10111C00304610B0BDE8F0810126F9E7000C014023
:10112C002DE9F04190B080460C4616461D46002134
:10113C0000913C2201A802F068FA202D30D88DF8DD
:10114C0000402EB12A4631460DF1010002F0D8FACA
:10115C00144F00224FF48051384601F01CF9C8237B
:10116C006A1C6946404600F0B8F940F00104E4B24C
:10117C00C8239DF85C201699404600F0ACFB044354
:10118C00E4B201224FF48051384601F004F92A46AA
:10119C000021304602F039FA204610B0BDE8F0814B
:1011AC000124F9E7000C014000B585B000228DF850
:1011BC000F20012301930DF10F0300931346072118
:1011CC00FFF7AEFF9DF80F0005B05DF804FB30B5DE
:1011DC0091B004460D46002100913C2201A802F07A
:1011EC0014FA2B78C3F3400103F001036A78520020
:1011FC00D2B2DB0043EA411313438DF800300123D4
:10120C006A4626212046FFF751FF11B030BD000081
:10121C0000B587B0002302930393049305930093C6
:10122C00019316484FF08042026040F2E732426070
:10123C00836041F61F42C2600361836101F094FA3E
:10124C0090B94FF48053029302A90C4801F0C4FAF0
:10125C0068B90023009301936946084801F03CFBF0
:10126C0040B907B05DF804FBFFF7DCF8E9E7FFF7DE
:10127C00D9F8EEE7FFF7D6F8F3E700BFF801002046
:10128C000368B3F1804F00D0704700B583B003F50D
:10129C000433DA6942F00102DA61DB6903F001031D
:1012AC000193019B002211461C2001F08DF81C209B
:1012BC0001F0C2F803B05DF804FB00002DE9F04723
:1012CC0082B00546884617461E4600F007FC0A9B6E
:1012DC001B1A03EB060900F001FC82462A4B1B6823
:1012EC00C3F3CB3309FB03F301932B689C6838EAF7
:1012FC0004040CBF01230023BB4240D0B6F1FF3FD6
:10130C00F3D000F0EBFBA0EB0A0048450AD2B9F190
:10131C00000F07D0019A02B14A46019B013B019391
:10132C009146E2E72A68536823F0E00353606B6848
:10133C00B3F5827F0BD0AB6AB3F5005F14D00123F9
:10134C0085F85130002385F85030032018E0AB6845
:10135C00B3F5004F02D0B3F5806FECD12A68136857
:10136C0023F040031360E6E72A68136823F4005364
:10137C0013602A68136843F400531360DFE70020FE
:10138C0002B0BDE8F08700BF0800002010B582B0A5
:10139C0004460B46009200228021FFF78FFF08B90C
:1013AC0002B010BD636D43F0200363650320F7E7C3
:1013BC0010B582B004460B464168B1F5827F10D05F
:1013CC006168B1F5827F03D1A168B1F5806F15D04A
:1013DC000092002280212046FFF770FFE0B902B096
:1013EC0010BD8168B1F5004F02D0B1F5806FE7D127
:1013FC002068016821F040010160E1E700920022C1
:10140C0001212046FFF75AFF0028E8D0636D43F016
:10141C00200363650320E2E7636D43F020036365FB
:10142C000320DCE7002856D010B50446436A33B9D4
:10143C004368B3F5827F05D00023C36102E000232B
:10144C00036143610023A36294F85130002B3CD01C
:10145C00022384F851302268136823F04003136090
:10146C00636803F48273A26802F404421343E268D3
:10147C0002F400621343226902F002021343626910
:10148C0002F001021343A26902F400721343E269F1
:10149C0002F038021343226A02F080021343A26A5C
:1014AC0002F40052216813430B60638B226803F033
:1014BC00040353602268D36923F40063D3610020D2
:1014CC006065012384F8513010BD84F850302046FB
:1014DC00FFF71CFABCE7012070472DE9F04383B0FD
:1014EC001D4690F85030012B00F0D1800446884600
:1014FC009146012380F8503000F0F0FA074694F83A
:10150C005160F6B2012E40F0BA80B8F1000F00F035
:10151C00B780B9F1000F00F0B380032384F8513089
:10152C0000236365C4F83080A4F83490A4F8369096
:10153C00A363A387E38763642364A368B3F5004FB5
:10154C001ED023681A6812F0400F03D11A6842F0BB
:10155C0040021A60E368B3F5006F1CD0636813B1E6
:10156C00B9F1010F55D1226B236812781A73236BD2
:10157C0001332363E38E9BB2013B9BB2E38648E0CD
:10158C002268136823F0400313602268136843F445
:10159C0080431360D5E7636813B1B9F1010F15D11E
:1015AC00226B23681288DA60236B02332363E38E89
:1015BC009BB2013B9BB2E38608E000F08FFAC01BA4
:1015CC00A84202D3B5F1FF3F15D1A5B1E38E9BB272
:1015DC00002B3CD023689A6812F0020FEDD0226BDE
:1015EC001288DA60236B02332363E38E9BB2013BD8
:1015FC009BB2E386EAE7012384F8513003263FE0EF
:10160C0000F06CFAC01BA84202D3B5F1FF3F19D110
:10161C00C5B1E38E9BB2D3B123689A6812F0020F66
:10162C00EED0226B12781A73236B01332363B4F858
:10163C0036C01FFA8CFC0CF1FF3C1FFA8CFCA4F892
:10164C0036C0E6E7012384F85130032618E03A4609
:10165C0029462046FFF79AFE08B120236365A3684C
:10166C0033B901932368DA6801929B680193019B5B
:10167C00636D2BB9012384F85130002600E002265B
:10168C00002384F85030304603B0BDE8F0830226C6
:10169C00F9E72DE9F04383B01F460A9D90F85030CE
:1016AC00012B00F01681044688469146012380F8F0
:1016BC00503000F013FA064694F85130DBB26268F1
:1016CC00012B0AD0B2F5827F40F0F080A268002A8C
:1016DC0040F0F380042B40F0F280B8F1000F00F0E2
:1016EC00F080B9F1000F00F0EE80002F00F0ED80DB
:1016FC0094F85130DBB2042B02D0052384F851301E
:10170C0000236365C4F83890E787A787C4F8308056
:10171C00E786A7862364636423681A6812F0400F77
:10172C0003D11A6842F040021A60E368B3F5006F07
:10173C0011D063680BB1012F0BD1226B2368127887
:10174C001A73236B01332363E38E9BB2013B9BB271
:10175C00E38601276EE063680BB1012F0BD1226B7E
:10176C0023681288DA60236B02332363E38E9BB207
:10177C00013B9BB2E38601271BE023689A6812F0B9
:10178C00010F0ED0E28F92B25AB1DA68A36B1A80B5
:10179C00A36B0233A363E38F9BB2013B9BB2E38742
:1017AC00012700F09BF9801BA84202D3B5F1FF3F43
:1017BC001ED1E38E9BB21BB9E38F9BB2002B5CD086
:1017CC0023689A6812F0020FD7D0E28E92B2002AE8
:1017DC00D3D0002FD1D0226B1288DA60236B023366
:1017EC002363E38E9BB2013B9BB2E3860027C4E7E5
:1017FC00012384F85130032059E023689A6812F0D1
:10180C00010F0ED0E28F92B25AB1DA68A36B1A7044
:10181C00A36B0133A363E38F9BB2013B9BB2E387C2
:10182C00012700F05BF9831BAB4202D3B5F1FF3FFC
:10183C001ED1EDB1E38E9BB213B9E38F9BB2E3B132
:10184C0023689A6812F0020FD7D0E28E92B2002A67
:10185C00D3D0002FD1D0226B12781A73236B0133A3
:10186C002363E38E9BB2013B9BB2E3860027C4E764
:10187C00012384F85130032019E0324629462046D2
:10188C00FFF784FD70B9A36833B901932368DA6854
:10189C0001929B680193019B636DC3B9012384F88A
:1018AC00513004E020236365012000E00220002376
:1018BC0084F8503003B0BDE8F0830220F7E7022033
:1018CC00F5E70120F3E70120F1E70120EFE7012024
:1018DC00EDE70220EEE72DE9F04383B0044690F8E3
:1018EC005160F6B2012E40F0AB80884691461D4601
:1018FC004368B3F5827F32D094F85030012B00F05E
:10190C00A780012384F8503000F0E8F80746B8F1BE
:10191C00000F00F09680B9F1000F00F092800423C4
:10192C0084F8513000236365C4F83880A4F83C90E7
:10193C00A4F83E902363A386E38623646364A368C0
:10194C00B3F5004F18D023681A6812F0400F03D17A
:10195C001A6842F040021A60E3680BB343E08368F4
:10196C00002BC9D1042380F85130009513460A4648
:10197C00FFF78FFE064667E02268136823F04003EA
:10198C0013602268136823F480431360DBE700F0D4
:10199C00A5F8C01BA84202D3B5F1FF3F15D1A5B1E4
:1019AC00E38F9BB2002B3CD023689A6812F0010F96
:1019BC00EDD0A26B1B7B1370A36B0133A363E38F7E
:1019CC009BB2013B9BB2E387EAE7012384F85130D9
:1019DC00032636E000F082F8C01BA84202D3B5F112
:1019EC00FF3F19D1C5B1E38F9BB2D3B123689A687D
:1019FC0012F0010FEED0DA68A36B1A80A36B0233DE
:101A0C00A363B4F83EC01FFA8CFC0CF1FF3C1FFA28
:101A1C008CFCA4F83EC0E6E7012384F85130032681
:101A2C000FE03A4629462046FFF7C2FC08B12023B6
:101A3C006365636D2BB9012384F85130002600E0F7
:101A4C000226002384F85030304603B0BDE8F08302
:101A5C000226F9E710B504460E4B1A784FF47A7348
:101A6C00B3FBF2F30C4A1068B0FBF3F000F0F2FC9D
:101A7C0068B90F2C01D901200AE0002221464FF051
:101A8C00FF3000F0A1FC054B1C60002000E00120A1
:101A9C0010BD00BF00000020080000200400002042
:101AAC0008B5074A136843F010031360032000F0D5
:101ABC0079FC0F20FFF7CEFFFEF79EFF002008BD3C
:101ACC0000200240034A1168034B1B780B4413603F
:101ADC00704700BF4002002000000020014B186836
:101AEC00704700BF4002002038B50446FFF7F6FFF0
:101AFC000546B4F1FF3F02D0044B1B781C44FFF7A2
:101B0C00EDFF401BA042FAD338BD00BF00000020FF
:101B1C0082B0084B1B68084AA2FB03235B0A00FB3C
:101B2C0003F3019300BF019B5A1E0192002BF9D1C4
:101B3C0002B0704708000020D34D6210002800F05E
:101B4C00F18170B582B00446036813F0010F2CD0FC
:101B5C00994B5B6803F00C03042B1DD0964B5B6810
:101B6C0003F00C03082B12D06368B3F5803F41D00F
:101B7C00002B55D103F1804303F504331A6822F48A
:101B8C0080321A601A6822F480221A6037E08A4B7D
:101B9C005B6813F4803FE7D0874B1B6813F4003F5E
:101BAC0003D06368002B00F0BF81236813F0020F91
:101BBC0075D0814B5B6813F00C0F5FD07E4B5B686C
:101BCC0003F00C03082B54D02369002B00F08A80FF
:101BDC007A4B01221A60FFF781FF0546764B1B6892
:101BEC0013F0020F75D1FFF779FF401B0228F5D9CE
:101BFC0003209EE1704A136843F4803313606368DA
:101C0C0043B3FFF76BFF05466B4B1B6813F4003FA8
:101C1C00CBD1FFF763FF401B6428F5D9032088E183
:101C2C00B3F5A02F09D0644B1A6822F480321A60E5
:101C3C001A6822F480221A60E1E703F18043A3F5CD
:101C4C003C331A6842F480221A601A6842F48032DB
:101C5C001A60D4E7FFF742FF0546574B1B6813F495
:101C6C00003FA2D0FFF73AFF401B6428F5D90320B0
:101C7C005FE1514B5B6813F4803FA5D14E4B1B6861
:101C8C0013F0020F03D02369012B40F04F814A4A15
:101C9C00136823F0F803616943EAC10313602368F6
:101CAC0013F0080F33D0A369002B5CD0434B0122F7
:101CBC00C3F88024FFF712FF05463F4B5B6A13F015
:101CCC00020F21D1FFF70AFF401B0228F5D9032090
:101CDC002FE1394A136823F0F803616943EAC10321
:101CEC001360DCE7354B00221A60FFF7F7FE054660
:101CFC00314B1B6813F0020FD1D0FFF7EFFE401BE6
:101D0C000228F5D9032014E10120FFF701FF236815
:101D1C0013F0040F00F09680274BDB6913F0805F03
:101D2C0034D1254BDA6942F08052DA61DB6903F079
:101D3C0080530193019B0125214B1B6813F4807F79
:101D4C0026D0E368012B3DD0002B53D103F1804307
:101D5C0003F504331A6A22F001021A621A6A22F09D
:101D6C0004021A6233E0154B0022C3F88024FFF7FB
:101D7C00B5FE0546104B5B6A13F0020FC7D0FFF798
:101D8C00ADFE401B0228F5D90320D2E00025D3E795
:101D9C000B4A136843F480731360FFF79FFE0646EB
:101DAC00074B1B6813F4807FCBD1FFF797FE801B8A
:101DBC006428F5D90320BCE0001002400000424228
:101DCC00007000405F4A136A43F001031362E3683A
:101DDC0033B3FFF783FE06465A4B1B6A13F0020F10
:101DEC002FD1FFF77BFE801B41F288339842F3D949
:101DFC0003209EE0052B09D0524B1A6A22F00102F7
:101E0C001A621A6A22F004021A62E0E74D4B1A6A4F
:101E1C0042F004021A621A6A42F001021A62D6E710
:101E2C00FFF75CFE0646474B1B6A13F0020F08D007
:101E3C00FFF754FE801B41F288339842F3D90320FC
:101E4C0077E0E5B9E369002B72D03E4A526802F0A4
:101E5C000C02082A56D0022B17D03B4B00221A66D4
:101E6C00FFF73CFE0446374B1B6813F0007F47D04E
:101E7C00FFF734FE001B0228F5D9032059E0314A44
:101E8C00D36923F08053D361DCE72F4B00221A6611
:101E9C00FFF724FE05462B4B1B6813F0007F06D082
:101EAC00FFF71CFE401B0228F5D9032041E0236AF2
:101EBC00B3F5803F1AD023494B6823F47413226A7C
:101ECC00606A024313434B601F4B01221A66FFF7F3
:101EDC0005FE04461B4B1B6813F0007F0ED1FFF769
:101EEC00FDFD001B0228F5D9032022E0154A53689A
:101EFC0023F40033A1680B435360DCE7002018E0A7
:101F0C00002016E0012B16D00E4B5B6803F48031D9
:101F1C00226A914211D103F47013626A93420ED17A
:101F2C00002006E001207047012002E0012000E0C3
:101F3C00002002B070BD0120FBE70120F9E7012071
:101F4C00F7E700BF0010024000004242114B5A68F4
:101F5C0002F00C03042B18D0082B18D1C2F38343C6
:101F6C000D49C85C12F4803F0BD00A4B5B68C3F37D
:101F7C0040430A4AD35C0A4A02FB00F0B0FBF3F080
:101F8C007047084B03FB00F0704705487047064844
:101F9C00704700BF00100240704A0008804A0008D9
:101FAC000024F40000093D0000127A00002800F023
:101FBC00A08070B50D460446524B1B6803F0070316
:101FCC008B420BD24F4A136823F007030B43136069
:101FDC00136803F007038B4240F08D80236813F0E5
:101FEC00020F17D013F0040F04D0474A536843F480
:101FFC00E0635360236813F0080F04D0424A53681F
:10200C0043F460535360404A536823F0F003A168D3
:10201C000B435360236813F0010F31D06368012B1D
:10202C0020D0022B25D0384A126812F0020F64D04F
:10203C0035494A6822F0030213434B60FFF74EFD0B
:10204C000646314B5B6803F00C036268B3EB820FFE
:10205C0016D0FFF743FD801B41F288339842F0D92C
:10206C00032045E0284A126812F4003FE0D1012019
:10207C003EE0254A126812F0007FD9D1012037E0EA
:10208C00204B1B6803F00703AB420AD91D4A1368A7
:10209C0023F007032B431360136803F00703AB42D1
:1020AC002DD1236813F0040F06D0174A536823F47C
:1020BC00E063E1680B435360236813F0080F07D00B
:1020CC00114A536823F46053216943EAC1035360F6
:1020DC00FFF73CFF0C4B5B68C3F303130B4AD35C59
:1020EC00D8400B4B18600B4B1868FFF7B3FC002063
:1020FC0070BD012070470120FAE70120F8E70120AC
:10210C00F6E700BF0020024000100240844A00089D
:10211C000800002004000020014B1868704700BF25
:10212C000800002008B5FFF7F7FF044B5B68C3F30A
:10213C000223034AD35CD84008BD00BF0010024004
:10214C00944A000808B5FFF7E7FF044B5B68C3F33C
:10215C00C223034AD35CD84008BD00BF0010024024
:10216C00944A000870B582B00024A446A6E0804DC5
:10217C00AB4210D007D97F4DAB420CD005F5803562
:10218C00AB4208D013E0A5F58015AB4203D005F5A2
:10219C007025AB4207D18B68002B58D0012B51D046
:1021AC004261082403E0A5F58015AB42F3D0BEF1E3
:1021BC00FF0F4ED80646BEF1FF0F4CD84FEA8C02EB
:1021CC0033680F25954023EA050304FA02F2134302
:1021DC0033604B6813F0805F6ED0674B9A6942F0A6
:1021EC0001029A619B6903F001030193019B4FEA81
:1021FC009C02951C614B53F825600CF00305AD0057
:10220C000F23AB4026EA03065D4B984229D003F519
:10221C008063984200F08E8003F58063984200F052
:10222C008B8003F58063984219D004231AE0CC68A4
:10223C00BDE7CC680434BAE7CC680834B7E7CC689F
:10224C000C34B4E702610824B1E70024AFE704249E
:10225C00ADE7061DAFE7ACF108029200B0E703232F
:10226C0000E00023AB4033430232444D45F82230AA
:10227C004B6813F4801F61D0424A936843EA0E0303
:10228C0093604B6813F4001F5ED03E4AD36843EA58
:10229C000E03D3604B6813F4003F5BD0394A53688C
:1022AC0043EA0E0353604B6813F4803F58D0354A11
:1022BC00136843EA0E0313600CF1010C0B6833FA3C
:1022CC000CF253D0012202FA0CF203EA020E32EAAB
:1022DC000303F1D14B68122B3FF649AF122B3FF69B
:1022EC0066AF01A555F823F0A32100083B22000896
:1022FC004522000857220008BB210008BB2100081A
:10230C00BB210008BB210008BB210008BB21000831
:10231C00BB210008BB210008BB210008BB21000821
:10232C00BB210008BB210008BB2100083F2200088C
:10233C004B220008012395E7022393E7114A936887
:10234C0023EA0E0393609CE70E4AD36823EA0E033C
:10235C00D3609FE70B4A536823EA0E035360A2E74E
:10236C00084A136823EA0E031360A5E702B070BD98
:10237C00000022100000311000100240000001404B
:10238C0000080140000401408368194201D001207B
:10239C007047002070470AB1016170470904016160
:1023AC0070470000074AD36823F4E0631B041B0C3E
:1023BC00000200F4E060034343F0BF6343F40033D6
:1023CC00D360704700ED00E000B5194BDB68C3F338
:1023DC000223C3F1070CBCF1040F28BF4FF0040C0F
:1023EC0003F1040EBEF1060F18D9033B4FF0FF3E6C
:1023FC000EFA0CFC21EA0C0199400EFA03FE22EABB
:10240C000E020A4300280BDB1201D2B200F160402D
:10241C0000F5614080F800235DF804FB0023E5E73C
:10242C0000F00F001201D2B2024B1A54F4E700BFB5
:10243C0000ED00E014ED00E0002807DB00F01F02C7
:10244C00400901239340024A42F82030704700BFF4
:10245C0000E100E00138B0F1807F0BD24FF0E023B7
:10246C005861054AF02182F8231000209861072258
:10247C001A6170470120704700ED00E010B4036A48
:10248C00046A24F001040462846924F0F00C4CEA20
:10249C00021223F00A030B438261036210BC7047E3
:1024AC0010B4036A046A24F010040462846924F4EE
:1024BC00704C4CEA023223F0A00343EA0113826110
:1024CC00036210BC7047836823F070030B4343F026
:1024DC00070383607047000090F83D30DBB2012B9E
:1024EC0027D1022380F83D300268D36843F0010302
:1024FC00D3600368114A934210D0B3F1804F0DD0D2
:10250C00A2F59432934209D002F58062934205D031
:10251C001A6842F001021A60002070479A6802F0B3
:10252C000702062A07D01A6842F001021A6000203E
:10253C007047012070470020704700BF002C0140FD
:10254C000268D36823F00103D3600368196A41F26F
:10255C001112114208D1196A40F24442114203D1BE
:10256C001A6822F001021A60012380F83D30002025
:10257C007047704770477047704710B50446036842
:10258C001A6912F0020F11D0DA6812F0020F0DD096
:10259C006FF002021A610123037703689B6913F041
:1025AC00030F70D0FFF7E6FF0023237723681A6927
:1025BC0012F0040F12D0DA6812F0040F0ED06FF084
:1025CC0004021A610223237723689B6913F4407F6A
:1025DC005FD02046FFF7CEFF0023237723681A69CC
:1025EC0012F0080F12D0DA6812F0080F0ED06FF04C
:1025FC0008021A61042323772368DB6913F0030FA5
:10260C004ED02046FFF7B6FF0023237723681A69C4
:10261C0012F0100F12D0DA6812F0100F0ED06FF00B
:10262C0010021A61082323772368DB6913F4407FB7
:10263C003DD02046FFF79EFF0023237723681A69BD
:10264C0012F0010F03D0DA6812F0010F36D12368B3
:10265C001A6912F0800F03D0DA6812F0800F34D1AF
:10266C0023681A6912F0400F03D0DA6812F0400F99
:10267C0032D123681A6912F0200F03D0DA6812F0F5
:10268C00200F30D110BDFFF774FF2046FFF773FF0A
:10269C008AE72046FFF76DFF2046FFF76CFF9BE7AC
:1026AC002046FFF766FF2046FFF765FFACE72046A4
:1026BC00FFF75FFF2046FFF75EFFBDE76FF00102FB
:1026CC001A612046FDF77CFDC1E76FF080021A61AC
:1026DC00204600F038F9C3E76FF040021A6120463B
:1026EC00FFF74AFFC5E76FF020021A61204600F0A1
:1026FC0029F9C7E703681B4A90420AD0B0F1804F12
:10270C0007D0A2F59432904203D002F58062904239
:10271C0003D123F070034A681343124A90420AD043
:10272C00B0F1804F07D0A2F59432904203D002F55D
:10273C008062904203D123F44073CA68134323F0A0
:10274C0080034A69134303608B68C3620B6883621E
:10275C00044B984202D00123436170470B69036319
:10276C00F9E700BF002C014040B310B5044690F8C7
:10277C003D30F3B1022384F83D30214651F8040B6F
:10278C00FFF7B8FF012384F8463084F83E3084F814
:10279C003F3084F8403084F8413084F8423084F87B
:1027AC00433084F8443084F8453084F83D300020C0
:1027BC0010BD80F83C30FEF763FDDBE7012070476D
:1027CC0010B4846824F47F4C42EA03220A4342EAA0
:1027DC000C02826010BC704790F83C30012B78D012
:1027EC0010B50446012380F83C30022380F83D30BC
:1027FC000268936823F47F4323F0770393600B689C
:10280C00602B4CD029D8402B54D00CD9502B22D132
:10281C00CA6849680068FFF731FE50212068FFF74D
:10282C0052FE002005E0202B0DD009D9302B0AD008
:10283C000120012384F83D30002384F83C3010BD86
:10284C000BB1102B05D119462068FFF73CFE002078
:10285C00EFE70120EDE70120EBE7B3F5805F34D023
:10286C00B3F5005F0CD1CB684A6889680068FFF744
:10287C00A7FF2268936843F4804393600020D8E755
:10288C00702B24D1CB684A6889680068FFF798FFE1
:10289C002268936843F0770393600020C9E7CA6805
:1028AC0049680068FFF7FCFD60212068FFF70BFE0C
:1028BC000020BEE7CA6849680068FFF7DFFD4021C9
:1028CC002068FFF700FE0020B3E70020B1E70120ED
:1028DC00AFE702207047000090F83C20012A2CD072
:1028EC0010B40346012280F83C20022280F83D20DF
:1028FC0002685068946820F0700C086840EA0C007C
:10290C0050601A680E4882420AD0B2F1804F07D04C
:10291C00A0F59430824203D000F58060824204D14D
:10292C0024F08004496821439160012283F83D2002
:10293C00002083F83C0010BC70470220704700BF99
:10294C00002C0140704770477047000008B50D48D7
:10295C000D4B03601223436000238360C3604FF46C
:10296C00402202614FF480124261037643768376F3
:10297C00C3760377437700F04DF800B908BDFDF737
:10298C0051FDFBE7440200200064004010B586B006
:10299C000023029303930493059302681A4B9A4203
:1029AC0001D006B010BD03F5D633DA6942F00072DF
:1029BC00DA61DA6902F000720092009A9A6942F0C8
:1029CC0008029A619B6903F008030193019B4FF481
:1029DC00807302930D4C02A92046FFF7C3FB4FF402
:1029EC0000730293022303930323059302A9204649
:1029FC00FFF7B8FB064A536823F4C04343F0E06387
:102A0C0043F480435360CCE700640040000C014069
:102A1C0000000140002800F0A18038B5044690F871
:102A2C002030D3B12268136843F001031360FFF721
:102A3C0055F8054623685A6812F0010F10D1FFF7BC
:102A4C004DF8401B0A28F5D9636A43F400336362DE
:102A5C00052384F82030012038BDFFF797FFE1E70C
:102A6C001A6822F002021A60FFF738F8054623684C
:102A7C005A6812F0020F0DD0FFF730F8401B0A28ED
:102A8C00F5D9636A43F400336362052384F820307C
:102A9C000120E1E7227E012A3DD01A6822F0800253
:102AAC001A60637E012B3BD02268136823F040032D
:102ABC001360A37E012B39D02268136823F0200306
:102ACC001360E37E012B37D02268136843F01003A8
:102ADC001360237F012B35D02268136823F0080381
:102AEC001360637F012B33D02268136823F0040337
:102AFC001360A368E26813432269134362691343AA
:102B0C006268013A21681343CB61002060620123A3
:102B1C0084F82030A0E71A6842F080021A60C0E7FF
:102B2C002268136843F040031360C2E722681368FD
:102B3C0043F020031360C4E72268136823F01003EA
:102B4C001360C6E72268136843F008031360C8E7F4
:102B5C002268136843F004031360CAE7012070472E
:102B6C00026890F82030013BDBB2012B05D9436A97
:102B7C0043F4802343620120704710B5D2F8003231
:102B8C0043F00103C2F800324B6903F01F0301202C
:102B9C0000FA03F3D2F81C026FEA030C20EA0300DC
:102BAC00C2F81C02C869C0B9D2F80C020CEA0000C9
:102BBC00C2F80C028C884869D1F80CE044EA0E4447
:102BCC00483042F830400C884869D1F808E044EAB3
:102BDC000E44483002EBC0004460C86901281AD08A
:102BEC00886988BBD2F804020CEA0000C2F804021F
:102BFC00086978BBD2F814020CEA0000C2F814027F
:102C0C00096A01292CD0D2F8003223F00103C2F852
:102C1C000032002010BDD2F80C021843C2F80C028E
:102C2C008C884869D1F800E044EA0E44483042F8F8
:102C3C0030408C894869D1F808E044EA0E444830A9
:102C4C0002EBC0004460CBE7D2F804021843C2F890
:102C5C000402CDE7D2F814021843C2F81402CFE7ED
:102C6C00D2F81C120B43C2F81C32CCE770B50446E8
:102C7C0090F82050EDB2012D06D0436A43F40023A6
:102C8C0043620125284670BD022380F8203002687B
:102C9C00136823F001031360FEF720FF0646236838
:102CAC005B6813F0010F0CD0FEF718FF831B0A2B87
:102CBC00F5D9636A43F400336362052384F820304A
:102CCC00E0E700256562DDE730B590F820C00468C8
:102CDC00A4680CF1FF3C5FFA8CFCBCF1010F62D8CC
:102CEC0014F0E05F59D0C4F3016C012404FA0CF425
:102CFC001C608B68002B3DD10D68CB68046843EADF
:102D0C0045550CF118031B01E55003680C690CF1D7
:102D1C00180E03EB0E135C600B7D012B35D0D179B3
:102D2C0093791B0443EA0163517943EA0123147933
:102D3C000168234301EB0C11C1F88C31D1789378E5
:102D4C001B0443EA0163517843EA012311780268BA
:102D5C000B4302EB0C12C2F8883102680CF1180C10
:102D6C004FEA0C1C52F80C3043F0010342F80C30C3
:102D7C0000201DE04C6843EAC403CC6823430CF1EB
:102D8C001804240105682B51BFE7036803EB0E13ED
:102D9C00596841F480715960C1E7436A43F40013E8
:102DAC004362012004E0436A43F480234362012020
:102DBC0030BD90F82030013BDBB2012B01D9002053
:102DCC0070470368986810F0806000D001209A6802
:102DDC0012F0006F00D001309B6813F0805FEFD0D1
:102DEC000130704790F820C00CF1FF3C5FFA8CFC6E
:102DFC00BCF1010F00F2A58030B451B90468E4684D
:102E0C0014F0030F10D1436A43F400134362012002
:102E1C007EE00468246914F0030F05D1436A43F47F
:102E2C0000134362012073E0056801F11B042401C7
:102E3C002C5904F004049460002C6BD1056801F14A
:102E4C001B0424012C59640D1460046801F11B0C43
:102E5C004FEA0C1C54F80C4004F00204D4600468D3
:102E6C00A444DCF8045015F0080F5BD0082414615E
:102E7C00046801F11B0C04EB0C146468C4F3072404
:102E8C009461046804EB0C146468240C54610268AB
:102E9C0002EB0112D2F8B8211A70026802EB01128F
:102EAC00D2F8B821C2F307225A70026802EB011261
:102EBC00D2F8B821C2F307429A70026802EB0112F1
:102ECC00D2F8B821120EDA70026802EB0112D2F8B5
:102EDC00BC211A71026802EB0112D2F8BC21C2F3B8
:102EEC0007225A71026802EB0112D2F8BC21C2F31C
:102EFC0007429A71026802EB0112D2F8BC21120E41
:102F0C00DA71C1B90268D36843F02003D3600020A2
:102F1C0030BC7047056801F11B0424012C59E408EE
:102F2C00546092E701F11B0504EB0514646804F08E
:102F3C000F0414619CE70268136943F020031361CA
:102F4C00E5E7436A43F4802343620120704790F81D
:102F5C002030013BDBB2012B01D90020704721B995
:102F6C000368D86800F0030070470368186900F024
:102F7C000300704708B50A480A4B03604FF4E1336D
:102F8C00436000238360C36003610C224261836150
:102F9C00C36100F0D1F800B908BDFDF743FAFBE7B7
:102FAC006C0200200048004010B586B0002302934C
:102FBC000393049305930268174B9A4201D006B011
:102FCC0010BD03F5E433DA6942F48022DA61DA6980
:102FDC0002F480220092009A9A6942F008029A61E7
:102FEC009B6903F008030193019B4FF480630293E8
:102FFC000223039303230593084C02A92046FFF7F1
:10300C00B1F84FF40063029300230393049302A9D5
:10301C002046FFF7A7F8D2E700480040000C01401B
:10302C0010B504460268136923F44053C1680B437E
:10303C00136183680269134342691A430168CB68C0
:10304C0023F4B05323F00C031343CB600268536991
:10305C0023F4407381690B4353610268134B9A420A
:10306C0020D0FFF75FF8024602EB820202EB8202ED
:10307C0063689B00B2FBF3F20D48A0FB02314909D7
:10308C00642303FB11231B013233A0FB03035B09F5
:10309C0003F0F00202EB011203F00F03216813445A
:1030AC008B6010BDFFF74EF80246DDE7003801409B
:1030BC001F85EB512DE9F84305460F4616469946F8
:1030CC00DDF820802B681C6837EA04040CBF01244F
:1030DC000024B4422DD1B8F1FF3FF3D0B8F1000F6A
:1030EC0005D0FEF7FBFCA0EB09004045EAD92A68A5
:1030FC0002F10C0353E8003F23F4D0730C3242E886
:10310C0000310029F3D12A6802F1140353E8003F7F
:10311C0023F00103143242E800310029F3D12023BB
:10312C0085F8413085F84230002385F84030032083
:10313C0000E00020BDE8F88360B310B5044690F8B9
:10314C00413013B3242384F841302268D36823F42C
:10315C000053D3602046FFF763FF2268136923F402
:10316C00904313612268536923F02A035361226848
:10317C00D36843F40053D36000206064202384F8A8
:10318C00413084F84230606310BD80F84030FFF766
:10319C000BFFD7E7012070472DE9F04182B01E46A6
:1031AC0090F84130DBB2202B4BD104460D469046B3
:1031BC0000294AD00AB9012044E0002343642123AA
:1031CC0080F84130FEF78AFC0746A4F82480A4F866
:1031DC002680A368B3F5805F02D04FF000080FE0A3
:1031EC002369FBB14FF000080AE038F8023B226873
:1031FC00C3F308035360E28C92B2013A92B2E284B8
:10320C00E38C9BB28BB100963B460022802120467A
:10321C00FFF750FFD8B9002DE7D015F8012B236824
:10322C005A60E8E7A8460025EAE700963B460022EC
:10323C0040212046FFF73EFF58B9202384F8413047
:10324C0000E0022002B0BDE8F0810120FAE7032083
:10325C00F8E70320F6E70000FFF776FB0B480C4974
:10326C000C4A002302E0D458C4500433C4188C42D6
:10327C00F9D3094A094C002301E013600432A2423D
:10328C00FBD300F017FAFDF705F97047000000209A
:10329C0068000020E04A00086800002000040020BC
:1032AC00FEE70000002310B50446C0E90033C0E976
:1032BC000433836081814366C2818361194608228D
:1032CC005C3000F0A2F9054B24626362044BA362EC
:1032DC00044BE362044B236310BD00BF913500081F
:1032EC00B3350008EB3500080F360008024A0349D5
:1032FC00034800F069B800BF0C000020BD3F000877
:10330C001800002041680C4B10B59942044601D0BE
:10331C0000F04EFEA168094B994202D0204600F005
:10332C0047FEE168064B994204D02046BDE81040A8
:10333C0000F03EBE10BD00BFB40200201C030020F4
:10334C008403002010B50B4B0B4C0C4A20461A6022
:10335C0004210022FFF7A6FF04F1680001220921D5
:10336C00FFF7A0FF04F1D0000222BDE810401221AB
:10337C00FFF798BFEC030020B4020020F9320008DC
:10338C00014800F0BBB900BFF5030020014800F074
:10339C00B6B900BFF503002010B50446FFF7F0FFE7
:1033AC00236A1BB1BDE81040FFF7F0BF044B23624A
:1033BC00044B1B68002BF5D1FFF7C4FFF2E700BFED
:1033CC0011330008EC0300202DE9F843074688462A
:1033DC0014460026D4E90195B9F1010905D52468F4
:1033EC00002CF7D13046BDE8F883AB89012B07D907
:1033FC00B5F90E30013303D029463846C047064391
:10340C006835E9E70FB407B5064904AB086853F80B
:10341C00042B8168019300F09BFA03B05DF804EB78
:10342C0004B07047640000202DE9F7431D46544B4F
:10343C0004461F680E46904627B13B6A13B93846BE
:10344C00FFF7AAFFB8F1020F06D0B8F1010F00F296
:10345C009480002DC0F29180636EDA0705D4A389A5
:10346C009B0502D4A06D00F049F92146384600F0C6
:10347C009FFD616B41B104F14403994202D038467F
:10348C0000F04CF9002363630023A3616360A389FC
:10349C00180603D53846216900F040F9A389B8F124
:1034AC00020F23F44A6323F00303A3815FD001AB23
:1034BC006A462146384600F0A3FDA3891843A08133
:1034CC002DBB009D284600F071F90646002850D10E
:1034DC00DDF80090A9453ED14FF0FF350022A260E7
:1034EC0004F14702226022610122B4F90C306261BE
:1034FC00626E43F00203D107A38104D49B0502D46E
:10350C00A06D00F0FCF8284603B0BDE8F083002E57
:10351C00D8D03B6A13B93846FFF73EFFB8F1010F1C
:10352C0008BFA389C4E9046504BF43F00103A38168
:10353C00A389266013F008021DD0DA0741BF0022D0
:10354C006D42A260A56158BFA560656E15F00105BE
:10355C00D4D00025D7E7484600F028F906460028C5
:10356C00BAD0A3894D4643F08003A381D1E700254F
:10357C00B4E7A946F5E7A260E7E74FF0FF35C2E7ED
:10358C006400002010B50C46B1F90E1000F068F87C
:10359C000028ABBF636DA3891B1823F48053ACBF09
:1035AC006365A38110BD2DE9F0411F468B8905464B
:1035BC00DB050C46164605D502230022B1F90E1088
:1035CC0000F03CF8A389324623F48053A3812846AB
:1035DC003B46B4F90E10BDE8F04100F053B810B5FD
:1035EC000C46B1F90E1000F029F8431CA38915BF45
:1035FC00606523F4805343F48053A38118BFA381E7
:10360C0010BDB1F90E1000F009B803460244934204
:10361C0000D1704703F8011BF9E7000038B500230F
:10362C00054D044608462B60FDF74AFA431C02D1AF
:10363C002B6803B1236038BDF003002038B5044675
:10364C00084611460022054D2A601A46FDF742FA3B
:10365C00431C02D12B6803B1236038BDF00300205A
:10366C0038B50446084611460022054D2A601A4614
:10367C00FDF708FA431C02D12B6803B1236038BD57
:10368C00F003002038B50446084611460022054DCB
:10369C002A601A46FDF706FA431C02D12B6803B1C7
:1036AC00236038BDF0030020014B1868704700BF41
:1036BC006400002070B500260C4D0D4C641BA4104A
:1036CC00A64209D100F038FF00260A4D0A4C641BB3
:1036DC00A410A64205D170BD55F8043B984701369D
:1036EC00EEE755F8043B98470136F2E7D84A000854
:1036FC00D84A0008D84A0008DC4A000870477047CE
:10370C000A44914200F1FF3300D1704710B511F813
:10371C00014B914203F8014FF9D110BD38B5054664
:10372C00002940D051F8043C0C1F002BB8BFE41802
:10373C0000F0DAF81C4A136833B963601460284649
:10374C00BDE8384000F0D6B8A34208D9206821184B
:10375C008B4201BF19685B6809182160EDE71A46B6
:10376C005B680BB1A342FAD911685018A0420BD177
:10377C0020680144501883421160E0D118685B68DE
:10378C00084410605360DAE702D90C232B60D6E7AB
:10379C00206821188B4201BF19685B6809182160E9
:1037AC0063605460CBE738BDF8030020024B014640
:1037BC00186800F023B800BF6400002070B50E4EEE
:1037CC000C463168054611B900F032FD30602146D7
:1037DC00284600F02DFD431C0AD0C41C24F0030421
:1037EC00A04207D0211A284600F022FD013001D159
:1037FC004FF0FF34204670BDFC0300202DE9F04152
:10380C00CD1C25F0030508350C2D38BF0C25002DDB
:10381C00074601DBA94205D90C2300263B60304644
:10382C00BDE8F0812F4E00F05FF833681C4644BBB6
:10383C0029463846FFF7C2FF431C04464FD1346873
:10384C002646002E42D1002C43D023683146384600
:10385C0004EB030800F0ECFC80453AD123680335F7
:10386C00ED1A25F0030508350C2D38BF0C2538460C
:10387C002946FFF7A3FF01302BD023682B4423608C
:10388C000EE02268521B1ED40B2A16D96119A342D2
:10389C00256018BF5960636808BF316062514B6086
:1038AC00384604F10B0600F025F826F00706231D18
:1038BC00F21AB4D09B1BA350B1E76268A3420CBFB1
:1038CC0032605A60ECE723466468B0E734467668A9
:1038DC00B7E70C2338463B6000F00CF89FE72560F7
:1038EC00DEE700BFF80300200148FFF707BF00BF69
:1038FC00F40300200148FFF702BF00BFF4030020CF
:10390C00936810B4013B002B936007DA9469A342CF
:10391C0001DB0A2902D110BC00F0D3BB1368581C80
:10392C0010601970084610BC7047F8B506460F4673
:10393C001446D518AC4201D1002007E03A46304677
:10394C0014F8011BFFF7DCFF431CF3D1F8BD00009A
:10395C002DE9F04F0D461446984606469DB018B119
:10396C00036A0BB9FFF718FD6B6ED90705D4AB8949
:10397C009A0502D4A86DFFF7C1FEAB891B0701D5D0
:10398C002B699BB92946304600F0D8FB70B16B6EA1
:10399C00DC0704D54FF0FF301DB0BDE8F08FAB89CC
:1039AC009805F7D4A86DFFF7AAFEF3E70023099357
:1039BC0020238DF8293030234FF00109CDF80C80ED
:1039CC00DFF8AC818DF82A3023469A4613F8012B88
:1039DC000AB1252AF9D1BAEB040B0BD05B4622466F
:1039EC0029463046FFF7A1FF013000F0A980099A63
:1039FC005A4409929AF80030002B00F0A180002361
:103A0C004FF0FF32CDE905230AF1010A0493079325
:103A1C008DF853301A935446052214F8011B544860
:103A2C0000F016FC049AD8B9D10644BF20238DF8B7
:103A3C005330130744BF2B238DF853309AF80030C2
:103A4C002A2B15D0544600204FF00A0C079A214619
:103A5C0011F8013B303B092B4DD9B0B1079214E062
:103A6C00A0EB080309FA03F31343A2460493D2E72D
:103A7C00039B191D1B680391002BBBBF5B4242F0DB
:103A8C00020207930793B8BF049223782E2B0CD114
:103A9C0063782A2B34D1039B02341A1D1B680392C2
:103AAC00002BB8BF4FF0FF330593DFF8C8A00322FB
:103ABC005046217800F0CCFB38B14022049BA0EB9F
:103ACC000A00824013430134049314F8011B0622AC
:103ADC0029488DF8281000F0BBFB00283FD0274B5D
:103AEC001BBB039B073323F0070308330393099B8A
:103AFC003B44099368E70C4601200CFB0232A6E715
:103B0C0000234FF00A0C194601340593204610F897
:103B1C00012B303A092A03D9002BC6D00591C4E7F2
:103B2C00044601230CFB0121F0E703AB00932A466A
:103B3C003046134B04A9AFF300800746781CD6D14E
:103B4C006B6ED90705D4AB899A0502D4A86DFFF723
:103B5C00D6FDAB895B063FF51DAF09981CE703AB9F
:103B6C0000932A463046064B04A900F07DF8E4E7A2
:103B7C009C4A0008A24A0008A64A0008000000005F
:103B8C00373900082DE9F047164699468A680B69C3
:103B9C0007469342B8BF1346336091F843200C4656
:103BAC00DDF820800AB1013333602368990642BFE7
:103BBC00336802333360256815F0060506D104F12D
:103BCC00190AE36832689B1AAB422BDC94F8432049
:103BDC00131E226818BF0123920630D4494638467A
:103BEC0004F14302C047013023D02368226903F05B
:103BFC000603042B14BF002533684FF0000608BFE2
:103C0C00E56804F11A0408BFED1A54F8123C08BF19
:103C1C0025EAE5759342C4BF9B1AED18B5421AD13B
:103C2C00002008E00123524649463846C04701307F
:103C3C0003D14FF0FF30BDE8F0870135C1E73020EC
:103C4C00E11881F843005A1C94F8451022440233C1
:103C5C0082F84310C2E70123224649463846C04742
:103C6C000130E6D00136D9E72DE9FF470F7E9146AA
:103C7C00782F80460C469A460C9D01F1430207D8DA
:103C8C00622F0AD8002F00F0D580582F00F0C18089
:103C9C0004F1420584F842703AE0A7F16303152B56
:103CAC00F6D801A151F823F00D3D0008213D000884
:103CBC009D3C00089D3C00089D3C00089D3C000874
:103CCC00213D00089D3C00089D3C00089D3C0008DF
:103CDC009D3C0008273E00084D3D0008E13D0008D2
:103CEC009D3C00089D3C0008493E00089D3C000896
:103CFC004D3D00089D3C00089D3C0008E93D000836
:103D0C002B681A1D1B682A6004F1420584F84230A6
:103D1C000123A0E020682B68070603F10401296049
:103D2C0001D51E6803E04606FBD5B3F90060002EF2
:103D3C0003DA2D23764284F843300A23594812E0E3
:103D4C002B682068191D2960050601D51E6802E044
:103D5C004106FBD51E886F2F0CBF08230A23514840
:103D6C00002184F843106568002DA8BF2168A56068
:103D7C00A4BF21F0040121600EB9002D4BD01546D3
:103D8C00B6FBF3F103FB1167C75D05F8017D374600
:103D9C00BB420E46F4D9082B0BD12368DE0708D59D
:103DAC00236961689942DEBF302305F8013C05F1B7
:103DBC00FF35521B22614B4621464046CDF800A0F0
:103DCC0003AAFFF7DFFE01304AD14FF0FF3004B0F9
:103DDC00BDE8F087236843F020032360782732483E
:103DEC0084F84570236829681F0651F8046B02D4C7
:103DFC005F0648BFB6B2DF0748BF43F02003296017
:103E0C0048BF23601EB9236823F0200323601023CE
:103E1C00A6E72448E4E71546BDE72B682668181D7D
:103E2C006169286035061B6801D5196002E07006CF
:103E3C00FBD51980002315462361BCE72B680021B4
:103E4C001A1D2A601D686268284600F001FA08B144
:103E5C00401B606063682361002384F84330AAE749
:103E6C002A46494640462369D0470130ADD02368E5
:103E7C009B0713D4E068039B9842B8BF1846A6E78B
:103E8C000123324649464046D04701309DD001358A
:103E9C00E36803995B1AAB42F2DCEBE7002504F113
:103EAC001906F5E7AD4A0008BE4A00088A89F8B53C
:103EBC00054610070C4657D44B68002B04DC0B6CE2
:103ECC00002B01DC0020F8BDE66A002EFAD000239E
:103EDC0012F480522F68216A2B6032D0606DA38956
:103EEC005A0705D56368C01A636B0BB1236CC01AF3
:103EFC0000230246E66A2846216AB047431CA38980
:103F0C0006D129681D292BD8284A0A41D60727D45F
:103F1C00002262602269D904226004D5421C01D1BE
:103F2C002B6803B96065616B2F600029CAD004F15E
:103F3C004403994202D02846FFF7F0FB002060634F
:103F4C00C1E701232846B047411CC8D12B68002B80
:103F5C00C5D01D2B01D0162B01D12F60B2E7A38940
:103F6C0043F04003A381AEE70F69002FAAD093075B
:103F7C0018BF00230E6808BF4B69F61B0F608B60DF
:103F8C00002E9FDD33463A462846216AD4F828C0D5
:103F9C00E047002806DCA3894FF0FF3043F04003D4
:103FAC00A38190E70744361AEAE700BFFEFFBFDFA4
:103FBC0038B50B6905460C4613B90025284638BDA3
:103FCC0018B1036A0BB9FFF7E7F9B4F90C30002B01
:103FDC00F3D0626ED00704D4990502D4A06DFFF71C
:103FEC008DFB28462146FFF761FF636E0546DA0715
:103FFC00E4D4A3899B05E1D4A06DFFF780FBDDE73A
:10400C0070B50C46B1F90E10154600291E4696B037
:10401C000CDAA389002113F0800F0CBF4FF48063DE
:10402C004023002031602B6016B070BD6A4600F052
:10403C00DDF80028EDDB019901F47041A1F5005386
:10404C00594259414FF48063EBE78B8973B59D0757
:10405C0006460C4607D504F1470323602361012370
:10406C00636102B070BD6A4601ABFFF7C9FF0099EE
:10407C0005463046FFF7C2FB48B9B4F90C309A0537
:10408C00EFD423F0030343F00203A381E3E7A389F6
:10409C00206043F08003A381009B20616361019B3E
:1040AC005BB13046B4F90E1000F0B2F828B1A38918
:1040BC0023F0030343F00103A381A3891D43A581CE
:1040CC00CFE7F8B50E461446054618B1036A0BB98E
:1040DC00FFF762F9A369A360A3891A0725D52369A1
:1040EC001BB323682269F6B2981A63693746834278
:1040FC0004DC21462846FFF75BFFE0B9A368013BCF
:10410C00A36023685A1C22601E706269431C9A4289
:10411C0004D0A389DB0706D50A2E04D121462846F4
:10412C00FFF746FF38B93846F8BD2146284600F05F
:10413C0005F80028D5D04FF0FF37F4E738B52A4BF7
:10414C00054618680C4618B1036A0BB9FFF724F939
:10415C00A389B4F90C20180722D4D90607D4092353
:10416C002B6042F040034FF0FF30A38134E058073E
:10417C0012D5616B41B104F14403994202D0284637
:10418C00FFF7CCFA00236363A38923F02403A381F4
:10419C000023636023692360A38943F00803A38190
:1041AC0023694BB9A38903F42073B3F5007F03D0C3
:1041BC0021462846FFF749FFA089B4F90C2010F0DE
:1041CC0001030AD00023A36063695B42A3612369E6
:1041DC0043B910F08000C4D138BD810758BF636962
:1041EC00A360F4E70020F7E76400002038B5002353
:1041FC00064D0446084611462B60FCF764FC431C34
:10420C0002D12B6803B1236038BD00BFF00300203E
:10421C0038B50023054D044608462B60FCF758FCC6
:10422C00431C02D12B6803B1236038BDF00300207E
:10423C0038B50023054D044608462B60FCF7FEFB01
:10424C00431C02D12B6803B1236038BDF00300205E
:10425C00034610B5C9B202449342184601D100205E
:10426C0003E0047801338C42F6D110BD2DE9F04700
:10427C00089E0D4604468E46002B4CD18A4294462D
:10428C0067D9B2FA82F353B102FA03FCC3F12002EC
:10429C0001FA03FE20FA02F242EA0E0E9C404FEAAB
:1042AC001C47BEFBF7F11FFA8CF507FB11EE01FB67
:1042BC0005F0220C42EA0E4290420AD91CEB020293
:1042CC0001F1FF3E80F01981904240F216810239D3
:1042DC006244121AB2FBF7F007FB102200FB05F543
:1042EC00A4B244EA0244A5420AD91CEB040400F12E
:1042FC00FF3280F00481A54240F20181644402380F
:10430C0040EA01400021641B1EB1DC400023C6E9D9
:10431C000043BDE8F0878B4208D9002E00F0EA80FC
:10432C000021C6E900050846BDE8F087B3FA83F121
:10433C00002948D1AB4202D3824200F2F880841AA1
:10434C0065EB030201209646002EE2D0C6E9004E32
:10435C00DFE702B9FFDEB2FA82F3002B40F08E8069
:10436C00881A0121170C1FFA82FEB0FBF7F507FB28
:10437C001500220C42EA00420EFB05F0904208D9CF
:10438C001CEB020205F1FF3802D2904200F2CC8005
:10439C004546121AB2FBF7F007FB10220EFB00FE8B
:1043AC00A4B244EA0244A64508D91CEB040400F16B
:1043BC00FF3202D2A64500F2B4801046A4EB0E04E4
:1043CC0040EA0540A0E7C1F120078B4022FA07FC28
:1043DC004CEA030C25FA07FA4FEA1C49BAFBF9F828
:1043EC008D4020FA07F309FB18AA1FFA8CFE2B4309
:1043FC0000FA01F508FB0EF01C0C44EA0A44A0423A
:10440C0002FA01F20BD91CEB040408F1FF3A80F01C
:10441C008680A04240F28380A8F102086444241AEA
:10442C0098B2B4FBF9F309FB134403FB0EFE40EA0C
:10443C000444A64508D91CEB040403F1FF306AD2EE
:10444C00A64568D9023B644443EA0840A0FB0293AA
:10445C00A4EB0E049C42C8469E4654D351D0002E69
:10446C0067D0B5EB080364EB0E04CB4004FA07F7F6
:10447C001F43CC40C6E9007400214AE702FA03FC52
:10448C00C3F12000C1409D4024FA00F04FEA1C47C4
:10449C002843B1FBF7F507FB15111FFA8CFE020C34
:1044AC0042EA014205FB0EF1914204FA03F408D9E9
:1044BC001CEB020205F1FF382FD291422DD9023D9F
:1044CC006244521AB2FBF7F107FB112280B240EAA8
:1044DC00024001FB0EF2824208D91CEB000001F1F4
:1044EC00FF3816D2824214D902396044801A41EA4C
:1044FC0005413AE7314630460BE77146E9E610468E
:10450C00FEE64D45ABD2B9EB020863EB0C0E01385D
:10451C00A5E74146EAE7034696E74546D1E7D0468C
:10452C007DE76444023849E7023D624431E70846BE
:10453C000AE73146EDE600BFF8B500BFF8BC08BC91
:10454C009E467047F8B500BFF8BC08BC9E46704745
:1045600020200000000000004020000000000000AB
:104570000000000000000000010000000100000039
:104580000100000000000000000100000000000029
:104590000000000000000000080000000000000013
:1045A000010300000A0D436F6E6669673A202578A3
:1045B000000000000A0D456E61626C656420446174
:1045C00074612050697065733A20257800000000FE
:1045D0000A0D53657475702052657472793A2025FE
:1045E000780000000A0D5246204368616E6E656CCB
:1045F0003A202578000000000A0D524620536574C9
:1046000075703A20257800000A0D525820416464E4
:104610007265737320486967683A20256C780A0DC3
:1046200052582041646472657373204C6F773A204E
:10463000256C78000A0D52585F50575F50303A2071
:10464000257800000A0D466561747572653A20256B
:10465000780000000A0D57616974696E6720666F03
:10466000722043414E0000000A0D43414E20726506
:1046700063656976656400000A0D524620706F77A5
:104680006572204F4E0000000A0D57616974696E13
:104690006720666F72204E52460000000A0D524697
:1046A00020706F776572204F464600000A0D4E520B
:1046B0004620726563656976656420646174610093
:1046C0005B6D3A2025645D205B753A2025645D2092
:1046D0005265636569766564206D657373616765AE
:1046E0002077697468206964203D20307825303453
:1046F000782C206E6F64655F6964203D20307825DA
:1047000030327821207072657373757265203D2098
:1047100025642C2074656D70203D2025640D0A00F1
:104720000A0D4552524F523A2054696D656F7574A7
:10473000000000000A0D53656E64696E67206261B7
:10474000636B2050544E20524553504F4E534500FA
:10475000CB66923600000000DDAAE83500000000BC
:1047600038F4D435000000003869E5350000000059
:104770000D0BB03600000000D54F343600000000AD
:104780001B612B36000000000DA8903600000000D1
:1047900073B7CA36000000003961393700000000E5
:1047A000EFED2E3700000000B3E4043700000000F6
:1047B000F930DB3500000000F699A3360000000058
:1047C000533F623600000000CE1F96360000000006
:1047D000D999DF350000000018EF8F360000000087
:1047E000829805360000000074FFC3350000000009
:1047F000EC243336000000000F42133600000000A6
:10480000E39BC3360000000063A7FC3500000000F6
:1048100037830437000000006026063600000000E1
:10482000088C67360000000082F6E83500000000C2
:10483000281C063600000000CF050F3700000000DE
:1048400079E4D9350000000057EE4A370000000037
:10485000ECF4653600000000C406C136000000001C
:104860002FFB2C37000000004D5D49370000000091
:104870000ECFCD3600000000319BA23600000000B4
:104880008BD403360000000007AFD93600000000CB
:10489000A019F436000000002EFEC735000000000D
:1048A0006B295B36000000002E570D36000000001B
:1048B000175A33370000000070A64336000000008E
:1048C00072E31137000000001F88B83600000000B6
:1048D0003B8A1537000000007ACFE936000000005F
:1048E000F451EE3500000000031DFC35000000000F
:1048F0002D166F360000000071EC7B3600000000C2
:1049000045E62B3700000000A8CE27370000000046
:10491000E4CC043600000000F714E4360000000088
:104920007748B73600000000F942FA350000000071
:1049300042F4A836000000005784C935000000008A
:104940001E60103700000000CC5536370000000014
:10495000C467363600000000F5F31736000000008B
:104960001D1125370000000023F8F035000000007D
:104970007A933236000000004441CA36000000003D
:104980000FFCFC3500000000D10ADF3600000000FB
:10499000C903A03600000000F2B813360000000082
:1049A000EBA6A736000000001547373600000000D0
:1049B000566D1B3700000000E49A403700000000ED
:1049C0004BDBFB3600000000D2EF1A37000000007E
:1049D000702935370000000024E9AB3600000000E4
:1049E000E1C56436000000002D67D53500000000E9
:1049F00056C21F3700000000F263083700000000B5
:104A00009B80A736000000009F6F4A360000000020
:104A100011E73337000000001B79803600000000EA
:104A2000E6F796360000000084795036000000005A
:104A30007B59E2350000000059C8EF350000000046
:104A40005198673600000000CD6CD735000000009B
:104A5000D593173600000000EAA2353700000000A9
:104A6000FE0C453700000000043EE1350000000068
:104A700002030405060708090A0B0C0D0E0F10109F
:104A80000102000000000000000000000102030419
:104A9000060708090000000001020304232D302B43
:104AA0002000686C4C00656667454647003031322F
:104AB0003334353637383941424344454600303186
:104AC00032333435363738396162636465660000E5
:084AD000A8F7FF7F01000000C0
:044AD800A901000828
:044ADC00810100084C
:104AE00001000000100000000024F400000000009D
:104AF00003000000B402002000000000B402002007
:104B00001C030020840300200000000000000000BF
:104B10000000000000000000000000000000000095
:104B20000000000000000000000000000000000085
:104B30000000000000000000000000000000000075
:084B4000000000001800002035
:040000050800326558
:00000001FF
