:020000040800F2
:1000000000500020894F0008F9260008FB26000850
:10001000FD260008FF260008012700080000000058
:10002000000000000000000000000000032700089E
:10003000052700080000000007270008092700081E
:10004000D14F0008D14F0008D14F0008D14F000810
:10005000D14F0008D14F0008D14F0008D14F000800
:10006000D14F0008D14F0008D14F0008D14F0008F0
:10007000D14F0008D14F0008D14F0008D14F0008E0
:10008000D14F0008D14F0008D14F0008D14F0008D0
:10009000D14F0008D14F0008D14F0008D14F0008C0
:1000A000D14F0008D14F0008D14F0008D14F0008B0
:1000B00011270008D14F0008D14F0008D14F000888
:1000C000D14F0008D14F0008D14F0008D14F000890
:1000D000D14F0008D14F0008D14F0008D14F000880
:1000E000D14F0008D14F0008D14F00080000000098
:1000F0000000000000000000000000000000000000
:0C01000000000000000000005FF808F1A3
:10010C000348044B834202D0034B03B1184770479A
:10011C007000002070000020000000000548064917
:10012C000B1AD90F01EBA301491002D0034B03B1F9
:10013C00184770477000002070000020000000007D
:10014C0010B5064C237843B9FFF7DAFF044B13B113
:10015C000448AFF300800123237010BD7000002011
:10016C0000000000D44F000808B5044B1BB1044933
:10017C000448AFF30080BDE80840CFE70000000062
:10018C0074000020D44F0008014B1868704700BF62
:10019C000000002070B50D4E0D4D761BB61006D02C
:1001AC00002455F8043B01349847A642F9D1094E76
:1001BC00094D04F009FF761BB61006D0002455F843
:1001CC00043B01349847A642F9D170BDB0550008E4
:1001DC00B0550008B4550008B0550008844641EAF3
:1001EC00000313F0030349D1403A23D30B68036097
:1001FC004B6843608B688360CB68C3600B69036199
:10020C004B6943618B698361CB69C3610B6A036280
:10021C004B6A43628B6A8362CB6AC3620B6B036368
:10022C004B6B43638B6B8363CB6BC363403040314D
:10023C00403ADBD230320BD30B6803604B6843601F
:10024C008B688360CB68C36010301031103AF3D2E6
:10025C000C3205D351F8043B40F8043B043AF9D274
:10026C00043208D0D2071CBF11F8013B00F8013B47
:10027C0001D30B8803806046704700BF082A13D354
:10028C008B07B1D010F00303AED0C3F10403D21A24
:10029C00DB071CBF11F8013B00F8013BA4D331F87C
:1002AC00023B20F8023B9FE7043AD9D3013A11F8FC
:1002BC00013B00F8013BF9D20B7803704B7843708B
:1002CC008B78837060467047830730B548D0541ED6
:1002DC00002A3FD00346CAB201E0013C3AD303F8EE
:1002EC00012B9D07F9D1032C2DD9CDB245EA05255B
:1002FC000F2C45EA054536D9A4F1100222F00F0C5B
:10030C0003F1200EE6444FEA121C03F1100242E9FD
:10031C00045542E9025510327245F8D10CF1010234
:10032C0014F00C0F03EB021204F00F0C13D0ACF111
:10033C00040323F003030433134442F8045B934295
:10034C00FBD10CF003042CB1CAB21C4403F8012BF2
:10035C009C42FBD130BD64461346002CF4D1F9E726
:10036C0003461446BFE71A46A446E0E70EB410B5A0
:10037C00044683B008B183695BB106AB2046059A8D
:10038C00A168019300F0C8FC03B0BDE8104003B0B5
:10039C00704700F0C3FAF0E70FB410B50A4B82B007
:1003AC001C680CB1A3695BB105AB2046049AA1682B
:1003BC00019300F0B1FC02B0BDE8104004B07047EE
:1003CC00204600F0ABFAEFE7000000202DE9F043E7
:1003DC005B4C0D462668904604461F4683B016B10A
:1003EC00B369002B65D0574B9C4268D0564B9C424E
:1003FC0067D0564B9C4208BFF468B8F1020F06D088
:10040C00B8F1010F00F28880002FC0F285802146E0
:10041C00304600F021F9616B41B104F1440399427B
:10042C0002D0304600F07CFB002363630023B4F958
:10043C000CC0A3611CF0800F636052D12CF44A6C89
:10044C002CF0030CB8F1020FA4F80CC050D001AB87
:10045C00214630466A4600F025FBA3891843A0814B
:10046C00002F30D1009F384600F04AFB054600288B
:10047C0055D0A38943F08003A381B36943B3B4F986
:10048C000C30B8F1010F04BF43F00103A38198B203
:10049C0013F00803C4E9045725601DD010F00100C7
:1004AC0036D0002210467F42A761A26003B0BDE89F
:1004BC00F083304600F032FA224B9C4296D174689D
:1004CC009BE7B46899E7002DCDD0B369002BD6D14A
:1004DC00304600F023FAD2E71846A36003B0BDE81B
:1004EC00F0833046216900F01BFBB4F90CC0A5E782
:1004FC0000200021012204F147034CF0020CA4F867
:10050C000CC023602361A160626103B0BDE8F0837D
:10051C00A76003B0BDE8F0834FF0FF30DEE7DDF8F5
:10052C000090B94504D0484600F0EAFA054620B9D7
:10053C004FF0FF30B4F90CC0DBE74F4699E700BF32
:10054C00000000207850000858500008385000086F
:10055C00F8B58B890C46190707463BD46268002A0C
:10056C0055DDE66A002E50D000223D683A6013F447
:10057C00805250D101233846216AB047421C5CD0CE
:10058C00A389E66A5B0705D56368C01A636B0BB178
:10059C00236CC01A0246216A00233846B047411C1E
:1005AC003BD13B68002B38D01D2B01D0162B4BD1E7
:1005BC0000232269C4E90023616B3D6029B304F177
:1005CC004403994202D0384600F0AAFA0023184698
:1005DC006363F8BD2669C6B19A0718BF0023256866
:1005EC0008BF63692660AD1BA3600CE02B46324646
:1005FC00D4F828C03846216AE047B0F1000CA5EBCE
:10060C000C05664412DD002DF0DC0020F8BD226CD8
:10061C00002AA6DCF9E7606DB4E70022236962606A
:10062C002360A389DB04C7D56065C5E7A3894FF0B8
:10063C00FF3043F04003A381F8BD3B68002B9FD0F3
:10064C001D2B06D0162B04D0A38943F04003A381A5
:10065C00F8BD00203D60F8BD38B50B69BBB10C4648
:10066C00054608B18369B3B10D4B9C4211D00D4BBB
:10067C009C4213D00C4B9C4208BFEC68B4F90C3074
:10068C002BB121462846BDE83840FFF761BF00205A
:10069C0038BD6C68F2E700F041F9E5E7AC68EDE7CE
:1006AC0078500008585000083850000838B540B34E
:1006BC0003690446E3B1174B1D680DB1AB69CBB1AF
:1006CC00154B9C420FD0154B9C4221D0144B9C4295
:1006DC0008BFEC68B4F90C3053B121462846BDE88C
:1006EC003840FFF735BF6C68B4F90C30002BF4D1EF
:1006FC00002038BD284600F011F9074B9C42E2D18E
:10070C00F1E7084B08491868BDE8384000F046B9D5
:10071C00AC68DFE700000020785000085850000853
:10072C003850000834500008650600080020704757
:10073C00014900F033B900BF65060008002070477E
:10074C00682270B54D1E02FB05F50E4605F17401CD
:10075C0000F04CFA044640B100210C30C4E90160B1
:10076C0005F168022160FFF7AFFD204670BD00BFA8
:10077C00274B2DE9F0411E680746B36953B34FF080
:10078C0004084836D6E90134013B04D51EE05A1C56
:10079C0004F168041AD0B4F90C50013B002DF6D1C9
:1007AC001C4B08222946C4E90055C4E90253C4E98C
:1007BC0004556566A56104F15C00FFF785FDC4E98D
:1007CC000D55C4E912552046BDE8F08135682DB1B0
:1007DC002E46D7E7304600F01FF8D0E74FF4D6711D
:1007EC00384600F003FA044668B105602946054610
:1007FC00C0F804800C304FF4D072A060FFF764FD99
:10080C0034602E46BEE70C2330603B60DBE700BF54
:10081C00345000080100FFFF0023334A2DE9F04754
:10082C001268C0E912339042036508BF01232F49B7
:10083C0008BF836181620546FFF79AFF034628468D
:10084C006B60FFF795FFA86028460024FFF790FF28
:10085C0004236E68DFF898A0DFF89890DFF8988092
:10086C00264FE8600822F3602146C6E90044C6E939
:10087C0004447466B460B46106F15C00FFF724FDB7
:10088C001F4BC6E9086AC6E90A983763AE680822A6
:10089C00F3602146C6E90044C6E904447466B460BA
:1008AC00B46106F15C00FFF70FFD164BC6E9086A50
:1008BC00C6E90A983763EE682146F3600822C6E958
:1008CC000044C6E904447466B460B46106F15C008B
:1008DC00FFF7FAFC0123C6E9086AC6E90B87C6F8DC
:1008EC002890AB61BDE8F087345000083D07000844
:1008FC00CD130008F5130008351400085514000832
:10090C000900010012000200024B0349186800F0B4
:10091C0045B800BF3450000865060008836903B968
:10092C007AE77047704700BF704700BF704700BF41
:10093C00704700BF024B0349186800F00FB800BFA6
:10094C000000002039070008024B0349186800F02A
:10095C0005B800BF00000020490700082DE9F04150
:10096C000026884600F14807D7E90154013D0ED412
:10097C00A389013D012B06D9B4F90E30013302D005
:10098C002046C04706436B1C04F16804F0D13F6855
:10099C00002FE9D13046BDE8F08100BF2DE9F843C6
:1009AC004FF000090746884600F14806D6E9015485
:1009BC00013D10D4A389013D012B08D9B4F90E30A7
:1009CC00013304D021463846C04749EA00096B1C64
:1009DC0004F16804EED13668002EE7D14846BDE834
:1009EC00F88300BFF0B58B890C46990797B007D5F3
:1009FC00012204F14703C4E90432236017B0F0BDAF
:100A0C00B4F90E10054600292DDB6A4600F02CFEC9
:100A1C00002827DB019E4FF4806706F47046A6F58C
:100A2C000056B6FA86F639462846760900F0DEF806
:100A3C0030B3A3891A4A43F08003AA62C4E90407BD
:100A4C00A3812060002ED9D02846B4F90E1000F0F6
:100A5C0097FF0028D2D0A38923F0030343F00103AE
:100A6C00A381CBE7A38913F0800F14BF40274FF469
:100A7C00806728463946002600F0B8F80028D8D1FF
:100A8C00B4F90C309A05B9D4012123F0030304F115
:100A9C00470243F00203C4E90421A3812260ADE7BD
:100AAC003D07000870B50C46B1F90E10164600292A
:100ABC001D4696B013DB6A4600F0D6FD00280EDB0F
:100ACC0001994FF4806301F47041A1F50051B1FA22
:100ADC0081F1002049092960336016B070BD0022F5
:100AEC00B4F90C302A601B0604D540230020336077
:100AFC0016B070BD4FF480630020336016B070BD2B
:100B0C00024B0146186800F071B800BF00000020CD
:100B1C00024B0146186800F003B800BF000000202B
:100B2C00002952D038B551F8043C0C1F002BB8BF2B
:100B3C00E418054601F010F82B4A1368002B45D039
:100B4C00A3420CD921686018834228D063602846E0
:100B5C001460BDE8384001F001B8A3420FD81A4622
:100B6C005B68002BF9D11168501884421DD034D326
:100B7C00636054602846BDE8384000F0EFBF116850
:100B8C005018A04215D028D8216860188342EFD1A4
:100B9C0018685B680144C4E900135460EAE71868FC
:100BAC005B680144C4E90013D1E723681944116060
:100BBC00E0E720680144501883421160DAD1D3E990
:100BCC0000030144C2E90013D4E770472846636070
:100BDC001460BDE8384000F0C1BF0C2328462B60E0
:100BEC00BDE8384000F0BABF8C000020F8B5CD1C31
:100BFC0025F0030508350C2D38BF0C25002D0646B5
:100C0C0023DBA94221D8264F00F0A6FF3A6822B375
:100C1C00144603E063682246FBB11C4623685B1B49
:100C2C00F8D40B2B15D8636894420CBF3B6053600F
:100C3C00304600F093FF04F10B00231D20F0070059
:100C4C00C21A01D01B1AA350F8BD0C23002033602C
:100C5C00F8BD23601C442560EAE77968D1B12946C8
:100C6C00304600F09BFB431C01460CD0C41C24F006
:100C7C000304A04205D03046611A00F08FFB01300E
:100C8C0001D02560D4E70C233046336000F066FFBA
:100C9C000020F8BD304600F081FB7860DFE700BF34
:100CAC008C0000209368013B002B936005DAD2F88E
:100CBC0018C0634507DB0A2905D01368581C10605F
:100CCC0008461970704700F0C3BB00BF9BB1F8B564
:100CDC00134406460F46541E5D1E01E0AC4208D07C
:100CEC003A46304614F8011FFFF7DCFF431CF5D1E0
:100CFC00F8BD0020F8BD0020704700BF936810B508
:100D0C00144613B91846536010BD00F0C1FC002303
:100D1C00C4E9013310BD00BF2DE9F04F0E469246D9
:100D2C001C4607469FB018B18369002B00F0A880C1
:100D3C00954B9E4200F0AA80944B9E4200F0B580E9
:100D4C00934B9E4208BFFE68B389180740F1A380FD
:100D5C003369002B00F09F80002320220B9330235B
:100D6C009AF80010059401258A4C8DF831208DF8E5
:100D7C00323000297DD0D1460B4604E019F8013FF2
:100D8C00002B00F09480252BF8D1B9EB0A0B40F026
:100D9C00918099F80030002B6BD000234FF0FF327C
:100DAC0009F10109CDE90723069309938DF85B300E
:100DBC001C9304E0001B05FA00F018430690CA4689
:100DCC000522204619F8011B00F002FE069B0028A4
:100DDC00F0D1D90644BF20228DF85B201A0748BFFA
:100DEC002B229AF8001048BF8DF85B202A2972D16B
:100DFC00059A1168043200290592C0F2A08009916D
:100E0C009AF801100AF1010A2E2976D0DFF88891A0
:100E1C000322484600F0DCFD48B14022069BA0EBC3
:100E2C00090002FA00F003430AF1010A06931AF8CA
:100E3C00011B062259488DF8301000F0C9FD00281E
:100E4C0000F08380564B002B6CD005A900913246E4
:100E5C003846544B06A9AFF300800390039B013333
:100E6C0007D00B9B039A9AF8001013440B9300299C
:100E7C0081D1B3895B0615D40B981FB0BDE8F08FF8
:100E8C00FFF74CFD404B9E427FF456AF7E68B38912
:100E9C0018073FF55DAF3146384600F051FB00288E
:100EAC003FF45AAF4FF0FF30E7E7BE684CE7B9EBC1
:100EBC000A0BDED0D046CAF1010A03E0934538D9BB
:100ECC0018F8011F32463846FFF7ECFE01300AEBEA
:100EDC000802F3D1CDE7A1F13002092A94D8099B7D
:100EEC001AF8011F03EB830302EB4303A1F1300259
:100EFC00092AF5D92E29099388D19AF801102A29A3
:100F0C002DD1059B0AF102001A680433002A0593BF
:100F1C00B8BF4FF0FF339AF8021007928246B8BF61
:100F2C00079373E7059B073323F0070308330593F7
:100F3C0097E70B9A99F800305A440B922BE74942E9
:100F4C0043F00203099106935AE705A90091324632
:100F5C003846144B06A900F0CBF803907EE700232B
:100F6C00A1F13002092A0AF1010A07933FF64EAFAC
:100F7C001AF8011F03EB830302EB4303A1F13002C8
:100F8C00092AF5D9079341E7785000085850000812
:100F9C00385000086C550008745500087855000846
:100FAC0000000000D90C00088C4600B5864613469C
:100FBC00034A714610685DF804EB6246FFF7ACBE5D
:100FCC00000000202DE9F04791461E460A698B6807
:100FDC000C469A42B8BF1A46C9F8002091F8433023
:100FEC000546DDF8208013B10132C9F800202268D3
:100FFC0091065DD5D9F800300233C9F8003022686B
:10100C0012F0060F11461ED1E168CB1A002BD8BF87
:10101C00114618DD002704F1190A06E0D9F8003052
:10102C00E268A2EB030CBC450CDD012352463146B1
:10103C002846C047013007F10107EFD14FF0FF30D0
:10104C00BDE8F087216894F84330003B18BF0123BA
:10105C008A060AD53021E21882F8431094F845101C
:10106C005A1C2244023382F843103146284604F1BC
:10107C004302C0470130E1D0236803F00603042B80
:10108C001DD0A3682269934225DD00279B1A1F44BB
:10109C0004F11A09002401E0BC421CDA01234A467F
:1010AC0031462846C047013004F10104F4D1C5E7AC
:1010BC0012F0060F12D0003B18BF0123D5E7D9F868
:1010CC000030E1682269C91AA36821EAE1779342EA
:1010DC00DCDC0029DCDC0020BDE8F087E168D9F815
:1010EC000030CB1A002BD8BF114693DCABE700BF06
:1010FC002DE9F04317460A7E85B00C460646984605
:10110C000C9D01F1430C002A33D0A2F15803D9B243
:10111C00202967D8202B65D8DFE813F0DD006400A8
:10112C006400640064006400640064006400640093
:10113C006400A3006E0064006400640064006E0030
:10114C00640064006400640021007F00BF00640040
:10115C006400AE0064007F0064006400E400236857
:10116C001A0640F102812B686269191D29601B68FF
:10117C001A600023E14623613B4621463046CDF8F8
:10118C00008003AAFFF71EFF013020D04A463946E3
:10119C0030462369C047013019D02368E0689B07AB
:1011AC00039919D5431A002B16DD002504F11909F2
:1011BC0004E0E0680399431AAB420DDD01234A4673
:1011CC0039463046C047013005F10105F1D14FF0E9
:1011DC00FF3005B0BDE8F0838842B8BF084605B0C3
:1011EC00BDE8F083012384F8422004F14209236115
:1011FC00002384F84330BFE72368190602D45A064B
:10120C0000F1BF8029680A68043129601146002A60
:10121C006ADB0A25DFF87CE110E02368180640F150
:10122C009A802B68191D296019686F2A0CBF082534
:10123C000A25DFF860E1002384F843306268002A55
:10124C00A2607DDB236823F004032360002959D1BD
:10125C00002A77D1E146082D63D0ACEB090323615A
:10126C008AE701222B6804F14209196804332B60C8
:10127C0084F842102261BBE72B6800211A1D2A60FA
:10128C00D3F800906268484600F0A2FB00287FD09B
:10129C00A0EB090060602061AAE7236843F02003FB
:1012AC0023607822DFF8F0E084F845202A68111DCD
:1012BC002960190642D45D0640D51188D80744BF71
:1012CC0043F020032360002943D12368102523F029
:1012DC0020032360AFE75823DFF8B8E084F84530EB
:1012EC002368E3E72368DCE72D2284F84320626857
:1012FC004942002AA26002DB23F0040323600A2582
:10130C00DFF890E0E146B1FBF5F30A4605FB13105C
:10131C0019461EF80030AA4209F8013DF3D2082DF7
:10132C009BD12368D90798D5626823699A4294DCCB
:10133C00302309F1FF3989F800308EE71168BDE7D9
:10134C000029DFD19EF8003004F1420984F84230C4
:10135C0081E710256FE713F0400F2B6803F10401B0
:10136C0029600CBF196819885FE713F0400F2B68D0
:10137C00626903F1040129601B6814BF1A801A60AA
:10138C00F7E62A68B2F9001004322A600A463EE7F2
:10139C00606880E78055000894550008002238B535
:1013AC00064D044608462A6001F0D6F9431C00D0CD
:1013BC0038BD2B68002BFBD0236038BD9400002077
:1013CC0010B50C46B1F90E1000F0F2FB002803DB4F
:1013DC00636D0344636510BDA38923F48053A3811B
:1013EC0010BD00BF002070472DE9F0410C46B1F94B
:1013FC000C101F46CB05054616460BD421F4805124
:10140C00A1813B4632462846B4F90E10BDE8F041A6
:10141C0000F080B8B4F90E100223002200F0C2FADA
:10142C00B4F90C10EAE700BF10B50C46B1F90E1078
:10143C0000F0B8FAA389421C0EBF23F4805343F486
:10144C0080536065A38110BDB1F90E1000F0FAB89D
:10145C00F8B506460D46144608B1836943B3254BCF
:10146C009C422AD0244B9C4229D0244B9C4208BF3E
:10147C00F468A269A389A2601A0722D5236903B371
:10148C0022686169D31AEDB299422F4629DD0133E6
:10149C00A1680139A160511C2160157062699A42E2
:1014AC0016D0A389DB0701D50A2D11D03846F8BD1B
:1014BC00FFF734FA0F4B9C42D4D17468D9E7B46867
:1014CC00D7E72146304600F03BF838B92369D7E717
:1014DC0021463046FFF7C0F80028E7D04FF0FF3721
:1014EC00E4E721463046FFF7B7F80028F6D1012390
:1014FC002268CDE778500008585000083850000892
:10150C0003460A46024908681946FFF7A1BF00BF07
:10151C000000002038B50C46114600228446074DC9
:10152C0020462A601A46644601F04AF9431C00D052
:10153C0038BD2B68002BFBD0236038BD94000020F5
:10154C003C4B70B51D6806460C460DB1AB69E3B15A
:10155C00394B9C421FD0394B9C424DD0384B9C424E
:10156C0008BFEC68B4F90C3018079AB219D5216988
:10157C0011B312F001002FD000256069A560404224
:10158C00A06100292ED0002070BD2846FFF7C6F9B7
:10159C00294B9C42DFD16C68B4F90C3018079AB215
:1015AC00E5D4D1063ED5520728D4216943F008036F
:1015BC00A3819AB20029DCD102F42070B0F5007F2F
:1015CC00D7D021463046FFF70DFAB4F90C3021691B
:1015DC009AB212F00100CFD1950758BF6069A06094
:1015EC000029D0D1120658BF0846CDD543F0400390
:1015FC004FF0FF30A38170BDAC68B3E7616B51B1A4
:10160C0004F14402914204D03046FFF789FAB4F950
:10161C000C30002262630022216923F02403C4E908
:10162C000012C3E7092243F0400332604FF0FF3051
:10163C00A38170BD000000207850000858500008AD
:10164C0038500008002238B5064D044608462A607A
:10165C0001F0C4F8431C00D038BD2B68002BFBD024
:10166C00236038BD9400002070B50026074D044659
:10167C00084611462E6001F0B4F8431C00D070BD32
:10168C002B68002BFBD0236070BD00BF94000020A2
:10169C009368002B00F0B7802DE9F04FB1F90C30B6
:1016AC000C4619078046174683B098B225D5236996
:1016BC001BB310F002033D682DD04FF0000B5E46BB
:1016CC00DFF8B8A2002E00F08B80564533465A4600
:1016DC0028BF53464046216AD4F828C0E04700286A
:1016EC0040F38780BB6883441B1A361ABB60002BFF
:1016FC00E8D1002003B0BDE8F08F21464046FFF74B
:10170C001FFF002840F03681B4F90C303D6898B2C8
:10171C0010F00203D1D110F0010976D14E46002E03
:10172C005AD08205D4F808B040F1B580B3455A467A
:10173C0000F2CD8010F4906F00F0CB80236821690B
:10174C00A3EB010B636903EB430A0AEBDA7A0BF1A7
:10175C0001034FEA6A0A33445345524684BF9A4602
:10176C005246430540F1EA8011464046FFF73EFAE7
:10177C00002800F0F9805A4621690190FEF72EFDF1
:10178C00A289019B22F4906242F08002A28103EBB9
:10179C000B0023613246AAEB0B03B346C4F814A02A
:1017AC00A3602060B24600264946019200F058F929
:1017BC00A3682168019AA3EB0B030A44A36022607F
:1017CC00B868D144A0EB0A00B860002891D0B4F9F5
:1017DC000C0080B2002EA4D1D5E9009608359EE706
:1017EC00D5E900B608356DE721464046FEF734FFD3
:1017FC0080B3B4F90C304FF0FF3043F04003A381B9
:10180C0003B0BDE8F08F002070471E46AA469946EB
:10181C0018461D4656B3002832D04A462068216926
:10182C00B24228BF32468842636904D9A16803EBEF
:10183C00010B5A4574DC934265DC2A464046216A0A
:10184C00D4F828C0E047B0F1000BD2DDB9EB0B099E
:10185C00CAD00120BB685D44A3EB0B03A6EB0B06BF
:10186C00BB60002B3FF445AF002ED4D10AF1080326
:10187C0053F8046C9A4653F8085C0833002EF7D0E2
:10188C0032460A21284600F0A3F8002869D001301E
:10189C00A0EB0509C1E72068236998421BD863694E
:1018AC00B34218D86FF0004CB44528BFB4469CFB2B
:1018BC00F3FC4A4603FB0CF34046216AD4F828C0DB
:1018CC00E047B0F1000A94DDA6EB0A0678E7B346D0
:1018DC003246206866E7B345DA4628BFB246494629
:1018EC00524600F0BDF8A3682268A3EB0A035244E9
:1018FC00A3602260002BE7D121464046FEF7ACFEE8
:10190C000028E1D075E729469346019200F0A8F82B
:10191C00A368019A9B1AA36023681A44226095E776
:10192C0029465A4600F09CF8236821465B44404601
:10193C002360FEF791FE002888D05AE7404600F05D
:10194C000FF9034600287FF422AF40462169FFF7C8
:10195C00E7F80C22B4F90C30C8F8002023F080030F
:10196C0049E7721C914659E70C22B4F90C30C8F8BF
:10197C00002040E74FF0FF30BCE600BF00FCFF7FCB
:10198C00002238B5064D044608462A6000F02EFFAA
:10199C00431C00D038BD2B68002BFBD0236038BD16
:1019AC009400002038B50C46114600228446074DA1
:1019BC0020462A601A46644600F01AFF431C00D0E9
:1019CC0038BD2B68002BFBD0236038BD9400002061
:1019DC005FFA81FC810710D00346511E2AB90AE038
:1019EC009A0718460AD0013905D3184613F8012B6B
:1019FC006245F5D1704700207047114603290CD879
:101A0C000029F8D00346014401E08B42F3D018467C
:101A1C0013F8012B6245F8D1ECE7024610B54CEAFD
:101A2C000C2444EA04441046036804326340A3F1D6
:101A3C00013E2EEA030313F0803F04D1043903293D
:101A4C001046F0D851B10346014401E08B4205D059
:101A5C00184613F8012B6245F8D110BD002010BDBB
:101A6C0088420DD98B1883420AD900EB020CBAB10B
:101A7C00624613F801CD994202F801CDF9D17047B5
:101A8C000F2A0ED8034602F1FF3C4AB10CF1010CAF
:101A9C00013B8C4411F8012B614503F8012FF9D15E
:101AAC00704740EA01039B074FD1A2F1100370B5B8
:101ABC0001F1200C23F00F0501F1100E00F11004C0
:101ACC00AC441B095EF8105C0EF1100E44F8105C6F
:101ADC005EF81C5C103444F81C5C5EF8185C44F82E
:101AEC00185C5EF8145CE64544F8145CEAD10133EA
:101AFC0012F00C0F01EB031102F00F0400EB0313B7
:101B0C0027D08E46043C24F003064FEA940C1E4466
:101B1C001C1F5EF8045B44F8045FB442F9D10CF16D
:101B2C00010402F0030203EB840301EB840102F1D4
:101B3C00FF3C4AB10CF1010C013B8C4411F8012B18
:101B4C00614503F8012FF9D170BD034602F1FF3C4A
:101B5C009CE72246EBE700BF704700BF704700BF11
:101B6C00F8B51446F9B1CAB106460D4600F036F880
:101B7C00A04202D32F463846F8BD21463046FFF727
:101B8C0035F807460028F6D022462946FEF726FBF4
:101B9C0030462946FEF7C4FF3846F8BD2746FEF707
:101BAC00BFFF3846F8BD1146BDE8F840FFF71EB838
:101BBC0038B50C46114600228446074D20462A6053
:101BCC001A46644600F0ECFD431C00D038BD2B686F
:101BDC00002BFBD0236038BD9400002051F8040C7E
:101BEC000028A0F10400BCBF0B58C018704700BF00
:101BFC0053B94AB9002908BF00281CBF4FF0FF3168
:101C0C004FF0FF3000F076B9ADF1080C6DE904CE61
:101C1C0000F006F8DDF804E0DDE9022304B07047BB
:101C2C002DE9F047089E0D4604468846002B4DD101
:101C3C008A42944668D9B2FA82F252B101FA02F39E
:101C4C00C2F1200120FA01F10CFA02FC41EA03086E
:101C5C0094404FEA1C41B8FBF1F71FFA8CFE01FBD4
:101C6C00178807FB0EF0230C43EA084398420AD965
:101C7C001CEB030307F1FF3580F01E81984240F204
:101C8C001B81023F63441B1AB3FBF1F001FB1033C1
:101C9C0000FB0EFEA4B244EA0344A6450AD91CEB91
:101CAC00040400F1FF3380F00981A64540F206815F
:101CBC00644402380021A4EB0E0440EA07401EB134
:101CCC000023D440C6E90043BDE8F0878B4208D915
:101CDC00002E00F0EE800021C6E900050846BDE8A4
:101CEC00F087B3FA83F100294AD1AB4202D3824286
:101CFC0000F2FC80841A65EB030301209846002E49
:101D0C00E2D0C6E90048DFE702B9FFDEB2FA82F2A0
:101D1C00002A40F09180A1EB0C0001214FEA1C47F6
:101D2C001FFA8CFEB0FBF7F307FB1300250C45EAFA
:101D3C0000450EFB03F0A84208D91CEB050503F186
:101D4C00FF3802D2A84200F2CE8043462D1AB5FBD2
:101D5C00F7F007FB10550EFB00FEA4B244EA054455
:101D6C00A64508D91CEB040400F1FF3502D2A645A8
:101D7C0000F2B6802846A4EB0E0440EA03409EE72E
:101D8C00C1F120078B4022FA07FC4CEA030C25FA20
:101D9C0007FA4FEA1C49BAFBF9F820FA07F309FBDA
:101DAC0018AA8D401FFA8CFE1D4300FA01F308FBA4
:101DBC000EF02C0C44EA0A44A04202FA01F20BD9B0
:101DCC001CEB040408F1FF3A80F08880A04240F23A
:101DDC008580A8F102086444241AB4FBF9F009FBCD
:101DEC00104400FB0EFEADB245EA0444A64508D9EA
:101DFC001CEB040400F1FF356CD2A6456AD90238FD
:101E0C00644440EA0840A0FB0295A4EB0E04AC42EB
:101E1C00C846AE4656D353D0002E69D0B3EB080259
:101E2C0064EB0E0422FA01F304FA07F71F43CC40CB
:101E3C00C6E90074002147E70CFA02FCC2F120014C
:101E4C0025FA01F34FEA1C4720FA01F195400D43A6
:101E5C00B3FBF7F107FB11331FFA8CFE280C40EA99
:101E6C00034001FB0EF3834204FA02F408D91CEB85
:101E7C00000001F1FF382FD283422DD90239604482
:101E8C00C01AB0FBF7F307FB1300ADB245EA0045EF
:101E9C0003FB0EF0A84208D91CEB050503F1FF3833
:101EAC0016D2A84214D9023B6544281A43EA0141D0
:101EBC0038E73146304607E72F46E4E61846F9E6A0
:101ECC004B45A9D2B9EB020865EB0C0E0138A3E720
:101EDC004346EAE7284694E74146D1E7D0467BE7FC
:101EEC006444023847E7023B65442FE7084606E79F
:101EFC003146E9E6704700BF10B50A4C22780A4B10
:101F0C0003EBC203D3E9000100F056FE2278013244
:101F1C00064B83FB02135B11642101FB132323701B
:101F2C0010BD00BF98000020205200081F85EB5107
:101F3C0010B58CB01F4C204B2360642363601F4B87
:101F4C00A3600123E360002020746074A374E07428
:101F5C0020750722A2610622E26184F8203084F801
:101F6C00210084F8220084F8230084F82400A06265
:101F7C00E06284F8300084F8310084F832300223B7
:101F8C006363A06300F004FFEC4604F1100EBEE89E
:101F9C000F00ACE80F00BEE80F00ACE80F009EE8A5
:101FAC0007008CE8070094E80F0000F029FE0CB045
:101FBC0010BD00BF9C00002040787D0180C8B30894
:101FCC002DE9F04393B0002402943C22214603A84F
:101FDC00FEF77AF9504F4FF00108CDF8048002ADAE
:101FEC000095234622462146384600F027FF9DF8EF
:101FFC0008104A48FEF7D0F94026324621462846BA
:10200C00FEF762F9CDF804800095234622460221A2
:10201C00384600F013FF9DF808104148FEF7BCF954
:10202C00324621462846FEF74FF9CDF8048000953C
:10203C00234622460421384600F000FF9DF8081084
:10204C003848FEF7A9F9324621462846FEF73CF9F6
:10205C00CDF804800095234622460521384600F031
:10206C00EDFE9DF808103048FEF796F932462146F1
:10207C002846FEF729F9CDF8048000952346224620
:10208C000621384600F0DAFE9DF808102748FEF7C6
:10209C0083F9324621462846FEF716F94FF005091A
:1020AC00CDF804900095234622460A21384600F0CC
:1020BC00C5FE039A02991E48FEF76EF93246214678
:1020CC002846FEF701F9CDF80490009523462246E8
:1020DC001121384600F0B2FE9DF808101548FEF7A5
:1020EC005BF9324621462846FEF7EEF8CDF804801F
:1020FC000095234622461D21384600F09FFE9DF890
:10210C0008100D48FEF748F9324621462846FEF7DE
:10211C00DBF813B0BDE8F0833001002098500008C4
:10212C00A8500008C4500008D8500008EC50000813
:10213C00FC500008285100083851000800B583B045
:10214C0001904FF0FF33012201A9034802F0B6FEC3
:10215C00019803B05DF804FB8402002072B6FEE720
:10216C0000B591B02822002106A8FEF7ADF8002397
:10217C0001930293039304930593012206924FF467
:10218C00803307934FF4003108910A9202220D928A
:10219C000E934FF4E0130F9306A801F05FFB80B988
:1021AC000F23019302210291002303934FF48062C9
:1021BC000492059301A801F089FD20B911B05DF8D6
:1021CC0004FBFFF7CBFFFFF7C9FF00002DE9F04F31
:1021DC00BFB001F0F5FAB84B18680023022219467B
:1021EC008068FEF7F3F8FFF7BBFF00F07FF900F013
:1021FC00D9F900F09BFE00F0F7F902F037FA02F083
:10220C0049FDAE4C01221021204601F054FF012261
:10221C004FF48061204601F04EFF0121204601F071
:10222C0043FF0746012800D00227FFF781FE01205B
:10223C0000F0AEFD01224FF48071A04801F03BFF8D
:10224C00DFF87C8234AC45460FCD0FC40FCD0FC4E4
:10225C0095E8030084E803009A4C34A9204602F068
:10226C000FFB204602F092FB2EAC08F128050FCD97
:10227C000FC495E8030084E8030000262C962D96E5
:10228C002A962B962396249625962696279628965C
:10229C00299622961A961B961C961D961E961F968C
:1022AC0020962196189619963F258DF86850864CE5
:1022BC0001231AAA2021204600F086FD4FF4FA7063
:1022CC0001F0A2FA8DF8685001231AAA20212046A9
:1022DC0000F07AFD08238DF8683001231AAA312109
:1022EC00204600F071FDB8F84030ADF85C3017A90D
:1022FC00204600F0FAFD33463246E221204600F03B
:10230C0063FDFFF75DFE354604E0B94225D00120A0
:10231C0000F03EFD012000F03BFD6C48FEF73CF860
:10232C000021684802F0A3FC0028F9D06848FEF7A9
:10233C0033F82AAB23AA0021624802F0E3FB9DF894
:10234C00A810BDF88C3040F201129342DDD0B3F5E9
:10235C00817FDCD100252E46D9E7002000F018FD46
:10236C005C4801F049FF002107913C2208A8FDF7C9
:10237C00ABFF01F043FA804601F040FAA0EB0804F1
:10238C005548FEF709F803E001F038FAA0EB080411
:10239C004D4800F097FD10F0400F03D141F2873308
:1023AC009C42F1D94D48FDF7F7FF002305930693A6
:1023BC0041F287339C422FD94948FDF7EDFF4FF08E
:1023CC000108444801F04CFF012000F0E1FC16B973
:1023DC009DF8145001269DF81440AC4297D1414809
:1023EC00FDF7DAFFBDF81530ADF8B030BDF9173098
:1023FC00ADF8B2308DF8B4708DF8B5408DF8B6806C
:10240C00304802F066FB0028FAD022AB2CAA2EA989
:10241C002C4802F0E9FA7AE74FF0000AD146D04690
:10242C002DE09DF81420BDF81510BDF91700029091
:10243C00019100924A4641462B48FDF7ADFF0DF144
:10244C001C0B4024224600215846FDF73DFF8DF819
:10245C0068401D4C01231AAA2721204600F0B4FC29
:10246C0001230193CDF800B000231A461721204612
:10247C0000F0E4FC9DF81C3013F0010F18D1092377
:10248C00019307AC009400231A4661210E4800F01A
:10249C00D5FC08F1010805AB94E8030083E80300C0
:1024AC00BDF819305345BCD009F101099A46B8E77B
:1024BC004FF0000885E700BF000000200008014035
:1024CC00F04F00085C020020300100204851000849
:1024DC005C510008100200206C510008805100086B
:1024EC00F051000804520008905100082DE9F04109
:1024FC0088B000240494059406940794264B9A699A
:10250C0042F020029A619A6902F020020192019A2B
:10251C009A6942F004029A619A6902F004020292EA
:10252C00029A9A6942F008029A619B6903F00803C7
:10253C000393039B194E22464FF4A261304601F0DF
:10254C00BAFD174F22464FF48051384601F0B3FDC7
:10255C00012504950594069504A9304601F092FCDA
:10256C004FF4A2630493059506944FF00208CDF83E
:10257C001C8004A9304601F085FC4FF48053049371
:10258C0005950694CDF81C8004A9384601F07AFC18
:10259C0008B0BDE8F08100BF001002400008014007
:1025AC00000C014008B50E480E4B03604FF48273CB
:1025BC00436000238360C360036143614FF4007286
:1025CC0082610822C2610362436283620A23C3628E
:1025DC0000F0B8FD00B908BDFFF7C0FDFBE700BF78
:1025EC00D80000200030014008B50D480D4B0360A9
:1025FC004FF48273436000238360C36003614361C3
:10260C004FF400728261C3610362436283620A23E6
:10261C00C36200F097FD00B908BDFFF79FFDFBE713
:10262C00300100200038004010B588B0002304931E
:10263C000593069307930368274A934204D0274ACD
:10264C0093421FD008B010BD254B9A6942F48052BA
:10265C009A619A6902F480520092009A9A6942F047
:10266C0004029A619B6903F004030193019BA0236C
:10267C000493022305930323079304A9194801F03B
:10268C0001FCDFE7164BDA6942F48042DA61DA6961
:10269C0002F480420292029A9A6942F008029A610C
:1026AC009B6903F008030393039B4FF420430493AB
:1026BC0002230593032307930B4C04A9204601F036
:1026CC00E1FB4FF48043049300230593069304A984
:1026DC00204601F0D7FBB5E7003001400038004040
:1026EC000010024000080140000C0140FEE7FEE72C
:1026FC00FEE7FEE7FEE770477047704708B501F04C
:10270C0071F808BD08B5024801F0C7FD08BD00BF4F
:10271C001002002082B00E4B9A6942F001029A61BD
:10272C009A6902F001020092009ADA6942F0805232
:10273C00DA61DB6903F080530193019B054A53680E
:10274C0023F0E06343F00073536002B0704700BFA6
:10275C00001002400000014010B503460C4A0D4920
:10276C000D48006840B10C4800680344521A93426B
:10277C0006D8094A136010BD0748084C0460F2E7FC
:10278C00FDF702FD0C2303604FF0FF30F3E700BFB1
:10279C00005000200004000088010020D00200201E
:1027AC0070B50C461646002506E0AFF300802146B6
:1027BC0001F8010B01350C46B542F6DB304670BD15
:1027CC0070B50C461646002504E014F8010BFFF713
:1027DC00B5FC0135B542F8DB304670BD4FF0FF302B
:1027EC0070474FF400534B60002070470120704736
:1027FC000020704710B5064C00221021204601F035
:10280C005AFC00224FF48061204601F054FC10BDAC
:10281C000008014010B5064C01221021204601F0A1
:10282C004AFC01224FF48061204601F044FC10BDAB
:10283C000008014000B583B08DF807004FF47A739F
:10284C0001220DF10701034800F0D7FC03B05DF83D
:10285C0004FB00BFD8000020F0B583B0070E8DF844
:10286C000470C0F307468DF80560C0F307258DF89A
:10287C000650C4B28DF80740FFF7BCFF3846FFF78F
:10288C00D9FF3046FFF7D6FF2846FFF7D3FF204687
:10289C00FFF7D0FFFFF7BEFF002003B0F0BD70B50F
:1028AC0005460026052414E094B98EB11FE0264697
:1028BC0020436865FFF7D0FF00281FDB04F10803F5
:1028CC0005EB83035A6804F10E0305EB83035A608E
:1028DC00013C002C11DB04F10E0305EB83035A6859
:1028EC0004F1080305EB830358688242DCD0012C09
:1028FC00DDD0042CDCD10126DAE7002070BD00000D
:10290C0010B4844604680BE0012211E0012200FBA4
:10291C0002F2B3FBF2F3CCF80C300A4A93420FD913
:10292C00013189B2DCF80430A27C002AECD00222FE
:10293C0002FB03F30846E27C002AE7D00222E6E71A
:10294C0010BC70470048E80184460B46814228BF02
:10295C00034600E0013B1846BCFBF3F203FB12C23A
:10296C00002AF7D1B1FBF3F203FB1212002AF1D1CA
:10297C00704700002DE9F04F87B0924699460368E6
:10298C000493864BD31869F10002854999424FF0A4
:10299C0001039341C0F0FE800546824B53454FF036
:1029AC00000373EB090307D24B2303934FF000632F
:1029BC00059300232B620BE017230393002305934D
:1029CC00F7E71AEB0A0A49EB09092B6A01332B6268
:1029DC00754B53454FF0000373EB0903F1D2049B85
:1029EC001C8A0CB1013CA4B2D5F8088024E01CB3BD
:1029FC004FF0000BA6FB0A0106FB0911012F94BF37
:102A0C0000230123C0183A465B4641F10001FFF751
:102A1C00EFF80090019132465B46FFF7E9F802921D
:102A2C006A6132465B4600980199FFF7E1F88346EC
:102A3C00A861039B984214D221462846FFF760FFF9
:102A4C0084B2EF68B7FBF8F6EE61B4F5806F02D391
:102A5C0008F101080024B6F5805FC8D3002CEBD137
:102A6C00C5E7524BA3FB0723DB0B514A02FB137345
:102A7C004FF22442934215D94C4BA3FB0737C7F3B3
:102A8C00C7370137FFB2029B93B18EB198461946F6
:102A9C003046FFF759FFB6FBF0F6EE61B8FBF0F0ED
:102AAC00686109E0414BA3FB0737C7F3C737EAE777
:102ABC0000236B610123EB613E4A02EACB396A6960
:102ACC0047F6F87303EAC20249EA02026A62EA694B
:102ADC0003EAC203059A134343F40043AB62A30316
:102AEC0043F40053049A927C002A4CD04FF00072AD
:102AFC001343049AD27C002A47D04FF080721343C0
:102B0C0004994A6922F0434222F47F0222F4604283
:102B1C0022F03F021343EB628B6923F07F4323F4D3
:102B2C00780323F4004323F007032B632A6A3B0347
:102B3C0043EA0253CA6902F4FB62134343F40003F1
:102B4C0043F020036B634FF4B003AB632846FFF7ED
:102B5C00A6FE011E1BDBA869EA69696902FB00116C
:102B6C00E8682D6AA5F12004C5F1200302FA04F4EB
:102B7C0022FA03F3AA402343A1FB0001FFF738F824
:102B8C0007B0BDE8F08F0022B2E70022B7E7084695
:102B9C00C917F5E74FF0FF300146F1E7A87AF3FDCE
:102BAC00A8263604005ED0B2FF55218383DE1B437A
:102BBC0048E801000080FF7F08B502460B4602483A
:102BCC00FFF7D8FE08BD00BF8C0100206FF000435A
:102BDC00984201D0024B9860014B9868704700BF37
:102BEC008C01002000F1004301330B4301D0034B57
:102BFC005860024B58680021704700BF8C010020C0
:102C0C0084B038B504AC84E80F005E4B5E4A1360A8
:102C1C0018605960069A9A600022DA60079A1A8244
:102C2C009DF820209A749DF82120DA749DF82230AA
:102C3C00002B00F090804023524A53619DF82320D2
:102C4C00002A00F08A80802213434E4A53619DF87B
:102C5C002420002A00F083804FF4807213434949EA
:102C6C004B610A9AA2F59C72D208484CA4FB024212
:102C7C009208520202F4F05213434B610B9A43EA4E
:102C8C0082634B619DF83020002A6AD04FF0C0421D
:102C9C0013433C4A53619DF83130002B63D04FF401
:102CAC008023384A93619DF83220002A5DD04FF47E
:102CBC0000121343334A93619DF83320002A56D0F7
:102CCC004FF4800213432F4A93619DF83420002A5D
:102CDC004FD04FF4000213432A4A93610E9943EAF2
:102CEC00C10393610F9943EA014393619DF840300E
:102CFC00002B40D04FF48073224AD3619DF84120C1
:102D0C00002A3AD04FF4007213431E4AD3619DF847
:102D1C004220002A33D04FF480621343194AD36106
:102D2C00119943EAC103D361129943EA8113D36128
:102D3C0000242146FFF756FF134D2B685868FFF708
:102D4C0045FF2B68D3E90201FFF736FF2046BDE8AB
:102D5C00384004B0704700236EE7002274E700226D
:102D6C007CE7002294E700239BE70022A1E70022E6
:102D7C00A8E70022AFE70023BEE70022C4E7002249
:102D8C00CBE700BFE80100208C0100201BA4411AF6
:102D9C0010B50446012805D064B10A4BD86A00F07E
:102DAC00200010BD0748C36A43F02003C362FFF73D
:102DBC0076FDF1E70348C36A23F02003C362FFF7F3
:102DCC006EFDEAE78C0100202DE9F04190B007463A
:102DDC000E4615461C46002100913C2201A8FDF729
:102DEC0073FA202C26D88DF800602DB12246294686
:102DFC000DF10100FDF7F2F9DFF83C8000224FF4F1
:102E0C008051404601F057F9C823621C6946384688
:102E1C0000F0F3F9064601224FF48051404601F0D0
:102E2C004AF9224600212846FDF74EFA304610B0EA
:102E3C00BDE8F0810126F9E7000C01402DE9F041D5
:102E4C0090B080460C4616461D46002100913C224F
:102E5C0001A8FDF739FA202D30D88DF800402EB19D
:102E6C002A4631460DF10100FDF7B8F9144F002246
:102E7C004FF48051384601F01EF9C8236A1C69468C
:102E8C00404600F0BAF940F00104E4B2C8239DF8C2
:102E9C005C201699404600F0AEFB0443E4B20122DC
:102EAC004FF48051384601F006F92A46002130468D
:102EBC00FDF70AFA204610B0BDE8F0810124F9E7CD
:102ECC00000C014000B585B000228DF80F200123C5
:102EDC0001930DF10F03009313460721FFF7AEFF8B
:102EEC009DF80F0005B05DF804FB30B591B00446B9
:102EFC000D46002100913C2201A8FDF7E5F92B7845
:102F0C00C3F3400103F001036A785200D2B2DB0034
:102F1C0043EA411313438DF8003001236A462621FE
:102F2C002046FFF751FF11B030BD000000B587B04F
:102F3C000023029303930493059300930193164883
:102F4C004FF08042026040F2E7324260836041F60B
:102F5C001F42C2600361836101F096FA90B94FF48D
:102F6C008053029302A90C4801F0C6FA68B90023F9
:102F7C00009301936946084801F03EFB40B907B045
:102F8C005DF804FBFFF7EAF8E9E7FFF7E7F8EEE78F
:102F9C00FFF7E4F8F3E700BF100200200368B3F179
:102FAC00804F00D0704700B583B003F50433DA6965
:102FBC0042F00102DA61DB6903F001030193019B2A
:102FCC00002211461C2001F08FF81C2001F0C4F8DF
:102FDC0003B05DF804FB00002DE9F04782B0054614
:102FEC00884617461E4600F009FC0A9B1B1A03EB89
:102FFC00060900F003FC82462B4B1B68C3F3CB3352
:10300C0009FB03F301932B689C6838EA04030CBF9B
:10301C004FF0010C4FF0000CBC4540D0B6F1FF3F17
:10302C00F1D000F0EBFBA0EB0A0048450AD2B9F155
:10303C00000F07D0019A02B14A46019B013B019354
:10304C009146E0E72A68536823F0E00353606B680D
:10305C00B3F5827F0BD0AB6AB3F5005F14D00123BC
:10306C0085F85130002385F85030032018E0AB6808
:10307C00B3F5004F02D0B3F5806FECD12A6813681A
:10308C0023F040031360E6E72A68136823F4005327
:10309C0013602A68136843F400531360DFE70020C1
:1030AC0002B0BDE8F08700BF6C00002010B582B004
:1030BC0004460B46009200228021FFF78DFF08B9D1
:1030CC0002B010BD636D43F0200363650320F7E786
:1030DC0010B582B004460B464168B1F5827F10D022
:1030EC006168B1F5827F03D1A168B1F5806F15D00D
:1030FC000092002280212046FFF76EFFE0B902B05B
:10310C0010BD8168B1F5004F02D0B1F5806FE7D1E9
:10311C002068016821F040010160E1E70092002283
:10312C0001212046FFF758FF0028E8D0636D43F0DB
:10313C00200363650320E2E7636D43F020036365BE
:10314C000320DCE7002856D010B50446436A33B997
:10315C004368B3F5827F05D00023C36102E00023EE
:10316C00036143610023A36294F85130002B3CD0DF
:10317C00022384F851302268136823F04003136053
:10318C00636803F48273A26802F404421343E26896
:10319C0002F400621343226902F0020213436269D3
:1031AC0002F001021343A26902F400721343E269B4
:1031BC0002F038021343226A02F080021343A26A1F
:1031CC0002F40052216813430B60638B226803F0F6
:1031DC00040353602268D36923F40063D361002095
:1031EC006065012384F8513010BD84F850302046BE
:1031FC00FFF71AFABCE7012070472DE9F04383B0C2
:10320C001D4690F85030012B00F0D18004468846C2
:10321C009146012380F8503000F0F0FA074694F8FC
:10322C005160F6B2012E40F0BA80B8F1000F00F0F8
:10323C00B780B9F1000F00F0B380032384F851304C
:10324C0000236365C4F83080A4F83490A4F8369059
:10325C00A363A387E38763642364A368B3F5004F78
:10326C001ED023681A6812F0400F03D11A6842F07E
:10327C0040021A60E368B3F5006F1CD0636813B1A9
:10328C00B9F1010F55D1226B236812781A73236B95
:10329C0001332363E38E9BB2013B9BB2E38648E090
:1032AC002268136823F0400313602268136843F408
:1032BC0080431360D5E7636813B1B9F1010F15D1E1
:1032CC00226B23681288DA60236B02332363E38E4C
:1032DC009BB2013B9BB2E38608E000F08FFAC01B67
:1032EC00A84202D3B5F1FF3F15D1A5B1E38E9BB235
:1032FC00002B3CD023689A6812F0020FEDD0226BA1
:10330C001288DA60236B02332363E38E9BB2013B9A
:10331C009BB2E386EAE7012384F8513003263FE0B1
:10332C0000F06CFAC01BA84202D3B5F1FF3F19D1D3
:10333C00C5B1E38E9BB2D3B123689A6812F0020F29
:10334C00EED0226B12781A73236B01332363B4F81B
:10335C0036C01FFA8CFC0CF1FF3C1FFA8CFCA4F855
:10336C0036C0E6E7012384F85130032618E03A46CC
:10337C0029462046FFF79AFE08B120236365A3680F
:10338C0033B901932368DA6801929B680193019B1E
:10339C00636D2BB9012384F85130002600E002261E
:1033AC00002384F85030304603B0BDE8F083022689
:1033BC00F9E72DE9F04383B01F460A9D90F8503091
:1033CC00012B00F01681044688469146012380F8B3
:1033DC00503000F013FA064694F85130DBB26268B4
:1033EC00012B0AD0B2F5827F40F0F080A268002A4F
:1033FC0040F0F380042B40F0F280B8F1000F00F0A5
:10340C00F080B9F1000F00F0EE80002F00F0ED809D
:10341C0094F85130DBB2042B02D0052384F85130E0
:10342C0000236365C4F83890E787A787C4F8308019
:10343C00E786A7862364636423681A6812F0400F3A
:10344C0003D11A6842F040021A60E368B3F5006FCA
:10345C0011D063680BB1012F0BD1226B236812784A
:10346C001A73236B01332363E38E9BB2013B9BB234
:10347C00E38601276EE063680BB1012F0BD1226B41
:10348C0023681288DA60236B02332363E38E9BB2CA
:10349C00013B9BB2E38601271BE023689A6812F07C
:1034AC00010F0ED0E28F92B25AB1DA68A36B1A8078
:1034BC00A36B0233A363E38F9BB2013B9BB2E38705
:1034CC00012700F09BF9801BA84202D3B5F1FF3F06
:1034DC001ED1E38E9BB21BB9E38F9BB2002B5CD049
:1034EC0023689A6812F0020FD7D0E28E92B2002AAB
:1034FC00D3D0002FD1D0226B1288DA60236B023329
:10350C002363E38E9BB2013B9BB2E3860027C4E7A7
:10351C00012384F85130032059E023689A6812F093
:10352C00010F0ED0E28F92B25AB1DA68A36B1A7007
:10353C00A36B0133A363E38F9BB2013B9BB2E38785
:10354C00012700F05BF9831BAB4202D3B5F1FF3FBF
:10355C001ED1EDB1E38E9BB213B9E38F9BB2E3B1F5
:10356C0023689A6812F0020FD7D0E28E92B2002A2A
:10357C00D3D0002FD1D0226B12781A73236B013366
:10358C002363E38E9BB2013B9BB2E3860027C4E727
:10359C00012384F85130032019E032462946204695
:1035AC00FFF784FD70B9A36833B901932368DA6817
:1035BC0001929B680193019B636DC3B9012384F84D
:1035CC00513004E020236365012000E00220002339
:1035DC0084F8503003B0BDE8F0830220F7E70220F6
:1035EC00F5E70120F3E70120F1E70120EFE70120E7
:1035FC00EDE70220EEE72DE9F04383B0044690F8A6
:10360C005160F6B2012E40F0AB80884691461D46C3
:10361C004368B3F5827F32D094F85030012B00F020
:10362C00A780012384F8503000F0E8F80746B8F181
:10363C00000F00F09680B9F1000F00F09280042387
:10364C0084F8513000236365C4F83880A4F83C90AA
:10365C00A4F83E902363A386E38623646364A36883
:10366C00B3F5004F18D023681A6812F0400F03D13D
:10367C001A6842F040021A60E3680BB343E08368B7
:10368C00002BC9D1042380F85130009513460A460B
:10369C00FFF78FFE064667E02268136823F04003AD
:1036AC0013602268136823F480431360DBE700F097
:1036BC00A5F8C01BA84202D3B5F1FF3F15D1A5B1A7
:1036CC00E38F9BB2002B3CD023689A6812F0010F59
:1036DC00EDD0A26B1B7B1370A36B0133A363E38F41
:1036EC009BB2013B9BB2E387EAE7012384F851309C
:1036FC00032636E000F082F8C01BA84202D3B5F1D5
:10370C00FF3F19D1C5B1E38F9BB2D3B123689A683F
:10371C0012F0010FEED0DA68A36B1A80A36B0233A0
:10372C00A363B4F83EC01FFA8CFC0CF1FF3C1FFAEB
:10373C008CFCA4F83EC0E6E7012384F85130032644
:10374C000FE03A4629462046FFF7C2FC08B1202379
:10375C006365636D2BB9012384F85130002600E0BA
:10376C000226002384F85030304603B0BDE8F083C5
:10377C000226F9E710B504460E4B18784FF47A730D
:10378C00B3FBF0F30C4A1068B0FBF3F000F0F2FC62
:10379C0068B90F2C01D901200AE0002221464FF014
:1037AC00FF3000F0A1FC054B1C60002000E0012064
:1037BC0010BD00BF640000206C00002068000020D9
:1037CC0008B5074A136843F010031360032000F098
:1037DC0079FC0F20FFF7CEFFFEF79CFF002008BD01
:1037EC0000200240034A1168034B1B780B44136002
:1037FC00704700BF5802002064000020014B18687D
:10380C00704700BF5802002038B50446FFF7F6FF9A
:10381C000546B4F1FF3F02D0044B1B781C44FFF764
:10382C00EDFF401BA042FAD338BD00BF640000205E
:10383C0082B0084B1B68084AA2FB03235B0A00FBFF
:10384C0003F3019300BF019B5A1E0192002BF9D187
:10385C0002B070476C000020D34D6210002800F0BD
:10386C00F18170B582B00446036813F0010F2CD0BF
:10387C00994B5B6803F00C03042B1DD0964B5B68D3
:10388C0003F00C03082B12D06368B3F5803F41D0D2
:10389C00002B55D103F1804303F504331A6822F44D
:1038AC0080321A601A6822F480221A6037E08A4B40
:1038BC005B6813F4803FE7D0874B1B6813F4003F21
:1038CC0003D06368002B00F0BF81236813F0020F54
:1038DC0075D0814B5B6813F00C0F5FD07E4B5B682F
:1038EC0003F00C03082B54D02369002B00F08A80C2
:1038FC007A4B01221A60FFF781FF0546764B1B6855
:10390C0013F0020F75D1FFF779FF401B0228F5D990
:10391C0003209EE1704A136843F48033136063689C
:10392C0043B3FFF76BFF05466B4B1B6813F4003F6B
:10393C00CBD1FFF763FF401B6428F5D9032088E146
:10394C00B3F5A02F09D0644B1A6822F480321A60A8
:10395C001A6822F480221A60E1E703F18043A3F590
:10396C003C331A6842F480221A601A6842F480329E
:10397C001A60D4E7FFF742FF0546574B1B6813F458
:10398C00003FA2D0FFF73AFF401B6428F5D9032073
:10399C005FE1514B5B6813F4803FA5D14E4B1B6824
:1039AC0013F0020F03D02369012B40F04F814A4AD8
:1039BC00136823F0F803616943EAC10313602368B9
:1039CC0013F0080F33D0A369002B5CD0434B0122BA
:1039DC00C3F88024FFF712FF05463F4B5B6A13F0D8
:1039EC00020F21D1FFF70AFF401B0228F5D9032053
:1039FC002FE1394A136823F0F803616943EAC103E4
:103A0C001360DCE7354B00221A60FFF7F7FE054622
:103A1C00314B1B6813F0020FD1D0FFF7EFFE401BA8
:103A2C000228F5D9032014E10120FFF701FF2368D8
:103A3C0013F0040F00F09680274BDB6913F0805FC6
:103A4C0034D1254BDA6942F08052DA61DB6903F03C
:103A5C0080530193019B0125214B1B6813F4807F3C
:103A6C0026D0E368012B3DD0002B53D103F18043CA
:103A7C0003F504331A6A22F001021A621A6A22F060
:103A8C0004021A6233E0154B0022C3F88024FFF7BE
:103A9C00B5FE0546104B5B6A13F0020FC7D0FFF75B
:103AAC00ADFE401B0228F5D90320D2E00025D3E758
:103ABC000B4A136843F480731360FFF79FFE0646AE
:103ACC00074B1B6813F4807FCBD1FFF797FE801B4D
:103ADC006428F5D90320BCE00010024000004242EB
:103AEC00007000405F4A136A43F001031362E368FD
:103AFC0033B3FFF783FE06465A4B1B6A13F0020FD3
:103B0C002FD1FFF77BFE801B41F288339842F3D90B
:103B1C0003209EE0052B09D0524B1A6A22F00102B9
:103B2C001A621A6A22F004021A62E0E74D4B1A6A12
:103B3C0042F004021A621A6A42F001021A62D6E7D3
:103B4C00FFF75CFE0646474B1B6A13F0020F08D0CA
:103B5C00FFF754FE801B41F288339842F3D90320BF
:103B6C0077E0E5B9E369002B72D03E4A526802F067
:103B7C000C02082A56D0022B17D03B4B00221A6697
:103B8C00FFF73CFE0446374B1B6813F0007F47D011
:103B9C00FFF734FE001B0228F5D9032059E0314A07
:103BAC00D36923F08053D361DCE72F4B00221A66D4
:103BBC00FFF724FE05462B4B1B6813F0007F06D045
:103BCC00FFF71CFE401B0228F5D9032041E0236AB5
:103BDC00B3F5803F1AD023494B6823F47413226A3F
:103BEC00606A024313434B601F4B01221A66FFF7B6
:103BFC0005FE04461B4B1B6813F0007F0ED1FFF72C
:103C0C00FDFD001B0228F5D9032022E0154A53685C
:103C1C0023F40033A1680B435360DCE7002018E069
:103C2C00002016E0012B16D00E4B5B6803F480319C
:103C3C00226A914211D103F47013626A93420ED13D
:103C4C00002006E001207047012002E0012000E086
:103C5C00002002B070BD0120FBE70120F9E7012034
:103C6C00F7E700BF0010024000004242114B5A68B7
:103C7C0002F00C03042B18D0082B18D1C2F3834389
:103C8C000D49C85C12F4803F0BD00A4B5B68C3F340
:103C9C0040430A4AD35C0A4A02FB00F0B0FBF3F043
:103CAC007047084B03FB00F0704705487047064807
:103CBC00704700BF001002404055000850550008E6
:103CCC000024F40000093D0000127A00002800F0E6
:103CDC00A08070B50D460446524B1B6803F00703D9
:103CEC008B420BD24F4A136823F007030B4313602C
:103CFC00136803F007038B4240F08D80236813F0A8
:103D0C00020F17D013F0040F04D0474A536843F442
:103D1C00E0635360236813F0080F04D0424A5368E1
:103D2C0043F460535360404A536823F0F003A16896
:103D3C000B435360236813F0010F31D06368012BE0
:103D4C0020D0022B25D0384A126812F0020F64D012
:103D5C0035494A6822F0030213434B60FFF74EFDCE
:103D6C000646314B5B6803F00C036268B3EB820FC1
:103D7C0016D0FFF743FD801B41F288339842F0D9EF
:103D8C00032045E0284A126812F4003FE0D10120DC
:103D9C003EE0254A126812F0007FD9D1012037E0AD
:103DAC00204B1B6803F00703AB420AD91D4A13686A
:103DBC0023F007032B431360136803F00703AB4294
:103DCC002DD1236813F0040F06D0174A536823F43F
:103DDC00E063E1680B435360236813F0080F07D0CE
:103DEC00114A536823F46053216943EAC1035360B9
:103DFC00FFF73CFF0C4B5B68C3F303130B4AD35C1C
:103E0C00D8400B4B18600B4B1868FFF7B3FC002025
:103E1C0070BD012070470120FAE70120F8E701206E
:103E2C00F6E700BF00200240001002405455000885
:103E3C006C00002068000020014B1868704700BF20
:103E4C006C00002008B5FFF7F7FF044B5B68C3F369
:103E5C000223034AD35CD84008BD00BF00100240C7
:103E6C006455000808B5FFF7E7FF044B5B68C3F324
:103E7C00C223034AD35CD84008BD00BF00100240E7
:103E8C006455000870B582B00024A446A6E0804DAD
:103E9C00AA4210D007D97F4DAA420CD005F5803527
:103EAC00AA4208D013E0A5F58015AA4203D005F567
:103EBC007025AA4207D18A68002A58D0012A51D00D
:103ECC004361082403E0A5F58015AA42F3D0BEF1A6
:103EDC00FF0F4ED80646BEF1FF0F4CD84FEA8C02AE
:103EEC0033680F25954023EA050304FA02F21343C5
:103EFC0033604B6813F0805F6ED0674B9A6942F069
:103F0C0001029A619B6903F001030193019B4FEA43
:103F1C009C02951C614B53F825600CF003039D002B
:103F2C000F23AB4026EA03065D4B984229D003F5DC
:103F3C008063984200F08E8003F58063984200F015
:103F4C008B8003F58063984219D004231AE0CC6867
:103F5C00BDE7CC680434BAE7CC680834B7E7CC6862
:103F6C000C34B4E703610824B1E70024AFE7042460
:103F7C00ADE7061DAFE7ACF108029200B0E70323F2
:103F8C0000E00023AB4033430232444D45F822306D
:103F9C004B6813F4801F61D0424A936843EA0E03C6
:103FAC0093604B6813F4001F5ED03E4AD36843EA1B
:103FBC000E03D3604B6813F4003F5BD0394A53684F
:103FCC0043EA0E0353604B6813F4803F58D0354AD4
:103FDC00136843EA0E0313600CF1010C0A6832FA01
:103FEC000CF353D0012303FA0CF302EA030E33EA69
:103FFC000202F1D14A68122A3FF649AF122A3FF663
:10400C0066AF01A555F822F0C33E00085B3F0008DF
:10401C00653F0008773F0008DB3E0008DB3E0008E8
:10402C00DB3E0008DB3E0008DB3E0008DB3E000800
:10403C00DB3E0008DB3E0008DB3E0008DB3E0008F0
:10404C00DB3E0008DB3E0008DB3E00085F3F00085B
:10405C006B3F0008012395E7022393E7114A93680D
:10406C0023EA0E0393609CE70E4AD36823EA0E03FF
:10407C00D3609FE70B4A536823EA0E035360A2E711
:10408C00084A136823EA0E031360A5E702B070BD5B
:10409C00000022100000311000100240000001400E
:1040AC0000080140000401408368194201D001203E
:1040BC007047002070470AB1016170470904016123
:1040CC0070470000074AD36823F4E0631B041B0C01
:1040DC00000200F4E060034343F0BF6343F4003399
:1040EC00D360704700ED00E000B5194BDB68C3F3FB
:1040FC000223C3F1070CBCF1040F28BF4FF0040CD2
:10410C0003F1040EBEF1060F18D9033B4FF0FF3E2E
:10411C000EFA0CFC21EA0C0199400EFA03F322EA88
:10412C000303194300280BDB0901C9B200F16040FD
:10413C0000F5614080F800135DF804FB0023E5E70F
:10414C0000F00F000901C9B2024B1954F4E700BF8B
:10415C0000ED00E014ED00E0002807DB00F01F028A
:10416C00400901239340024A42F82030704700BFB7
:10417C0000E100E00138B0F1807F0BD24FF0E0237A
:10418C005861054AF02182F823100020986107221B
:10419C001A6170470120704700ED00E010B4036A0B
:1041AC00046A24F001040462846924F0F00C4CEAE3
:1041BC00021223F00A030B438261036210BC7047A6
:1041CC0010B4036A046A24F010040462846924F4B1
:1041DC00704C4CEA023223F0A00343EA01138261D3
:1041EC00036210BC7047836823F070030B4343F0E9
:1041FC00070383607047000090F83D30DBB2012B61
:10420C0027D1022380F83D300268D36843F00103C4
:10421C00D3600368114A934210D0B3F1804F0DD094
:10422C00A2F59432934209D002F58062934205D0F4
:10423C001A6842F001021A60002070479A6802F076
:10424C000702062A07D01A6842F001021A60002001
:10425C007047012070470020704700BF002C0140C0
:10426C000268D36823F00103D3600368196A41F232
:10427C001112114208D1196A40F24442114203D181
:10428C001A6822F001021A60012380F83D300020E8
:10429C007047704770477047704710B50446036805
:1042AC001A6912F0020F11D0DA6812F0020F0DD059
:1042BC006FF002021A610123037703689B6913F004
:1042CC00030F70D0FFF7E6FF0023237723681A69EA
:1042DC0012F0040F12D0DA6812F0040F0ED06FF047
:1042EC0004021A610223237723689B6913F4407F2D
:1042FC005FD02046FFF7CEFF0023237723681A698F
:10430C0012F0080F12D0DA6812F0080F0ED06FF00E
:10431C0008021A61042323772368DB6913F0030F67
:10432C004ED02046FFF7B6FF0023237723681A6987
:10433C0012F0100F12D0DA6812F0100F0ED06FF0CE
:10434C0010021A61082323772368DB6913F4407F7A
:10435C003DD02046FFF79EFF0023237723681A6980
:10436C0012F0010F03D0DA6812F0010F36D1236876
:10437C001A6912F0800F03D0DA6812F0800F34D172
:10438C0023681A6912F0400F03D0DA6812F0400F5C
:10439C0032D123681A6912F0200F03D0DA6812F0B8
:1043AC00200F30D110BDFFF774FF2046FFF773FFCD
:1043BC008AE72046FFF76DFF2046FFF76CFF9BE76F
:1043CC002046FFF766FF2046FFF765FFACE7204667
:1043DC00FFF75FFF2046FFF75EFFBDE76FF00102BE
:1043EC001A612046FDF788FDC1E76FF080021A6163
:1043FC00204600F038F9C3E76FF040021A612046FE
:10440C00FFF74AFFC5E76FF020021A61204600F063
:10441C0029F9C7E703681B4A90420AD0B0F1804FD4
:10442C0007D0A2F59432904203D002F580629042FC
:10443C0003D123F070034A681343124A90420AD006
:10444C00B0F1804F07D0A2F59432904203D002F520
:10445C008062904203D123F44073CA68134323F063
:10446C0080034A69134303608B68C3620B688362E1
:10447C00044B984202D00123436170470B690363DC
:10448C00F9E700BF002C014040B310B5044690F88A
:10449C003D30F3B1022384F83D30214651F8040B32
:1044AC00FFF7B8FF012384F8463084F83E3084F8D7
:1044BC003F3084F8403084F8413084F8423084F83E
:1044CC00433084F8443084F8453084F83D30002083
:1044DC0010BD80F83C30FEF761FDDBE70120704732
:1044EC0010B4846824F47F4C42EA03220A4342EA63
:1044FC000C02826010BC704790F83C30012B78D0D5
:10450C0010B50446012380F83C30022380F83D307E
:10451C000268936823F47F4323F0770393600B685E
:10452C00602B4CD029D8402B54D00CD9502B22D1F5
:10453C00CA6849680068FFF731FE50212068FFF710
:10454C0052FE002005E0202B0DD009D9302B0AD0CB
:10455C000120012384F83D30002384F83C3010BD49
:10456C000BB1102B05D119462068FFF73CFE00203B
:10457C00EFE70120EDE70120EBE7B3F5805F34D0E6
:10458C00B3F5005F0CD1CB684A6889680068FFF707
:10459C00A7FF2268936843F4804393600020D8E718
:1045AC00702B24D1CB684A6889680068FFF798FFA4
:1045BC002268936843F0770393600020C9E7CA68C8
:1045CC0049680068FFF7FCFD60212068FFF70BFECF
:1045DC000020BEE7CA6849680068FFF7DFFD40218C
:1045EC002068FFF700FE0020B3E70020B1E70120B0
:1045FC00AFE702207047000090F83C30012B2CD024
:10460C0010B4012380F83C30022380F83D3003685D
:10461C005A689C6822F0700C0A6842EA0C025A60D4
:10462C0003680F4A93420AD0B3F1804F07D0A2F52A
:10463C009432934203D002F58062934204D124F069
:10464C0080044A6814439C60012380F83D300023A9
:10465C0080F83C30184610BC70470220704700BFF1
:10466C00002C0140704770477047000008B50D489A
:10467C000D4B03601223436000238360C3604FF42F
:10468C00402202614FF480124261037643768376B6
:10469C00C3760377437700F04DF800B908BDFDF7FA
:1046AC005DFDFBE75C0200200064004010B586B0A5
:1046BC000023029303930493059302681A4B9A42C6
:1046CC0001D006B010BD03F5D633DA6942F00072A2
:1046DC00DA61DA6902F000720092009A9A6942F08B
:1046EC0008029A619B6903F008030193019B4FF444
:1046FC00807302930D4C02A92046FFF7C3FB4FF4C5
:10470C0000730293022303930323059302A920460B
:10471C00FFF7B8FB064A536823F4C04343F0E06349
:10472C0043F480435360CCE700640040000C01402C
:10473C0000000140002800F0A18038B5044690F834
:10474C002030D3B12268136843F001031360FFF7E4
:10475C0055F8054623685A6812F0010F10D1FFF77F
:10476C004DF8401B0A28F5D9636A43F400336362A1
:10477C00052384F82030012038BDFFF797FFE1E7CF
:10478C001A6822F002021A60FFF738F8054623680F
:10479C005A6812F0020F0DD0FFF730F8401B0A28B0
:1047AC00F5D9636A43F400336362052384F820303F
:1047BC000120E1E7227E012A3DD01A6822F0800216
:1047CC001A60637E012B3BD02268136823F04003F0
:1047DC001360A37E012B39D02268136823F02003C9
:1047EC001360E37E012B37D02268136843F010036B
:1047FC001360237F012B35D02268136823F0080344
:10480C001360637F012B33D02268136823F00403F9
:10481C001360A368E268134322691343626913436C
:10482C006268013A21681343CB6100206062012366
:10483C0084F82030A0E71A6842F080021A60C0E7C2
:10484C002268136843F040031360C2E722681368C0
:10485C0043F020031360C4E72268136823F01003AD
:10486C001360C6E72268136843F008031360C8E7B7
:10487C002268136843F004031360CAE701207047F1
:10488C00026890F82030013BDBB2012B05D9436A5A
:10489C0043F4802343620120704710B5D2F80032F4
:1048AC0043F00103C2F800324B6903F01F030120EF
:1048BC0000FA03F3D2F81C026FEA030C20EA03009F
:1048CC00C2F81C02C869C0B9D2F80C020CEA00008C
:1048DC00C2F80C028C884869D1F80CE044EA0E440A
:1048EC00483042F830400C884869D1F808E044EA76
:1048FC000E44483002EBC0004460C86901281AD04D
:10490C00886988BBD2F804020CEA0000C2F80402E1
:10491C00086978BBD2F814020CEA0000C2F8140241
:10492C00096A01292CD0D2F8003223F00103C2F815
:10493C000032002010BDD2F80C021843C2F80C0251
:10494C008C884869D1F800E044EA0E44483042F8BB
:10495C0030408C894869D1F808E044EA0E4448306C
:10496C0002EBC0004460CBE7D2F804021843C2F853
:10497C000402CDE7D2F814021843C2F81402CFE7B0
:10498C00D2F81C120B43C2F81C32CCE770B50446AB
:10499C0090F82050EDB2012D06D0436A43F4002369
:1049AC0043620125284670BD022380F8203002683E
:1049BC00136823F001031360FEF720FF06462368FB
:1049CC005B6813F0010F0CD0FEF718FF831B0A2B4A
:1049DC00F5D9636A43F400336362052384F820300D
:1049EC00E0E700256562DDE730B590F820C004688B
:1049FC00A4680CF1FF3C5FFA8CFCBCF1010F62D88F
:104A0C0014F0E05F59D0C4F3016C012404FA0CF4E7
:104A1C001C608B68002B3DD10D68CB68046843EAA1
:104A2C0045550CF118031B01E55003680C690CF19A
:104A3C00180E03EB0E135C600B7D012B35D0D17976
:104A4C0093791B0443EA0163517943EA01231479F6
:104A5C000168234301EB0C11C1F88C31D1789378A8
:104A6C001B0443EA0163517843EA0123117802687D
:104A7C000B4302EB0C12C2F8883102680CF1180CD3
:104A8C004FEA0C1C52F80C3043F0010342F80C3086
:104A9C0000201DE04C6843EAC403CC6823430CF1AE
:104AAC001804240105682B51BFE7036803EB0E13B0
:104ABC00596841F480715960C1E7436A43F40013AB
:104ACC004362012004E0436A43F4802343620120E3
:104ADC0030BD90F82030013BDBB2012B01D9002016
:104AEC0070470368986810F0806000D001209A68C5
:104AFC0012F0006F00D001309B6813F0805FEFD094
:104B0C000130704790F820C00CF1FF3C5FFA8CFC30
:104B1C00BCF1010F00F2A58030B451B90468E4680F
:104B2C0014F0030F10D1436A43F4001343620120C5
:104B3C007EE00468246914F0030F05D1436A43F442
:104B4C0000134362012073E0056801F11B0424018A
:104B5C002C5904F004049460002C6BD1056801F10D
:104B6C001B0424012C59640D1460046801F11B0C06
:104B7C004FEA0C1C54F80C4004F00204D460046896
:104B8C00A444DCF8045015F0080F5BD00824146121
:104B9C00056801F11B0C05EB0C156D68C5F30725B9
:104BAC009561046804EB0C146468240C546102686D
:104BBC0002EB0112D2F8B8211A70026802EB011252
:104BCC00D2F8B821C2F307225A70026802EB011224
:104BDC00D2F8B821C2F307429A70026802EB0112B4
:104BEC00D2F8B821120EDA70026802EB0112D2F878
:104BFC00BC211A71026802EB0112D2F8BC21C2F37B
:104C0C0007225A71026802EB0112D2F8BC21C2F3DE
:104C1C0007429A71026802EB0112D2F8BC21120E03
:104C2C00DA71C1B90268D36843F02003D360002065
:104C3C0030BC7047056801F11B0424012C59E408B1
:104C4C00546092E701F11B0504EB0514646804F051
:104C5C000F0414619CE70268136943F0200313618D
:104C6C00E5E7436A43F4802343620120704790F8E0
:104C7C002030013BDBB2012B01D90020704721B958
:104C8C000368D86800F0030070470368186900F0E7
:104C9C000300704708B50A480A4B03604FF4E13330
:104CAC00436000238360C36003610C224261836113
:104CBC00C36100F0D3F800B908BDFDF74FFAFBE76C
:104CCC00840200200048004010B586B000230293F7
:104CDC000393049305930268174B9A4201D006B0D4
:104CEC0010BD03F5E433DA6942F48022DA61DA6943
:104CFC0002F480220092009A9A6942F008029A61AA
:104D0C009B6903F008030193019B4FF480630293AA
:104D1C000223039303230593084C02A92046FFF7B3
:104D2C00B1F84FF40063029300230393049302A998
:104D3C002046FFF7A7F8D2E700480040000C0140DE
:104D4C0010B504460268136923F44053C1680B4341
:104D5C00136183680269134342691A430168CB6883
:104D6C0023F4B05323F00C031343CB600268536954
:104D7C0023F4407381690B4353610268134B9A42CD
:104D8C0020D0FFF75FF8024602EB820202EB8202B0
:104D9C0063689B00B2FBF3F20D48A0FB023149099A
:104DAC00642303FB11231B013233A0FB03235B0998
:104DBC0003F0F00202EB011203F00F03216813441D
:104DCC008B6010BDFFF74EF80246DDE7003801405E
:104DDC001F85EB512DE9F84305460F4616469946BB
:104DEC00DDF820802C68246837EA04030CBF4FF0F0
:104DFC00010C4FF0000CB4452DD1B8F1FF3FF1D0B0
:104E0C00B8F1000F05D0FEF7F9FCA0EB0900404506
:104E1C00E8D92A6802F10C0353E8003F23F4D0735D
:104E2C000C3242E800310029F3D12A6802F1140354
:104E3C0053E8003F23F00103143242E8003100290B
:104E4C00F3D1202385F8413085F84230002385F8D2
:104E5C004030032000E00020BDE8F88360B310B5BB
:104E6C00044690F8413013B3242384F8413022686F
:104E7C00D36823F40053D3602046FFF761FF226808
:104E8C00136923F4904313612268536923F02A03B6
:104E9C0053612268D36843F40053D36000206064EC
:104EAC00202384F8413084F84230606310BD80F8D0
:104EBC004030FFF709FFD7E7012070472DE9F0419B
:104ECC0082B01E4690F84130DBB2202B4BD1044609
:104EDC000D46904600294AD00AB9012044E000232F
:104EEC004364212380F84130FEF788FC0746A4F880
:104EFC002480A4F82680A368B3F5805F02D04FF01D
:104F0C0000080FE02369FBB14FF000080AE038F805
:104F1C00023B2268C3F308035360E28C92B2013A5D
:104F2C0092B2E284E38C9BB28BB100963B4600229A
:104F3C0080212046FFF74EFFD8B9002DE7D015F899
:104F4C00012B23685A60E8E7A8460025EAE700969B
:104F5C003B46002240212046FFF73CFF58B9202356
:104F6C0084F8413000E0022002B0BDE8F08101205D
:104F7C00FAE70320F8E70320F6E70000FFF774FBDD
:104F8C000B480C490C4A002302E0D458C45004339B
:104F9C00C4188C42F9D3094A094C002301E0136070
:104FAC000432A242FBD3FBF7F5F8FDF70FF970477B
:104FBC000000002070000020B85500087000002090
:104FCC00CC020020FEE70000F8B500BFF8BC08BC1E
:104FDC009E467047F8B500BFF8BC08BC9E467047AB
:104FF0002020000000000000402000000000000011
:10500000000000000000000001000000010000009E
:10501000010000000000000000010000000000008E
:105020000000000000000000080000000000000078
:105030000103000004000020000000000000000048
:105040000000000000000000000000000000000060
:105050000000000000000000000000000000000050
:105060000000000000000000000000000000000040
:105070000000000000000000000000000000000030
:105080000000000000000000000000000000000020
:1050900000000000000000000A0D436F6E666967A3
:1050A0003A202578000000000A0D456E61626C65AB
:1050B0006420446174612050697065733A202578DA
:1050C000000000000A0D53657475702052657472FB
:1050D000793A2025780000000A0D52462043686185
:1050E0006E6E656C3A202578000000000A0D52466D
:1050F0002053657475703A20257800000A0D5258C7
:10510000204164647265737320486967683A20259A
:105110006C780A0D52582041646472657373204C98
:105120006F773A20256C78000A0D52585F50575F10
:1051300050303A20257800000A0D4665617475727A
:10514000653A2025780000000A0D57616974696E80
:105150006720666F722043414E0000000A0D4341F4
:105160004E20726563656976656400000A0D5761BB
:105170006974696E6720666F72204E5246000000A7
:105180000A0D4E52462072656365697665640000BB
:105190005B6D3A2025645D205B753A2025645D20B7
:1051A0005265636569766564206D657373616765D3
:1051B0002077697468206964203D20307825303478
:1051C000782C206E6F64655F6964203D20307825FF
:1051D00030327821207072657373757265203D20BE
:1051E00025642C2074656D70203D2025640D0A0017
:1051F0000A0D4552524F523A2054696D656F7574CD
:10520000000000000A0D53656E64696E67206261DC
:10521000636B2050544E20524553504F4E5345001F
:10522000CB66923600000000DDAAE83500000000E1
:1052300038F4D435000000003869E535000000007E
:105240000D0BB03600000000D54F343600000000D2
:105250001B612B36000000000DA8903600000000F6
:1052600073B7CA360000000039613937000000000A
:10527000EFED2E3700000000B3E40437000000001B
:10528000F930DB3500000000F699A336000000007D
:10529000533F623600000000CE1F9636000000002B
:1052A000D999DF350000000018EF8F3600000000AC
:1052B000829805360000000074FFC335000000002E
:1052C000EC243336000000000F42133600000000CB
:1052D000E39BC3360000000063A7FC35000000001C
:1052E0003783043700000000602606360000000007
:1052F000088C67360000000082F6E83500000000E8
:10530000281C063600000000CF050F370000000003
:1053100079E4D9350000000057EE4A37000000005C
:10532000ECF4653600000000C406C1360000000041
:105330002FFB2C37000000004D5D493700000000B6
:105340000ECFCD3600000000319BA23600000000D9
:105350008BD403360000000007AFD93600000000F0
:10536000A019F436000000002EFEC7350000000032
:105370006B295B36000000002E570D360000000040
:10538000175A33370000000070A6433600000000B3
:1053900072E31137000000001F88B83600000000DB
:1053A0003B8A1537000000007ACFE9360000000084
:1053B000F451EE3500000000031DFC350000000034
:1053C0002D166F360000000071EC7B3600000000E7
:1053D00045E62B3700000000A8CE2737000000006C
:1053E000E4CC043600000000F714E43600000000AE
:1053F0007748B73600000000F942FA350000000097
:1054000042F4A836000000005784C93500000000AF
:105410001E60103700000000CC5536370000000039
:10542000C467363600000000F5F3173600000000B0
:105430001D1125370000000023F8F03500000000A2
:105440007A933236000000004441CA360000000062
:105450000FFCFC3500000000D10ADF360000000020
:10546000C903A03600000000F2B8133600000000A7
:10547000EBA6A736000000001547373600000000F5
:10548000566D1B3700000000E49A40370000000012
:105490004BDBFB3600000000D2EF1A3700000000A3
:1054A000702935370000000024E9AB360000000009
:1054B000E1C56436000000002D67D535000000000E
:1054C00056C21F3700000000F263083700000000DA
:1054D0009B80A736000000009F6F4A360000000046
:1054E00011E73337000000001B7980360000000010
:1054F000E6F7963600000000847950360000000080
:105500007B59E2350000000059C8EF35000000006B
:105510005198673600000000CD6CD73500000000C0
:10552000D593173600000000EAA2353700000000CE
:10553000FE0C453700000000043EE135000000008D
:1055400002030405060708090A0B0C0D0E0F1010C4
:10555000010200000000000000000000010203043E
:10556000060708090000000001020304232D302B68
:1055700020000000686C4C006566674546470000E7
:105580003031323334353637383941424344454679
:10559000000000003031323334353637383961623B
:0855A000636465660000000071
:0855A80084C6FF7F0100000032
:0455B0007501000879
:0455B4004D0100089D
:1055B800040000200000000078500008585000083F
:1055C8003850000800000000000000000000000043
:1055D80000000000000000000000000000000000C3
:1055E80000000000000000000000000000000000B3
:1055F80000000000000000000000000000000000A3
:105608000000000000000000000000000000000092
:105618000000000001000000100000000024F40059
:0400000508004F8917
:00000001FF
