:020000040800F2
:1000000000500020011E00084505000847050008B3
:10001000490500084B0500084D05000800000000D8
:100020000000000000000000000000004F05000874
:1000300051050008000000005305000855050008A0
:10004000491E0008491E0008491E0008491E0008F4
:10005000491E0008491E0008491E0008491E0008E4
:10006000491E0008491E0008491E0008491E0008D4
:10007000491E0008491E0008491E0008491E0008C4
:10008000491E0008491E0008491E0008491E0008B4
:10009000491E0008491E0008491E0008491E0008A4
:1000A000491E0008491E0008491E0008491E000894
:1000B0005D050008491E0008491E0008491E000889
:1000C000491E0008491E0008491E0008491E000874
:1000D000491E0008491E0008491E0008491E000864
:1000E000491E0008491E0008491E000800000000C3
:1000F0000000000000000000000000000000000000
:0C01000000000000000000005FF808F1A3
:10010C0053B94AB9002908BF00281CBF4FF0FF3172
:10011C004FF0FF3000F00CB8ADF1080C6DE904CED7
:10012C0001F0BAFEDDF804E0DDE9022304B070470B
:10013C00704700BF0348044B834202D0034B03B10A
:10014C00184770470C0000200C0000200000000035
:10015C000548064B1B1AD90F01EBA301491002D01D
:10016C00034B03B1184770470C0000200C00002013
:10017C000000000010B5064C237843B9FFF7DAFFF6
:10018C00044B13B10448AFF300800123237010BD5E
:10019C0010000020000000007021000808B5054B7D
:1001AC001BB105490548AFF30080BDE80840FFF7D7
:1001BC00CFBF00BF00000000140000207021000819
:1001CC0010B50A4C22780A4B03EBC203D3E90001A9
:1001DC0001F0B2FC22780132064B83FB02135B1157
:1001EC00642101FB1323237010BD00BF2C000020E1
:1001FC00882100081F85EB5110B58CB01F4C204B8B
:10020C002360642363601F4BA3600123E360002021
:10021C0020746074A374E07420750722A261062216
:10022C00E26184F8203084F8210084F8220084F8FC
:10023C00230084F82400A062E06284F8300084F883
:10024C00310084F8323002236363A06301F060FD57
:10025C00EC4604F1100EBEE80F00ACE80F00BEE84F
:10026C000F00ACE80F009EE807008CE8070094E84C
:10027C000F0001F085FC0CB010BD00BF3000002059
:10028C0040787D0180C8B30872B6FEE700B591B026
:10029C002822002106A801F0D2FD0023019302932D
:1002AC00039304930593012206924FF48033079332
:1002BC004FF4003108910A9202220D920E934FF4E2
:1002CC00E0130F9306A800F093FB80B90F23019362
:1002DC0002210291002303934FF480620492059350
:1002EC0001A800F0BDFD20B911B05DF804FBFFF7CB
:1002FC00CBFFFFF7C9FF000008B500F02BFB114C3A
:10030C0001221021204600F073FF01224FF480617E
:10031C00204600F06DFFFFF7B9FF00F017F800F072
:10032C0067F801F011FD00F085F8FFF765FF06484E
:10033C0000F0FEFF002001F0EBFC642000F02EFB2F
:10034C00FBE700BF00080140A00100202DE9F041AF
:10035C0088B000240494059406940794214B9A6960
:10036C0042F020029A619A6902F020020192019AED
:10037C009A6942F004029A619A6902F004020292AC
:10038C00029A9A6942F008029A619B6903F0080389
:10039C000393039BDFF8508022464FF4A261404642
:1003AC0000F026FF114D22464FF48051284600F0F4
:1003BC001FFF4FF4A26304930127059706940226AE
:1003CC00079604A9404600F001FE4FF480530493B5
:1003DC0005970694079604A9284600F0F7FD08B087
:1003EC00BDE8F0810010024000080140000C014003
:1003FC0008B50E480E4B03604FF482734360002324
:10040C008360C360036143614FF400728261082210
:10041C00C2610362436283620A23C36200F03CF947
:10042C0000B908BDFFF730FFFBE700BF6C000020F0
:10043C000030014008B50D480D4B03604FF482733A
:10044C00436000238360C360036143614FF4007217
:10045C008261C3610362436283620A23C36200F058
:10046C001BF900B908BDFFF70FFFFBE7C400002024
:10047C000038004010B588B0002304930593069310
:10048C0007930368274A934204D0274A93421FD00C
:10049C0008B010BD254B9A6942F480529A619A6952
:1004AC0002F480520092009A9A6942F004029A6116
:1004BC009B6903F004030193019BA0230493022383
:1004CC0005930323079304A9194800F07FFDDFE788
:1004DC00164BDA6942F48042DA61DA6902F480423E
:1004EC000292029A9A6942F008029A619B6903F09F
:1004FC0008030393039B4FF42043049302230593B7
:10050C00032307930B4C04A9204600F05FFD4FF426
:10051C008043049300230593069304A9204600F01E
:10052C0055FDB5E700300140003800400010024096
:10053C0000080140000C0140FEE7FEE7FEE7FEE785
:10054C00FEE770477047704708B500F015FA08BD14
:10055C0008B5024800F024FF08BD00BFA001002030
:10056C0082B00E4B9A6942F001029A619A6902F0CC
:10057C0001020092009ADA6942F08052DA61DB697A
:10058C0003F080530193019B054A536823F0E06309
:10059C0043F00073536002B0704700BF001002407C
:1005AC00000001402DE9F04782B005468846174609
:1005BC001E4600F0EDF90A9B1B1A03EB060900F02E
:1005CC00E7F982462A4B1B68C3F3CB3309FB03F3D1
:1005DC0001932B689C6838EA04040CBF01230023A8
:1005EC00BB4240D0B6F1FF3FF3D000F0D1F9A0EB05
:1005FC000A0048450AD2B9F1000F07D0019A02B19E
:10060C004A46019B013B01939146E2E72A685368F5
:10061C0023F0E00353606B68B3F5827F0BD0AB6AB9
:10062C00B3F5005F14D0012385F85130002385F811
:10063C005030032018E0AB68B3F5004F02D0B3F58F
:10064C00806FECD12A68136823F040031360E6E74F
:10065C002A68136823F4005313602A68136843F460
:10066C0000531360DFE7002002B0BDE8F08700BF45
:10067C000800002010B582B004460B460092002200
:10068C008021FFF78FFF08B902B010BD636D43F0F6
:10069C00200363650320F7E7002856D010B5044605
:1006AC00436A33B94368B3F5827F05D00023C36135
:1006BC0002E00023036143610023A36294F85130EC
:1006CC00002B3CD0022384F851302268136823F0AD
:1006DC0040031360636803F48273A26802F404425B
:1006EC001343E26802F400621343226902F002022F
:1006FC001343626902F001021343A26902F400720F
:10070C001343E26902F038021343226A02F08002BA
:10071C001343A26A02F40052216813430B60638BEB
:10072C00226803F0040353602268D36923F4006346
:10073C00D36100206065012384F8513010BD84F82A
:10074C0050302046FFF796FEBCE7012070472DE99C
:10075C00F04383B01D4690F85030012B00F0D1804F
:10076C00044688469146012380F8503000F010F979
:10077C00074694F85160F6B2012E40F0BA80B8F1F9
:10078C00000F00F0B780B9F1000F00F0B380032325
:10079C0084F8513000236365C4F83080A4F8349099
:1007AC00A4F83690A363A387E38763642364A368E8
:1007BC00B3F5004F1ED023681A6812F0400F03D116
:1007CC001A6842F040021A60E368B3F5006F1CD05F
:1007DC00636813B1B9F1010F55D1226B23681278FC
:1007EC001A73236B01332363E38E9BB2013B9BB2E1
:1007FC00E38648E02268136823F040031360226804
:10080C00136843F480431360D5E7636813B1B9F1FF
:10081C00010F15D1226B23681288DA60236B023327
:10082C002363E38E9BB2013B9BB2E38608E000F0AE
:10083C00AFF8C01BA84202D3B5F1FF3F15D1A5B14B
:10084C00E38E9BB2002B3CD023689A6812F0020F07
:10085C00EDD0226B1288DA60236B02332363E38EB4
:10086C009BB2013B9BB2E386EAE7012384F851304B
:10087C0003263FE000F08CF8C01BA84202D3B5F170
:10088C00FF3F19D1C5B1E38E9BB2D3B123689A68EF
:10089C0012F0020FEED0226B12781A73236B013315
:1008AC002363B4F836C01FFA8CFC0CF1FF3C1FFA22
:1008BC008CFCA4F836C0E6E7012384F851300326FB
:1008CC0018E03A4629462046FFF7D4FE08B120230B
:1008DC006365A36833B901932368DA6801929B6856
:1008EC000193019B636D2BB9012384F851300026D1
:1008FC0000E00226002384F85030304603B0BDE8F7
:10090C00F0830226F9E7000010B504460E4B1A7866
:10091C004FF47A73B3FBF2F30C4A1068B0FBF3F0AC
:10092C0000F0C4FC68B90F2C01D901200AE00022A8
:10093C0021464FF0FF3000F073FC054B1C6000208B
:10094C0000E0012010BD00BF0000002008000020C6
:10095C000400002008B5074A136843F01003136025
:10096C00032000F04BFC0F20FFF7CEFFFFF7F8FD44
:10097C00002008BD00200240034A1168034B1B787D
:10098C000B441360704700BF1C01002000000020C6
:10099C00014B1868704700BF1C01002038B5044695
:1009AC00FFF7F6FF0546B4F1FF3F02D0044B1B786E
:1009BC001C44FFF7EDFF401BA042FAD338BD00BF2B
:1009CC000000002082B0084B1B68084AA2FB0323DE
:1009DC005B0A00FB03F3019300BF019B5A1E0192BB
:1009EC00002BF9D102B0704708000020D34D6210E3
:1009FC00002800F0F18170B582B00446036813F052
:100A0C00010F2CD0994B5B6803F00C03042B1DD009
:100A1C00964B5B6803F00C03082B12D06368B3F59C
:100A2C00803F41D0002B55D103F1804303F50433B3
:100A3C001A6822F480321A601A6822F480221A6032
:100A4C0037E08A4B5B6813F4803FE7D0874B1B6819
:100A5C0013F4003F03D06368002B00F0BF812368C0
:100A6C0013F0020F75D0814B5B6813F00C0F5FD045
:100A7C007E4B5B6803F00C03082B54D02369002BCE
:100A8C0000F08A807A4B01221A60FFF781FF05463D
:100A9C00764B1B6813F0020F75D1FFF779FF401BE3
:100AAC000228F5D903209EE1704A136843F4803381
:100ABC001360636843B3FFF76BFF05466B4B1B6812
:100ACC0013F4003FCBD1FFF763FF401B6428F5D92B
:100ADC00032088E1B3F5A02F09D0644B1A6822F4E7
:100AEC0080321A601A6822F480221A60E1E703F15E
:100AFC008043A3F53C331A6842F480221A601A68CA
:100B0C0042F480321A60D4E7FFF742FF0546574B98
:100B1C001B6813F4003FA2D0FFF73AFF401B642878
:100B2C00F5D903205FE1514B5B6813F4803FA5D1ED
:100B3C004E4B1B6813F0020F03D02369012B40F0BE
:100B4C004F814A4A136823F0F803616943EAC103F1
:100B5C001360236813F0080F33D0A369002B5CD00B
:100B6C00434B0122C3F88024FFF712FF05463F4B8D
:100B7C005B6A13F0020F21D1FFF70AFF401B02281A
:100B8C00F5D903202FE1394A136823F0F803616982
:100B9C0043EAC1031360DCE7354B00221A60FFF710
:100BAC00F7FE0546314B1B6813F0020FD1D0FFF74F
:100BBC00EFFE401B0228F5D9032014E10120FFF7BA
:100BCC0001FF236813F0040F00F09680274BDB69BC
:100BDC0013F0805F34D1254BDA6942F08052DA6130
:100BEC00DB6903F080530193019B0125214B1B68AA
:100BFC0013F4807F26D0E368012B3DD0002B53D11A
:100C0C0003F1804303F504331A6A22F001021A62DD
:100C1C001A6A22F004021A6233E0154B0022C3F860
:100C2C008024FFF7B5FE0546104B5B6A13F0020FEC
:100C3C00C7D0FFF7ADFE401B0228F5D90320D2E048
:100C4C000025D3E70B4A136843F480731360FFF756
:100C5C009FFE0646074B1B6813F4807FCBD1FFF732
:100C6C0097FE801B6428F5D90320BCE000100240DD
:100C7C0000004242007000405F4A136A43F00103D7
:100C8C001362E36833B3FFF783FE06465A4B1B6AC5
:100C9C0013F0020F2FD1FFF77BFE801B41F288333C
:100CAC009842F3D903209EE0052B09D0524B1A6AC7
:100CBC0022F001021A621A6A22F004021A62E0E7B8
:100CCC004D4B1A6A42F004021A621A6A42F001028F
:100CDC001A62D6E7FFF75CFE0646474B1B6A13F019
:100CEC00020F08D0FFF754FE801B41F28833984264
:100CFC00F3D9032077E0E5B9E369002B72D03E4AC3
:100D0C00526802F00C02082A56D0022B17D03B4B2B
:100D1C0000221A66FFF73CFE0446374B1B6813F0A3
:100D2C00007F47D0FFF734FE001B0228F5D90320C3
:100D3C0059E0314AD36923F08053D361DCE72F4B60
:100D4C0000221A66FFF724FE05462B4B1B6813F096
:100D5C00007F06D0FFF71CFE401B0228F5D90320AC
:100D6C0041E0236AB3F5803F1AD023494B6823F442
:100D7C007413226A606A024313434B601F4B0122B7
:100D8C001A66FFF705FE04461B4B1B6813F0007F29
:100D9C000ED1FFF7FDFD001B0228F5D9032022E040
:100DAC00154A536823F40033A1680B435360DCE706
:100DBC00002018E0002016E0012B16D00E4B5B68CB
:100DCC0003F48031226A914211D103F47013626AE8
:100DDC0093420ED1002006E001207047012002E072
:100DEC00012000E0002002B070BD0120FBE70120D3
:100DFC00F9E70120F7E700BF001002400000424273
:100E0C00114B5A6802F00C03042B18D0082B18D184
:100E1C00C2F383430D49C85C12F4803F0BD00A4BDC
:100E2C005B68C3F340430A4AD35C0A4A02FB00F0F6
:100E3C00B0FBF3F07047084B03FB00F0704705481C
:100E4C0070470648704700BF00100240A8240008F5
:100E5C00B82400080024F40000093D0000127A00B8
:100E6C00002800F0A08070B50D460446524B1B685C
:100E7C0003F007038B420BD24F4A136823F007038E
:100E8C000B431360136803F007038B4240F08D8013
:100E9C00236813F0020F17D013F0040F04D0474A45
:100EAC00536843F4E0635360236813F0080F04D0D5
:100EBC00424A536843F460535360404A536823F0EA
:100ECC00F003A1680B435360236813F0010F31D07A
:100EDC006368012B20D0022B25D0384A126812F0FF
:100EEC00020F64D035494A6822F0030213434B6069
:100EFC00FFF74EFD0646314B5B6803F00C0362684E
:100F0C00B3EB820F16D0FFF743FD801B41F2883301
:100F1C009842F0D9032045E0284A126812F4003FA9
:100F2C00E0D101203EE0254A126812F0007FD9D1B1
:100F3C00012037E0204B1B6803F00703AB420AD9B2
:100F4C001D4A136823F007032B431360136803F047
:100F5C000703AB422DD1236813F0040F06D0174AB8
:100F6C00536823F4E063E1680B435360236813F088
:100F7C00080F07D0114A536823F46053216943EAE0
:100F8C00C1035360FFF73CFF0C4B5B68C3F30313C7
:100F9C000B4AD35CD8400B4B18600B4B1868FFF70F
:100FAC00B3FC002070BD012070470120FAE701203E
:100FBC00F8E70120F6E700BF0020024000100240D5
:100FCC00BC240008080000200400002070B582B08A
:100FDC000024A446A6E0804DAB4210D007D97F4D2B
:100FEC00AB420CD005F58035AB4208D013E0A5F52B
:100FFC008015AB4203D005F57025AB4207D18B6849
:10100C00002B58D0012B51D04261082403E0A5F5E8
:10101C008015AB42F3D0BEF1FF0F4ED80646BEF1A1
:10102C00FF0F4CD84FEA8C0233680F25954023EA0A
:10103C00050304FA02F2134333604B6813F0805F2C
:10104C006ED0674B9A6942F001029A619B6903F07A
:10105C0001030193019B4FEA9C02951C614B53F8D1
:10106C0025600CF00305AD000F23AB4026EA030608
:10107C005D4B984229D003F58063984200F08E8036
:10108C0003F58063984200F08B8003F580639842EF
:10109C0019D004231AE0CC68BDE7CC680434BAE755
:1010AC00CC680834B7E7CC680C34B4E70261082488
:1010BC00B1E70024AFE70424ADE7061DAFE7ACF1C0
:1010CC0008029200B0E7032300E00023AB40334357
:1010DC000232444D45F822304B6813F4801F61D026
:1010EC00424A936843EA0E0393604B6813F4001F63
:1010FC005ED03E4AD36843EA0E03D3604B6813F4C8
:10110C00003F5BD0394A536843EA0E0353604B6887
:10111C0013F4803F58D0354A136843EA0E0313602A
:10112C000CF1010C0B6833FA0CF253D0012202FAC9
:10113C000CF203EA020E32EA0303F1D14B68122BD4
:10114C003FF649AF122B3FF666AF01A555F823F0D9
:10115C000B100008A3100008AD100008BF10000809
:10116C002310000823100008231000082310000887
:10117C002310000823100008231000082310000877
:10118C002310000823100008231000082310000867
:10119C0023100008A7100008B3100008012395E7DE
:1011AC00022393E7114A936823EA0E0393609CE7AA
:1011BC000E4AD36823EA0E03D3609FE70B4A5368A9
:1011CC0023EA0E035360A2E7084A136823EA0E03CE
:1011DC001360A5E702B070BD0000221000003110B2
:1011EC0000100240000001400008014000040140D2
:1011FC000AB101617047090401617047074AD3685D
:10120C0023F4E0631B041B0C000200F4E0600343B6
:10121C0043F0BF6343F40033D360704700ED00E04C
:10122C0000B5194BDB68C3F30223C3F1070CBCF107
:10123C00040F28BF4FF0040C03F1040EBEF1060F8F
:10124C0018D9033B4FF0FF3E0EFA0CFC21EA0C01BF
:10125C0099400EFA03FE22EA0E020A4300280BDB29
:10126C001201D2B200F1604000F5614080F8002319
:10127C005DF804FB0023E5E700F00F001201D2B289
:10128C00024B1A54F4E700BF00ED00E014ED00E04F
:10129C00002807DB00F01F02400901239340024A9B
:1012AC0042F82030704700BF00E100E00138B0F197
:1012BC00807F0BD24FF0E0235861054AF02182F871
:1012CC0023100020986107221A6170470120704793
:1012DC0000ED00E010B4036A046A24F00104046217
:1012EC00846924F0F00C4CEA021223F00A030B433D
:1012FC008261036210BC704710B4036A046A24F064
:10130C0010040462846924F4704C4CEA023223F019
:10131C00A00343EA01138261036210BC7047836827
:10132C0023F070030B4343F0070383607047000006
:10133C0090F83D30DBB2012B27D1022380F83D30F1
:10134C000268D36843F00103D3600368114A9342E7
:10135C0010D0B3F1804F0DD0A2F59432934209D046
:10136C0002F58062934205D01A6842F001021A60BD
:10137C00002070479A6802F00702062A07D01A6804
:10138C0042F001021A6000207047012070470020D3
:10139C00704700BF002C0140704770477047704782
:1013AC0010B5044603681A6912F0020F11D0DA68FE
:1013BC0012F0020F0DD06FF002021A6101230377B5
:1013CC0003689B6913F0030F70D0FFF7E6FF00234F
:1013DC00237723681A6912F0040F12D0DA6812F01E
:1013EC00040F0ED06FF004021A61022323772368D6
:1013FC009B6913F4407F5FD02046FFF7CEFF00239C
:10140C00237723681A6912F0080F12D0DA6812F0E9
:10141C00080F0ED06FF008021A610423237723689B
:10142C00DB6913F0030F4ED02046FFF7B6FF002305
:10143C00237723681A6912F0100F12D0DA6812F0B1
:10144C00100F0ED06FF010021A6108232377236857
:10145C00DB6913F4407F3DD02046FFF79EFF00234D
:10146C00237723681A6912F0010F03D0DA6812F09F
:10147C00010F36D123681A6912F0800F03D0DA6895
:10148C0012F0800F34D123681A6912F0400F03D088
:10149C00DA6812F0400F32D123681A6912F0200F6B
:1014AC0003D0DA6812F0200F30D110BDFFF774FFB3
:1014BC002046FFF773FF8AE72046FFF76DFF2046B3
:1014CC00FFF76CFF9BE72046FFF766FF2046FFF710
:1014DC0065FFACE72046FFF75FFF2046FFF75EFF96
:1014EC00BDE76FF001021A612046FEF769FEC1E705
:1014FC006FF080021A61204600F039F9C3E76FF0F3
:10150C0040021A612046FFF74AFFC5E76FF0200240
:10151C001A61204600F02AF9C7E7000003681B4A4D
:10152C0090420AD0B0F1804F07D0A2F5943290428D
:10153C0003D002F58062904203D123F070034A6815
:10154C001343124A90420AD0B0F1804F07D0A2F553
:10155C009432904203D002F58062904203D123F47E
:10156C004073CA68134323F080034A691343036032
:10157C008B68C3620B688362044B984202D00123D0
:10158C00436170470B690363F9E700BF002C01400E
:10159C0040B310B5044690F83D30F3B1022384F803
:1015AC003D30214651F8040BFFF7B8FF012384F8B6
:1015BC00463084F83E3084F83F3084F8403084F86C
:1015CC00413084F8423084F8433084F8443084F855
:1015DC00453084F83D30002010BD80F83C3000F0E0
:1015EC00EBFBDBE70120704710B4846824F47F4CDC
:1015FC0042EA03220A4342EA0C02826010BC7047A2
:10160C0090F83C30012B78D010B50446012380F8BB
:10161C003C30022380F83D300268936823F47F430A
:10162C0023F0770393600B68602B4CD029D8402BA8
:10163C0054D00CD9502B22D1CA6849680068FFF7E6
:10164C0049FE50212068FFF76AFE002005E0202BA0
:10165C000DD009D9302B0AD00120012384F83D305C
:10166C00002384F83C3010BD0BB1102B05D119466A
:10167C002068FFF754FE0020EFE70120EDE7012082
:10168C00EBE7B3F5805F34D0B3F5005F0CD1CB68DA
:10169C004A6889680068FFF7A7FF2268936843F4DB
:1016AC00804393600020D8E7702B24D1CB684A6824
:1016BC0089680068FFF798FF2268936843F0770306
:1016CC0093600020C9E7CA6849680068FFF714FEF8
:1016DC0060212068FFF723FE0020BEE7CA68496836
:1016EC000068FFF7F7FD40212068FFF718FE002087
:1016FC00B3E70020B1E70120AFE7022070470000FC
:10170C0090F83C20012A2CD010B40346012280F81A
:10171C003C20022280F83D2002685068946820F03A
:10172C00700C086840EA0C0050601A680E4882423F
:10173C000AD0B2F1804F07D0A0F59430824203D08A
:10174C0000F58060824204D124F080044968214372
:10175C009160012283F83D20002083F83C0010BCEE
:10176C0070470220704700BF002C01407047704743
:10177C007047000010B5064C002210212046FFF7E0
:10178C0037FD00224FF480612046FFF731FD10BD7C
:10179C000008014010B5064C012210212046FFF72D
:1017AC0027FD01224FF480612046FFF721FD10BD7B
:1017BC000008014000B583B08DF807004FF47A7330
:1017CC0001220DF107010348FEF7C1FF03B05DF8DC
:1017DC0004FB00BF6C000020F0B583B0070E8DF841
:1017EC000470C0F307468DF80560C0F307258DF82B
:1017FC000650C4B28DF80740FFF7BCFF3846FFF720
:10180C00D9FF3046FFF7D6FF2846FFF7D3FF204617
:10181C00FFF7D0FFFFF7BEFF002003B0F0BD70B59F
:10182C0005460026052414E094B98EB11FE0264627
:10183C0020436865FFF7D0FF00281FDB04F1080385
:10184C0005EB83035A6804F10E0305EB83035A601E
:10185C00013C002C11DB04F10E0305EB83035A68E9
:10186C0004F1080305EB830358688242DCD0012C99
:10187C00DDD0042CDCD10126DAE7002070BD00009D
:10188C0010B4844604680BE0012211E0012200FB35
:10189C0002F2B3FBF2F3CCF80C300A4A93420FD9A4
:1018AC00013189B2DCF80430A27C002AECD002228F
:1018BC0002FB03F30846E27C002AE7D00222E6E7AB
:1018CC0010BC70470048E80184460B46814228BF93
:1018DC00034600E0013B1846BCFBF3F203FB12C2CB
:1018EC00002AF7D1B1FBF3F203FB1212002AF1D15B
:1018FC00704700002DE9F04F87B092469946036877
:10190C000493864BD31869F10002854999424FF034
:10191C0001039341C0F0FD800546824B53454FF0C7
:10192C00000373EB090307D24B2303934FF00063BF
:10193C00059300232B620BE01723039300230593DD
:10194C00F7E71AEB0A0A49EB09092B6A01332B62F8
:10195C00754B53454FF0000373EB0903F1D2049B15
:10196C001C8A0CB1013CA4B2D5F8088024E01CB34D
:10197C004FF0000BA6FB0A0106FB0911012F94BFC7
:10198C0000230123C0183A465B4641F10001FEF7E3
:10199C00B7FB0090019132465B46FEF7B1FB029219
:1019AC006A6132465B4600980199FEF7A9FB8346B3
:1019BC00A861039B984214D221462846FFF760FF8A
:1019CC0084B2EF68B7FBF8F6EE61B4F5806F02D322
:1019DC0008F101080024B6F5805FC8D3002CEBD1C8
:1019EC00C5E7524BA3FB0723DB0B514A02FB1373D6
:1019FC004FF22442934215D94C4BA3FB0773C3F30C
:101A0C00C7330133DFB2029B93B18EB198461946AE
:101A1C003046FFF759FFB6FBF0F6EE61B8FBF0F07D
:101A2C00686109E0414BA3FB0737C7F3C737EAE707
:101A3C0000236B610123EB613E4A02EACB326969F8
:101A4C0047F6F87303EAC1010A436A62EA6903EADA
:101A5C00C203059A134343F40043AB62A30343F45C
:101A6C000053049A927C002A4CD04FF0007213431E
:101A7C00049AD27C002A47D04FF080721343049909
:101A8C004A6922F0434222F47F0222F4604222F09F
:101A9C003F021343EB628B6923F07F4323F47803FB
:101AAC0023F4004323F007032B632A6A3B0343EA26
:101ABC000253CA6902F4FB62134343F4000343F07C
:101ACC0020036B634FF4B003AB632846FFF7A7FE0C
:101ADC00011E1BDBAB69EA69696902FB0311E8684B
:101AEC002D6AA5F12004C5F1200302FA04F422FAB0
:101AFC0003F3AA402343A1FB0001FEF701FB07B04F
:101B0C00BDE8F08F0022B2E70022B7E70846C917FC
:101B1C00F5E74FF0FF300146F1E700BFA87AF3FD7F
:101B2C00A8263604005ED0B2FF55218383DE1B430A
:101B3C0048E801000080FF7F08B502460B460248CA
:101B4C00FFF7D8FE08BD00BF200100206FF0004356
:101B5C00984201D0024B9860014B9868704700BFC7
:101B6C002001002000F1004301330B4301D0034B53
:101B7C005860024B58680021704700BF20010020BC
:101B8C0084B038B504AC84E80F005E4B5E4A136039
:101B9C0018605960069A9A600022DA60079A1A82D5
:101BAC009DF820209A749DF82120DA749DF822303B
:101BBC00002B00F090804023524A53619DF8232063
:101BCC00002A00F08A80802213434E4A53619DF80C
:101BDC002420002A00F083804FF48072134349497B
:101BEC004B610A9AA2F59C72D208484CA4FB0242A3
:101BFC009208520202F4F05213434B610B9A43EADF
:101C0C0082634B619DF83020002A6AD04FF0C042AD
:101C1C0013433C4A53619DF83130002B63D04FF491
:101C2C008023384A93619DF83220002A5DD04FF40E
:101C3C0000121343334A93619DF83320002A56D087
:101C4C004FF4800213432F4A93619DF83420002AED
:101C5C004FD04FF4000213432A4A93610E9943EA82
:101C6C00C10393610F9943EA014393619DF840309E
:101C7C00002B40D04FF48073224AD3619DF8412051
:101C8C00002A3AD04FF4007213431E4AD3619DF8D8
:101C9C004220002A33D04FF480621343194AD36197
:101CAC00119943EAC103D361129943EA8113D361B9
:101CBC0000242146FFF756FF134D2B685868FFF799
:101CCC0045FF2B68D3E90201FFF736FF2046BDE83C
:101CDC00384004B0704700236EE7002274E70022FE
:101CEC007CE7002294E700239BE70022A1E7002277
:101CFC00A8E70022AFE70023BEE70022C4E70022DA
:101D0C00CBE700BF78010020200100201BA4411A62
:101D1C0010B50446012805D064B10A4BD86A00F00E
:101D2C00200010BD0748C36A43F02003C362FFF7CD
:101D3C0076FDF1E70348C36A23F02003C362FFF783
:101D4C006EFDEAE72001002000B587B00023029366
:101D5C000393049305930093019316484FF080422C
:101D6C00026040F2E7324260836041F61F42C2607B
:101D7C0003618361FFF70CFC90B94FF4805302931D
:101D8C0002A90C48FFF73CFC68B9002300930193AF
:101D9C0069460848FFF7B4FC40B907B05DF804FB8E
:101DAC00FEF772FAE9E7FEF76FFAEEE7FEF76CFA68
:101DBC00F3E700BFA00100200368B3F1804F00D00F
:101DCC00704700B583B003F50433DA6942F00102C1
:101DDC00DA61DB6903F001030193019B00221146D8
:101DEC001C20FFF71DFA1C20FFF752FA03B05DF818
:101DFC0004FB0000FFF7BCFC0B480C490C4A002309
:101E0C0002E0D458C4500433C4188C42F9D3094AA4
:101E1C00094C002301E013600432A242FBD300F012
:101E2C0017F8FEF769FA7047000000200C0000203C
:101E3C00DC24000810000020E8010020FEE7034627
:101E4C000244934200D1704703F8011BF9E70000EC
:101E5C0070B500260C4D0D4C641BA410A64209D184
:101E6C0000F080F900260A4D0A4C641BA410A6420F
:101E7C0005D170BD55F8043B98470136EEE755F88F
:101E8C00043B98470136F2E7D4240008D424000818
:101E9C00D4240008D82400082DE9F047089E0D46EC
:101EAC0004468E46002B4CD18A42944667D9B2FA2E
:101EBC0082F353B102FA03FCC3F1200201FA03FED0
:101ECC0020FA02F242EA0E0E9C404FEA1C47BEFB7F
:101EDC00F7F11FFA8CF507FB11EE01FB05F0220C54
:101EEC0042EA0E4290420AD91CEB020201F1FF3E7B
:101EFC0080F01981904240F2168102396244121A24
:101F0C00B2FBF7F007FB102200FB05F5A4B244EA84
:101F1C000244A5420AD91CEB040400F1FF3280F004
:101F2C000481A54240F201816444023840EA014038
:101F3C000021641B1EB1DC400023C6E90043BDE850
:101F4C00F0878B4208D9002E00F0EA800021C6E908
:101F5C0000050846BDE8F087B3FA83F1002948D1A3
:101F6C00AB4202D3824200F2F880841A65EB030282
:101F7C0001209646002EE2D0C6E9004EDFE702B9FA
:101F8C00FFDEB2FA82F3002B40F08E80881A01211A
:101F9C00170C1FFA82FEB0FBF7F507FB1500220C9D
:101FAC0042EA00420EFB05F0904208D91CEB0202FB
:101FBC0005F1FF3802D2904200F2CC804546121A4D
:101FCC00B2FBF7F007FB10220EFB00FEA4B244EAB2
:101FDC000244A64508D91CEB040400F1FF3202D2DE
:101FEC00A64500F2B4801046A4EB0E0440EA05406E
:101FFC00A0E7C1F120078B4022FA07FC4CEA030C46
:10200C0025FA07FA4FEA1C49BAFBF9F88D4020FA79
:10201C0007F309FB18AA1FFA8CFE2B4300FA01F5F3
:10202C0008FB0EF01C0C44EA0A44A04202FA01F22E
:10203C000BD91CEB040408F1FF3A80F08680A04217
:10204C0040F28380A8F102086444241A98B2B4FBCD
:10205C00F9F309FB134403FB0EFE40EA0444A645C6
:10206C0008D91CEB040403F1FF306AD2A64568D9E9
:10207C00023B644443EA0840A0FB0293A4EB0E0429
:10208C009C42C8469E4654D351D0002E67D0B5EB27
:10209C00080364EB0E04CB4004FA07F71F43CC4053
:1020AC00C6E9007400214AE702FA03FCC3F12000E0
:1020BC00C1409D4024FA00F04FEA1C472843B1FB75
:1020CC00F7F507FB15111FFA8CFE020C42EA0142D0
:1020DC0005FB0EF1914204FA03F408D91CEB020241
:1020EC0005F1FF382FD291422DD9023D6244521A8C
:1020FC00B2FBF7F107FB112280B240EA024001FB70
:10210C000EF2824208D91CEB000001F1FF3816D206
:10211C00824214D902396044801A41EA05413AE7F7
:10212C00314630460BE77146E9E61046FEE64D4572
:10213C00ABD2B9EB020863EB0C0E0138A5E74146B4
:10214C00EAE7034696E74546D1E7D0467DE7644487
:10215C00023849E7023D624431E708460AE7314656
:10216C00EDE600BFF8B500BFF8BC08BC9E46704752
:0C217C00F8B500BFF8BC08BC9E467047D8
:10218800CB66923600000000DDAAE83500000000AA
:1021980038F4D435000000003869E5350000000047
:1021A8000D0BB03600000000D54F3436000000009B
:1021B8001B612B36000000000DA8903600000000BF
:1021C80073B7CA36000000003961393700000000D3
:1021D800EFED2E3700000000B3E4043700000000E4
:1021E800F930DB3500000000F699A3360000000046
:1021F800533F623600000000CE1F963600000000F4
:10220800D999DF350000000018EF8F360000000074
:10221800829805360000000074FFC33500000000F6
:10222800EC243336000000000F4213360000000093
:10223800E39BC3360000000063A7FC3500000000E4
:1022480037830437000000006026063600000000CF
:10225800088C67360000000082F6E83500000000B0
:10226800281C063600000000CF050F3700000000CC
:1022780079E4D9350000000057EE4A370000000025
:10228800ECF4653600000000C406C136000000000A
:102298002FFB2C37000000004D5D4937000000007F
:1022A8000ECFCD3600000000319BA23600000000A2
:1022B8008BD403360000000007AFD93600000000B9
:1022C800A019F436000000002EFEC73500000000FB
:1022D8006B295B36000000002E570D360000000009
:1022E800175A33370000000070A64336000000007C
:1022F80072E31137000000001F88B83600000000A4
:102308003B8A1537000000007ACFE936000000004C
:10231800F451EE3500000000031DFC3500000000FC
:102328002D166F360000000071EC7B3600000000AF
:1023380045E62B3700000000A8CE27370000000034
:10234800E4CC043600000000F714E4360000000076
:102358007748B73600000000F942FA35000000005F
:1023680042F4A836000000005784C9350000000078
:102378001E60103700000000CC5536370000000002
:10238800C467363600000000F5F317360000000079
:102398001D1125370000000023F8F035000000006B
:1023A8007A933236000000004441CA36000000002B
:1023B8000FFCFC3500000000D10ADF3600000000E9
:1023C800C903A03600000000F2B813360000000070
:1023D800EBA6A736000000001547373600000000BE
:1023E800566D1B3700000000E49A403700000000DB
:1023F8004BDBFB3600000000D2EF1A37000000006C
:10240800702935370000000024E9AB3600000000D1
:10241800E1C56436000000002D67D53500000000D6
:1024280056C21F3700000000F263083700000000A2
:102438009B80A736000000009F6F4A36000000000E
:1024480011E73337000000001B79803600000000D8
:10245800E6F7963600000000847950360000000048
:102468007B59E2350000000059C8EF350000000034
:102478005198673600000000CD6CD7350000000089
:10248800D593173600000000EAA235370000000097
:10249800FE0C453700000000043EE1350000000056
:1024A80002030405060708090A0B0C0D0E0F10108D
:1024B8000102000000000000000000000102030407
:0424C80006070809F2
:0824CC00D8F9FF7F01000000B8
:0424D400A901000852
:0424D8008101000876
:0C24DC0001000000100000000024F400CB
:0400000508001E01D0
:00000001FF
