:020000040800F2
:10000000005000200D0E000805030008070300083B
:10001000090300080B0300080D030008000000009E
:100020000000000000000000000000000F030008B6
:100030001103000800000000130300081503000866
:10004000550E0008550E0008550E0008550E000804
:10005000550E0008550E0008550E0008550E0008F4
:10006000550E0008550E0008550E0008550E0008E4
:10007000550E0008550E0008550E0008550E0008D4
:10008000550E0008550E0008550E0008550E0008C4
:10009000550E0008550E0008550E0008550E0008B4
:1000A000550E0008550E0008550E0008550E0008A4
:1000B000550E0008550E0008550E0008550E000894
:1000C000550E0008550E0008550E0008550E000884
:1000D000550E0008550E0008550E0008550E000874
:1000E000550E0008550E0008550E000800000000CF
:1000F0000000000000000000000000000000000000
:0C01000000000000000000005FF808F1A3
:10010C000348044B834202D0034B03B1184770479A
:10011C000C0000200C000020000000000548064BDD
:10012C001B1AD90F01EBA301491002D0034B03B1E9
:10013C00184770470C0000200C0000200000000045
:10014C0010B5064C237843B9FFF7DAFF044B13B113
:10015C000448AFF300800123237010BD0C00002075
:10016C0000000000B00E000808B5054B1BB1054996
:10017C000548AFF30080BDE80840FFF7CFBF00BFD4
:10018C000000000010000020B00E00082DE9F04126
:10019C0088B000240494059406940794244B9A691F
:1001AC0042F010029A619A6902F010020092009AD1
:1001BC009A6942F020029A619A6902F02002019237
:1001CC00019A9A6942F004029A619A6902F0040257
:1001DC000292029A9A6942F008029A619B6903F0B2
:1001EC0008030393039BDFF84C8022464FF4005125
:1001FC00404600F09FFD104E22460121304600F093
:10020C0099FD4FF40053049301250595069402279C
:10021C00079704A9404600F07BFC049505950694CD
:10022C00079704A9304600F073FC08B0BDE8F081D4
:10023C000010024000100140000C014072B6FEE7B5
:10024C0008B50D480D4B03604FF4827343600023D7
:10025C008360C360036143614FF4007282612822A2
:10026C00C2610362436283620A23C36200F0ACF88A
:10027C0000B908BDFFF7E2FF280000200030014064
:10028C0000B591B02822002106A800F0DEFD002365
:10029C0001930293039304930593012206924FF466
:1002AC00803307930A9202220D920E934FF4E013BF
:1002BC000F9306A800F044F980B90F230193022193
:1002CC000291002303934FF480620492059301A8DA
:1002DC0000F068FB20B911B05DF804FBFFF7AEFF2E
:1002EC00FFF7ACFF08B500F0F1F8FFF7C9FFFFF717
:1002FC004DFFFFF7A5FFFEE7FEE7FEE7FEE7FEE793
:10030C00FEE770477047704708B500F0F1F808BD7C
:10031C0082B00E4B9A6942F001029A619A6902F01E
:10032C0001020092009ADA6942F08052DA61DB69CC
:10033C0003F080530193019B054A536823F0E0635B
:10034C0043F08063536002B0704700BF001002405E
:10035C000000014010B586B0002302930393049370
:10036C0005930268164B9A4201D006B010BD03F5F6
:10037C0060439A6942F480529A619A6902F48052FD
:10038C000092009A9A6942F004029A619B6903F008
:10039C0004030193019BA0230293022303930323E1
:1003AC000593084C02A9204600F0B2FB40230293AF
:1003BC0000230393049302A9204600F0A9FBD4E781
:1003CC000030014000080140002856D010B504460A
:1003DC00436A33B94368B3F5827F05D00023C36108
:1003EC0002E00023036143610023A36294F85130BF
:1003FC00002B3CD0022384F851302268136823F080
:10040C0040031360636803F48273A26802F404422D
:10041C001343E26802F400621343226902F0020201
:10042C001343626902F001021343A26902F40072E1
:10043C001343E26902F038021343226A02F080028D
:10044C001343A26A02F40052216813430B60638BBE
:10045C00226803F0040353602268D36923F4006319
:10046C00D36100206065012384F8513010BD84F8FD
:10047C0050302046FFF76EFFBCE7012070470000AC
:10048C0010B504460E4B1A784FF47A73B3FBF2F3A3
:10049C000C4A1068B0FBF3F000F09CFC68B90F2C10
:1004AC0001D901200AE0002221464FF0FF3000F074
:1004BC0059FC054B1C60002000E0012010BD00BF62
:1004CC0000000020080000200400002008B5074AA6
:1004DC00136843F010031360032000F031FC0F206D
:1004EC00FFF7CEFFFFF714FF002008BD00200240ED
:1004FC00034A1168034B1B780B441360704700BF11
:10050C008000002000000020014B1868704700BFDD
:10051C008000002082B0084B1B68084AA2FB032312
:10052C005B0A00FB03F3019300BF019B5A1E01926F
:10053C00002BF9D102B0704708000020D34D621097
:10054C00002800F0F18170B582B00446036813F006
:10055C00010F2CD0994B5B6803F00C03042B1DD0BE
:10056C00964B5B6803F00C03082B12D06368B3F551
:10057C00803F41D0002B55D103F1804303F5043368
:10058C001A6822F480321A601A6822F480221A60E7
:10059C0037E08A4B5B6813F4803FE7D0874B1B68CE
:1005AC0013F4003F03D06368002B00F0BF81236875
:1005BC0013F0020F75D0814B5B6813F00C0F5FD0FA
:1005CC007E4B5B6803F00C03082B54D02369002B83
:1005DC0000F08A807A4B01221A60FFF795FF0546DE
:1005EC00764B1B6813F0020F75D1FFF78DFF401B84
:1005FC000228F5D903209EE1704A136843F4803336
:10060C001360636843B3FFF77FFF05466B4B1B68B2
:10061C0013F4003FCBD1FFF777FF401B6428F5D9CB
:10062C00032088E1B3F5A02F09D0644B1A6822F49B
:10063C0080321A601A6822F480221A60E1E703F112
:10064C008043A3F53C331A6842F480221A601A687E
:10065C0042F480321A60D4E7FFF756FF0546574B39
:10066C001B6813F4003FA2D0FFF74EFF401B642819
:10067C00F5D903205FE1514B5B6813F4803FA5D1A2
:10068C004E4B1B6813F0020F03D02369012B40F073
:10069C004F814A4A136823F0F803616943EAC103A6
:1006AC001360236813F0080F33D0A369002B5CD0C0
:1006BC00434B0122C3F88024FFF726FF05463F4B2E
:1006CC005B6A13F0020F21D1FFF71EFF401B0228BB
:1006DC00F5D903202FE1394A136823F0F803616937
:1006EC0043EAC1031360DCE7354B00221A60FFF7C5
:1006FC000BFF0546314B1B6813F0020FD1D0FFF7EF
:10070C0003FF401B0228F5D9032014E10120FFF759
:10071C0001FF236813F0040F00F09680274BDB6970
:10072C0013F0805F34D1254BDA6942F08052DA61E4
:10073C00DB6903F080530193019B0125214B1B685E
:10074C0013F4807F26D0E368012B3DD0002B53D1CE
:10075C0003F1804303F504331A6A22F001021A6292
:10076C001A6A22F004021A6233E0154B0022C3F815
:10077C008024FFF7C9FE0546104B5B6A13F0020F8D
:10078C00C7D0FFF7C1FE401B0228F5D90320D2E0E9
:10079C000025D3E70B4A136843F480731360FFF70B
:1007AC00B3FE0646074B1B6813F4807FCBD1FFF7D3
:1007BC00ABFE801B6428F5D90320BCE0001002407E
:1007CC0000004242007000405F4A136A43F001038C
:1007DC001362E36833B3FFF797FE06465A4B1B6A66
:1007EC0013F0020F2FD1FFF78FFE801B41F28833DD
:1007FC009842F3D903209EE0052B09D0524B1A6A7C
:10080C0022F001021A621A6A22F004021A62E0E76C
:10081C004D4B1A6A42F004021A621A6A42F0010243
:10082C001A62D6E7FFF770FE0646474B1B6A13F0B9
:10083C00020F08D0FFF768FE801B41F28833984204
:10084C00F3D9032077E0E5B9E369002B72D03E4A77
:10085C00526802F00C02082A56D0022B17D03B4BE0
:10086C0000221A66FFF750FE0446374B1B6813F044
:10087C00007F47D0FFF748FE001B0228F5D9032064
:10088C0059E0314AD36923F08053D361DCE72F4B15
:10089C0000221A66FFF738FE05462B4B1B6813F037
:1008AC00007F06D0FFF730FE401B0228F5D903204D
:1008BC0041E0236AB3F5803F1AD023494B6823F4F7
:1008CC007413226A606A024313434B601F4B01226C
:1008DC001A66FFF719FE04461B4B1B6813F0007FCA
:1008EC000ED1FFF711FE001B0228F5D9032022E0E0
:1008FC00154A536823F40033A1680B435360DCE7BB
:10090C00002018E0002016E0012B16D00E4B5B687F
:10091C0003F48031226A914211D103F47013626A9C
:10092C0093420ED1002006E001207047012002E026
:10093C00012000E0002002B070BD0120FBE7012087
:10094C00F9E70120F7E700BF001002400000424227
:10095C000F4B5B6803F00C02082A01D00D4870475E
:10096C00C3F383420C49885C13F4803F0BD0084BD3
:10097C005B68C3F34043094AD35C064A02FB00F0B0
:10098C00B0FBF3F07047064B03FB00F0704700BF61
:10099C000010024000127A00C80E0008D80E0008A1
:1009AC0000093D00002800F0A08070B50D460446FB
:1009BC00524B1B6803F007038B420BD24F4A136850
:1009CC0023F007030B431360136803F007038B42F8
:1009DC0040F08D80236813F0020F17D013F0040F32
:1009EC0004D0474A536843F4E0635360236813F020
:1009FC00080F04D0424A536843F460535360404A92
:100A0C00536823F0F003A1680B435360236813F081
:100A1C00010F31D06368012B20D0022B25D0384A2E
:100A2C00126812F0020F64D035494A6822F00302B2
:100A3C0013434B60FFF768FD0646314B5B6803F0D0
:100A4C000C036268B3EB820F16D0FFF75DFD801BC1
:100A5C0041F288339842F0D9032045E0284A1268C5
:100A6C0012F4003FE0D101203EE0254A126812F05A
:100A7C00007FD9D1012037E0204B1B6803F007031E
:100A8C00AB420AD91D4A136823F007032B431360AA
:100A9C00136803F00703AB422DD1236813F0040F46
:100AAC0006D0174A536823F4E063E1680B435360A4
:100ABC00236813F0080F07D0114A536823F46053CE
:100ACC00216943EAC1035360FFF742FF0C4B5B689B
:100ADC00C3F303130B4AD35CD8400B4B18600B4B7E
:100AEC001868FFF7CDFC002070BD01207047012075
:100AFC00FAE70120F8E70120F6E700BF00200240EA
:100B0C0000100240DC0E0008080000200400002049
:100B1C0070B582B00024A446A6E0804DAB4210D044
:100B2C0007D97F4DAB420CD005F58035AB4208D0D0
:100B3C0013E0A5F58015AB4203D005F57025AB424B
:100B4C0007D18B68002B58D0012B51D0426108245F
:100B5C0003E0A5F58015AB42F3D0BEF1FF0F4ED8E4
:100B6C000646BEF1FF0F4CD84FEA8C0233680F25B6
:100B7C00954023EA050304FA02F2134333604B68F1
:100B8C0013F0805F6ED0674B9A6942F001029A6154
:100B9C009B6903F001030193019B4FEA9C02951C96
:100BAC00614B53F825600CF00305AD000F23AB40EF
:100BBC0026EA03065D4B984229D003F580639842E0
:100BCC0000F08E8003F58063984200F08B8003F573
:100BDC008063984219D004231AE0CC68BDE7CC6836
:100BEC000434BAE7CC680834B7E7CC680C34B4E703
:100BFC0002610824B1E70024AFE70424ADE7061D29
:100C0C00AFE7ACF108029200B0E7032300E0002349
:100C1C00AB4033430232444D45F822304B6813F459
:100C2C00801F61D0424A936843EA0E0393604B687D
:100C3C0013F4001F5ED03E4AD36843EA0E03D36020
:100C4C004B6813F4003F5BD0394A536843EA0E03F8
:100C5C0053604B6813F4803F58D0354A136843EA0D
:100C6C000E0313600CF1010C0B6833FA0CF253D029
:100C7C00012202FA0CF203EA020E32EA0303F1D16A
:100C8C004B68122B3FF649AF122B3FF666AF01A50E
:100C9C0055F823F04F0B0008E70B0008F10B000888
:100CAC00030C0008670B0008670B0008670B0008B3
:100CBC00670B0008670B0008670B0008670B000840
:100CCC00670B0008670B0008670B0008670B000830
:100CDC00670B0008670B0008EB0B0008F70B00080C
:100CEC00012395E7022393E7114A936823EA0E0345
:100CFC0093609CE70E4AD36823EA0E03D3609FE708
:100D0C000B4A536823EA0E035360A2E7084A1368A0
:100D1C0023EA0E031360A5E702B070BD0000221099
:100D2C00000031100010024000000140000801409A
:100D3C00000401400AB10161704709040161704768
:100D4C00074AD36823F4E0631B041B0C000200F475
:100D5C00E060034343F0BF6343F40033D360704758
:100D6C0000ED00E000B5194BDB68C3F30223C3F1BF
:100D7C00070CBCF1040F28BF4FF0040C03F1040E58
:100D8C00BEF1060F18D9033B4FF0FF3E0EFA0CFCD8
:100D9C0021EA0C0199400EFA03FE22EA0E020A43E4
:100DAC0000280BDB1201D2B200F1604000F561406B
:100DBC0080F800235DF804FB0023E5E700F00F004A
:100DCC001201D2B2024B1A54F4E700BF00ED00E05E
:100DDC0014ED00E00138B0F1807F0BD24FF0E0232E
:100DEC005861054AF02182F82310002098610722EF
:100DFC001A6170470120704700ED00E07047000059
:100E0C00FFF7FCFF0B480C490C4A002302E0D458B6
:100E1C00C4500433C4188C42F9D3094A094C00233A
:100E2C0001E013600432A242FBD300F017F8FFF785
:100E3C0059FA7047000000200C000020F40E000846
:100E4C000C00002084000020FEE70346024493427D
:100E5C0000D1704703F8011BF9E7000070B50026BC
:100E6C000C4D0D4C641BA410A64209D100F01AF8CD
:100E7C0000260A4D0A4C641BA410A64205D170BD75
:100E8C0055F8043B98470136EEE755F8043B984774
:100E9C000136F2E7EC0E0008EC0E0008EC0E000830
:100EAC00F00E0008F8B500BFF8BC08BC9E467047B1
:0C0EBC00F8B500BFF8BC08BC9E467047AB
:100EC80002030405060708090A0B0C0D0E0F101083
:100ED80001020000000000000000000001020304FD
:040EE80006070809E8
:040EEC007501000884
:040EF0004D010008A8
:0C0EF40001000000100000000024F400C9
:0400000508000E0DD4
:00000001FF
